:020000040800F2
:10000000A81500204D0200080B230008471D00081A
:1000100009230008AD050008652C00080000000059
:100020000000000000000000000000004D24000857
:10003000BD05000800000000792300080525000820
:1000400067020008670200086702000867020008EC
:1000500067020008670200086702000867020008DC
:1000600067020008670200086702000867020008CC
:1000700067020008670200086702000867020008BC
:1000800067020008670200086702000867020008AC
:10009000670200086702000867020008670200089C
:1000A000670200086702000867020008670200088C
:1000B00067020008092600086702000867020008B6
:1000C000670200086702000867020008670200086C
:1000D0006702000867020008592C00086702000840
:1000E000670200086702000867020008670200084C
:1000F000670200086702000867020008670200083C
:10010000670200086702000867020008670200082B
:10011000670200086702000867020008670200081B
:10012000670200086702000867020008670200080B
:1001300067020008670200086702000867020008FB
:10014000B10500086702000867020008670200089E
:1001500067020008670200086702000867020008DB
:1001600067020008670200086702000867020008CB
:10017000670200086702000867020008000000002C
:100180006702000867020008670200085928000893
:10019000670200086702000867020008670200089B
:1001A00000000000000000006702000800F002F8F4
:1001B00000F03CF80AA090E8000C82448344AAF1C5
:1001C0000107DA4501D100F031F8AFF2090EBAE8C3
:1001D0000F0013F0010F18BFFB1A43F0010318477B
:1001E0001834000038340000103A24BF78C878C1B1
:1001F000FAD8520724BF30C830C144BF04680C602D
:10020000704700000023002400250026103A28BF74
:1002100078C1FBD8520728BF30C148BF0B60704778
:100220001FB503F0D7F91FBD10B510BD00F046F99A
:100230001146FFF7F5FF02F0C1FE00F064F903B4C8
:10024000FFF7F2FF03BC00F06BF90000094880479C
:1002500009480047FEE7FEE7FEE7FEE7FEE7FEE7A8
:10026000FEE7FEE7FEE7FEE704480549054A064BC0
:1002700070470000B5250008AD010008A80F002058
:10028000A8150020A8110020A811002053EA020C94
:1002900000F069802DE9F04B4FF00006002B1FBFE6
:1002A000B3FA83F503FA05F424FA05F65E4012BFAB
:1002B0001643B2FA82F502FA05F4C5F120051EBF15
:1002C00022FA05FC44EA0C04203556EA044C4FEAB5
:1002D000144418BF641C4FF000084FF0000990420E
:1002E00071EB030C39D3002919BFB1FA81F701FA78
:1002F00007F6B0FA80F700FA07F6C7F120071EBF2D
:1003000020FA07FC46EA0C062037B6FBF4FCA7EB04
:100310000507103F07F01F0BCBF120060CFA0BFB73
:100320002CFA06F644BFB3460026202FA4BF5E4633
:100330004FF0000B5BEA060C08BF4FF0010B19EB06
:100340000B09ABFB027C48EB0608C01B06FB02CC8A
:100350000BFB03CC71EB0C01C1E70B460246414697
:100360004846BDE8F08B13B54FF000004FF0000198
:10037000AFF30080BDE81C407047032A40F2308094
:1003800010F0030C00F0158011F8013BBCF1020FD6
:10039000624498BF11F801CB00F8013B38BF11F857
:1003A000013BA2F1040298BF00F801CB38BF00F86E
:1003B000013B11F0030300F04F80083AC0F00880C1
:1003C00051F8043B083A51F804CBA0E80810F5E7CF
:1003D000121D5CBF51F8043B40F8043BAFF30080B2
:1003E000D20724BF11F8013B11F801CB48BF11F827
:1003F000012B24BF00F8013B00F801CB48BF00F8F7
:10040000012B70474FF0000200B513469446964604
:10041000203922BFA0E80C50A0E80C50B1F1200117
:10042000BFF4F7AF090728BFA0E80C5048BF0CC0C5
:100430005DF804EB890028BF40F8042B08BF704723
:1004400048BF20F8022B11F0804F18BF00F8012B95
:10045000704770477047704710B5203AC0F00B8066
:10046000B1E81850203AA0E81850B1E81850A0E8B8
:100470001850BFF4F5AF5FEA027C24BFB1E8185012
:10048000A0E8185044BF18C918C0BDE810405FEA82
:10049000827C24BF51F8043B40F8043B08BF7047FE
:1004A000D20728BF31F8023B48BF11F8012B28BF03
:1004B00020F8023B48BF00F8012B7047754600F05A
:1004C0002BF8AE4605006946534620F007008546E6
:1004D00018B020B5FFF7C8FEBDE820404FF0000679
:1004E0004FF000074FF000084FF0000B21F007011C
:1004F000AC46ACE8C009ACE8C009ACE8C009ACE85F
:10050000C0098D46704710B50446AFF30080204601
:10051000BDE81040FFF793BE00487047480F002029
:1005200001491820ABBEFEE726000200704700001C
:10053000184870EE600A184A90ED070A30EE200A5B
:1005400010EE101A80ED070A914203DD9FED130AA9
:1005500080ED070A10EE101A114A914203D99FED5F
:10056000110A80ED070A1049D0ED071A91ED000A33
:1005700091ED011A20EE200A01EE210AD0ED061AB3
:1005800091ED021AC0ED060A70EEE11A01EE210AA1
:10059000704700002800002000401C4600401C4618
:1005A00000401CC600401CC6500E0020FEE70000A4
:1005B000014800F08BB90000200F0020704790F830
:1005C0002020012A09D090F82020022A05D0416A73
:1005D00041F48021416201207047006842690A436A
:1005E000426100207047F0B590F82040012C07D000
:1005F00090F82040022C03D0416A41F480215DE054
:100600000468A5686D0105D4A5682D0102D4A5680C
:10061000ED0050D5A4680125C4F30164A5401D6018
:100620008D684FF4C0739DB1CE6835434E6845EA7E
:10063000C605066803EB0417F5514FF4C275076849
:1006400005EB04150E697E51097D012905D009E0ED
:100650000E88CD6845EA4655EBE701684E5946F4E9
:1006600080764E511179D579567941EA05619579AF
:100670002D0445EA062529434FF4C676056806EBA6
:100680000416A9511178D57841EA05619578527818
:100690002D0445EA022211434FF4C475026805EBAC
:1006A00004155151006803EB0411425842F0010255
:1006B00042500020F0BD416A41F400114162012026
:1006C000F0BD000010B590F82020012A09D090F864
:1006D0002020022A05D0416A41F480214162012094
:1006E00010BD3A48D0F8002242F00102C0F80022C2
:1006F000D0F8002222F47C52C0F80022D0F8002268
:100700004B6A42EA0322C0F800220B7D01229A4084
:10071000D0F81C329343C0F81C32CB69B3B9D0F87F
:100720000C329343C0F80C328C894B6864F31F433E
:100730004C6900EBC404C4F840320C890B6864F3C4
:100740001F434C6900EBC404C4F84432CB69012B4D
:1007500016D1D0F80C321343C0F80C320C884B6819
:1007600064F31F434C6900EBC404C4F840320C89A5
:10077000CB6864F31F434C6900EBC404C4F84432F3
:100780008B69002BD0F804320ED01343C0F804322A
:100790000B69002BD0F8143208D01343C0F8143280
:1007A000096A012904D008E09343EFE79343F5E792
:1007B000D0F81C121143C0F81C12D0F8001221F01E
:1007C0000101C0F80012002010BD000000640040CC
:1007D000704730B590F82040012C07D090F82040A9
:1007E000022C03D0416A41F4802109E011B10129B2
:1007F00009D00CE00468E46807E0416A41F40011A4
:100800004162012030BD04682469A407F5D04FF48B
:10081000D874056804EB01142D5915F00405956092
:1008200005682D5942D0ED08556005682C59C4F370
:100830004004D4604FF4DA74056804EB01142D59B8
:1008400005F00F05156105682D59C5F3072595615C
:1008500005682C59240C54614FF4DC72046802EBD7
:100860000112A4581C700468A458240A5C7004681F
:10087000A458240C9C700468A258120EDA704FF42D
:10088000DE72046802EB0112A4581C710468A458BB
:10089000240A5C710468A458240C9C710468A25852
:1008A000120EDA7129B1012909D00DE06D0D156024
:1008B000BBE70068C16841F02001C16004E0006846
:1008C000016941F020010161002030BD2DE9F05F98
:1008D0000546006800244669D0F804908768D0F87F
:1008E0000CB0D0F810A0D0F81880F10748D0F90764
:1008F00014D001218160B80703D5284600F035FAED
:100900000CE0780702D54FF4006407E0380702D501
:100910004FF4805402E0284600F026FAF80516D578
:1009200029684FF480708860B80503D5284600F028
:100930001EFA0CE0780502D544F4005407E03805AF
:1009400002D544F4804402E0284600F00FFAF80390
:1009500016D529684FF480308860B80303D528463F
:1009600000F007FA0CE0780302D544F4004407E0F5
:10097000380302D544F4803402E0284600F0F8F948
:10098000300707D55FEACB6004D52968102044F40E
:100990000074C86070074FF0080707D55FEA0B7056
:1009A00004D52868C760284600F052F9B00706D57C
:1009B0002868C068800702D0284600F04BF970060E
:1009C00007D55FEACA6004D52968102044F4806422
:1009D0000861B00607D55FEA0A7004D52868076188
:1009E000284600F091F9F00606D5286800698007CE
:1009F00002D0284600F089F9B00308D55FEAC96043
:100A000005D5296810204860284600F07FF9F003DA
:100A100007D55FEA097004D528684760284600F0CA
:100A2000A9F9300446D55FEA497040D5F00504D5F0
:100A30005FEAC87001D044F00104B00504D55FEA54
:100A4000887001D544F00204700504D55FEA48704F
:100A500001D544F00404300529D518F0700F26D0D4
:100A600008F07000402815D006DC102809D0202896
:100A70000AD0302816D10AE050280ED0602811D1B3
:100A80000EE044F008040DE044F010040AE044F0E5
:100A9000200407E044F0400404E044F0800401E056
:100AA00044F480742868816921F0700181612968AB
:100AB00004204860002C05D0686A204368622846FC
:100AC000FFF786FEBDE8F09F70B5040003D094F8F0
:100AD000200010B104E0012070BD204600F082F833
:100AE0002068016821F00201016000F055FA054616
:100AF000052604E000F050FA401B0A2811D82068AF
:100B000040688007F6D42068016841F00101016067
:100B100000F042FA05460BE000F03EFA401B0A28BE
:100B200006D9606A40F40030606284F82060D2E741
:100B300020684068C007EFD0207E01282068016847
:100B40003DD021F080010160607E012820680168AD
:100B500038D021F040010160A07E012820680168A2
:100B600033D021F020010160E07E01282068016877
:100B70002ED041F010010160207F0128206801681B
:100B800029D021F008010160607F012820680168F8
:100B900024D021F004010160D4E902010843D4E922
:100BA0000412114308436168491E08432168C86163
:100BB00000206062012084F82000002070BD41F018
:100BC0008001C0E741F04001C5E741F02001CAE7DC
:100BD00021F01001CFE741F00801D4E741F0040112
:100BE000D9E7000000B50068164987B0884227D1D0
:100BF00015480021026842F080620260026802F03B
:100C000080620592026842F000720260006800F0A3
:100C1000007005904FF4405000900220CDE9010192
:100C200003200390092004906946084800F0C8F8A2
:100C300001221146402000F02FFA402000F020FA57
:100C400007B000BD00680040403802400004024088
:100C50007047000000B52A4989B088422DD107AB02
:100C60006A4600212648FFF7B4FD009901F01F00F5
:100C7000092822D1102323480322B0EE080AB3EB3F
:100C8000511F1CD1816A491C91FBF2F302FB131125
:100C90008162DDED080A00EB8101C1ED020AD0EDB1
:100CA000020A90ED031A70EE810A90ED041A70EEBC
:100CB000810A80EE801A80ED081A09B000BD012378
:100CC000B3EB511FF9D1C16A491C91FBF2F302FB4E
:100CD0001311C162DDED080A00EB8101C1ED050AC7
:100CE000D0ED050A90ED061A70EE810A90ED071A14
:100CF00070EE810A80EE801A80ED091ADDE70000AF
:100D0000200F0020200E0020704770477047000021
:100D100070B5044690F82000012804D0606A40F4C1
:100D20000020606218E0022084F82000206801683A
:100D300021F00101016000F02FF905460EE000BF2F
:100D400000F02AF9401B0A2808D9606A40F40030F4
:100D50006062052084F82000012070BD2068406892
:100D6000C007EDD1606270BD704770477047704733
:100D700070477047704790F83510022903D08021E2
:100D8000416501207047052180F835100068016831
:100D900021F00101016000207047000070B5044699
:100DA00000F0FAF80546601C02D0044800780444BC
:100DB00000F0F2F8401BA042FAD370BD9000002072
:100DC0002DE9F84FDFF890B100224FF001084FF005
:100DD000030A4FF00F090BF1040E00BF0B6808FA6D
:100DE00002F42340A3426ED14D68022D01D0122D92
:100DF0000ED1D50800EB850CDCF820505607F70E15
:100E000009FA07F6B5430E69BE402E43CCF82060C0
:100E1000066855000F790AFA05FC07F0030726EA71
:100E20000C06AF40374307604E68012E05D0022EF6
:100E300003D0112E01D0122E0ED18768CE6827EA7A
:100E40000C07AE403E4386604668A6430C79C4F367
:100E50000014944034434460C4688E6824EA0C044F
:100E6000AE402643C6604C68E4006FD53B4C256815
:100E700045F480452560246822F0030504F480448D
:100E80000094374C2E19D6F8084895072F0F09FA09
:100E900007F5AC43334DA84201D100252EE0324D79
:100EA000A84201D1012529E0304DA84201D10225F7
:100EB00024E02F4DA84201D103251FE02D4DA8426B
:100EC00002D104251AE041E02B4DA84201D10525AD
:100ED00014E02A4DA84201D106250FE0284DA84272
:100EE00001D107250AE0274DA84201D1082505E0D8
:100EF000254DA84201D1092500E00A25BD40254322
:100F0000C6F80858DBF800405D464E689C43F6037F
:100F100000D51C432C60DEF8004075464E689C43AB
:100F2000B60300D51C432C600B4D08352C684E6869
:100F30009C43F60200D51C432C60074D0C352C68F1
:100F40004E689C43B60200D51C432C60521C102AEC
:100F5000FFF444AFBDE8F88F003C01404438024044
:100F6000003001400000024000040240000802403E
:100F7000000C024000100240001402400018024021
:100F8000001C024000200240002402400AB181619E
:100F900070470904FBE700000148806870470000C3
:100FA00090000020024881680278114481607047F7
:100FB000900000200B4810B5016841F400710160F9
:100FC000016841F480610160016841F48071016051
:100FD000032000F081F8002000F006F800F024F86B
:100FE000002010BD003C024070B50D4D04464FF48A
:100FF0007A712878B1FBF0F00A490968B1FBF0F08A
:1010000000F007FB48B9102C07D200222146501EE1
:1010100000F042F800206C6070BD012070BD00003F
:10102000900000209C00002010B5032000F054F830
:10103000002211466FF00B0000F02EF8002211463E
:101040006FF00A0000F028F8002211466FF0090046
:1010500000F022F800221146501F00F01DF8002277
:101060001146101F00F018F800221146901E00F0E3
:1010700013F80022BDE810401146501E00F00CB8D5
:1010800000F01F02012191404009800000F1E020A2
:10109000C0F8001170470000F0B40E4B1B680C46FE
:1010A000C3F30223C3F10705042D00D90425191D3C
:1010B000072901D2002300E0DB1E012606FA05F114
:1010C000491E214099409E40761E16403143F0BC97
:1010D00001F01CB90CED00E0064900F007020868B9
:1010E0004FF6FF03184040EA0220034A104308600D
:1010F000704700000CED00E00000FA052DE9F04714
:101100000E46050065D0DFF81481D8F80000F7B26C
:1011100000F00F00B04207D288F80070D8F8000045
:1011200000F00F00B04254D128683D4C810712D521
:10113000400703D5206840F4E0502060287800077D
:1011400003D5206840F4604020602068A96820F042
:10115000F000084320602878C0072DD03049686827
:101160000839012812D0022813D0032811D00968A9
:10117000890700292DDA216821F00301014321604C
:10118000FFF70AFF814641F2883A0EE009688903B9
:10119000EFE709688901ECE7FFF7FEFEA0EB090124
:1011A000514502D90320BDE8F0872068696800F046
:1011B0000C00B0EB810FEFD1D8F80010404601F0E1
:1011C0000F01B14207D90770006800F00F00B0426C
:1011D00001D00120E7E72878400705D52068E968B5
:1011E00020F4E050084320602878000706D52068E6
:1011F000296920F4604040EAC100206000F03CF81A
:101200002168084AC1F30311515CC84006490860CF
:101210000020FFF7E9FE0020C5E70000003C024087
:1012200008380240DE3500089C00002001480068B4
:10123000704700009C0000200448054900680968C8
:10124000044AC1F38221515CC84070479C000020D1
:1012500008380240EE35000804480549006809686E
:10126000044AC1F34231515CC84070479C000020E1
:1012700008380240EE350008154810B5006810F037
:101280000C02144813D01449042A0FD0082A0ED196
:101290000F4C241F2268236802F03F025B0207D52F
:1012A0002068C0F38810A0FB010106E0084610BDCD
:1012B0002168C1F38811A1FB00010023FEF7E6FFBE
:1012C0002168C1F30141491C4900B0FBF1F010BD98
:1012D000083802400024F40040787D012DE9F84FE1
:1012E000050076D02878DFF8F8B2BE4CC00749D0A8
:1012F000DBF800105846C1F38101012908D00068CD
:10130000C0F3810002280AD1201D0068400206D5E2
:101310002068800336D568680028E2D032E068682B
:10132000B0F5803F10D0B0F5A02F206810D020F489
:1013300080302060206820F4802020606868A0B1A0
:10134000FFF72AFE06460CE0206840F48030F4E700
:1013500040F480202060F7E7FFF71EFE801B642822
:1013600073D820688003F7D50CE0FFF715FE06461A
:1013700005E000BFFFF710FE801B6428F0D820684E
:101380008003F7D42878DFF8608280074FF00009E7
:101390003ED5DBF80010584611F00C0F09D000685C
:1013A000C0F3810002280BD18D48001F0068400265
:1013B00006D42068800715D5E868012809D111E016
:1013C000E868B8B10120C8F80000FFF7E5FD06465F
:1013D00005E002E1FFF7E0FD801B0228C0D820688D
:1013E0008007F7D52068296920F0F80040EAC1009D
:1013F00020600DE0C8F80090FFF7CEFD064604E03F
:10140000FFF7CAFD801B02281FD820688007F7D489
:101410002878000722D5724E744869696C3671B11C
:1014200001210160FFF7B8FD074604E0FFF7B4FDB6
:10143000C01B022809D830688007F7D50EE0C0F835
:101440000090FFF7A9FD074605E083E0FFF7A4FD44
:10145000C01B02287ED830688007F7D42878400760
:1014600068D5DFF87CA100270AF1380ADAF8000015
:10147000C0000BD4DAF8001041F08051CAF8001017
:10148000DAF80000012700F080500090584E3068D4
:10149000C00510D4306840F480703060FFF77CFDE8
:1014A000009005E0FFF778FD0099401A022851D816
:1014B0003068C005F6D54A4EA868683601280FD0B6
:1014C0000528306810D020F001003060306820F02E
:1014D00004003060A868B8B1FFF75EFD00900FE02F
:1014E000306840F00100F4E740F004003060F7E7B6
:1014F000FFF752FD0099411A41F28830814264D8C9
:1015000030688007F4D50EE0FFF746FD009007E055
:10151000FFF742FD0099411A41F28830814254D8C8
:1015200030688007F4D42FB1DAF8001021F0805130
:10153000CAF80010A869C0B3DBF80010C1F381013C
:1015400002294AD00228484607D0C8F86000FFF7B1
:1015500023FD00E039E005463AE04746C8F8600060
:10156000FFF71AFD064604E0FFF716FD801B022870
:101570002BD820688001F7D4D5E907010843A96A70
:101580001C4A490802EB01416A6A41EA8211084398
:1015900095F82C1040EA01611148001F01600120FC
:1015A0003866FFF7F9FC054605E014E0FFF7F4FCA8
:1015B000401B022809D820688001F7D50BE000BF46
:1015C000FFF7EAFC401B022802D90320BDE8F88F90
:1015D00020688001F4D40020F8E70120F6E700003D
:1015E000083802400038024000004742800E47425F
:1015F000007000400000FFFF4FF0E0210428086960
:1016000003D020F004000861704740F00400FAE7BE
:10161000704710B5401EB0F1807F01D3012010BD8E
:101620004FF0E02460610F21601700F06FFE002092
:10163000A06107202061002010BD10B5FFF7E8FF72
:1016400010BD7047704730B590F83820012A20D07F
:10165000012280F83820022380F8393003685C6862
:1016600024F070045C6003685C680D682C435C6067
:1016700003689C6824F080049C6003689C68496847
:101680000C439C6080F83920002180F8381008460F
:1016900030BD022030BD10B5040003D094F83900ED
:1016A00010B107E0012010BD002084F8380020466A
:1016B00000F00CF8022084F83900211D206800F0A9
:1016C000A9FF012084F83900002010BD08B500688A
:1016D0000B49884212D10B48016841F002010160B8
:1016E0000068032200F00200009001211D20FFF796
:1016F000D3FCBDE808401D20FFF7C2BC08BD0000B8
:1017000000040040403802400168CA6842F001020B
:10171000CA600068016841F0010101600020704763
:10172000704770B50446006801694FF00005C94371
:10173000890715D4C168C943890711D4E91E01611D
:1017400001202076206880698007204602D0FFF7BC
:10175000E7FF04E000F0B0F8204600F043F92576FA
:1017600020680169C943490717D4C168C9434907BB
:1017700013D46FF004010161022020762068806993
:1017800010F4407F204602D0FFF7CAFF04E000F0CB
:1017900093F8204600F026F9257620680169C943B0
:1017A000090716D4C168C943090712D46FF00801AC
:1017B0000161042020762068C0698007204602D09D
:1017C000FFF7AEFF04E000F077F8204600F00AF9DA
:1017D000257620680169C943C90617D4C168C94381
:1017E000C90613D46FF0100101610820207620682B
:1017F000C06910F4407F204602D0FFF791FF04E05B
:1018000000F05AF8204600F0EDF8257620680169CE
:10181000C943C90708D1C168C943C90704D1891E92
:101820000161204600F0FCF820680169C9430906FF
:1018300009D4C168C943090605D46FF0800101616C
:101840002046FFF7FEFE20680169C943490609D416
:10185000C168C943490605D46FF0400101612046C3
:1018600000F038F920680169C94389060BD4C168C2
:10187000C943890607D46FF0200101612046BDE805
:101880007040FFF7DFBE70BD00B5006885B0B0F1F5
:10189000804F0CD104200090022001900020029083
:1018A00003900120049069460248FFF789FA05B0C9
:1018B00000BD000000000240704770B5044690F87B
:1018C00038000D4601280DD0012684F8386002202A
:1018D00084F8390042B1042A18D0082A2AD00C2AE8
:1018E0004DD139E0022070BD206800F0FFFE206875
:1018F000816941F0080181612068816921F004015A
:101900008161206881692A69114311E0206800F033
:1019100019FF2068816941F4006181612068816953
:1019200021F480618161206881692A6941EA02218C
:10193000816124E0206800F037FF2068C16941F030
:101940000801C1612068C16921F00401C1612068FA
:10195000C1692A69114311E0206800F055FF206831
:10196000C16941F40061C1612068C16921F48061ED
:10197000C1612068C1692A6941EA0221C16184F814
:101980003960002084F8380070BD10B5040003D021
:1019900094F8390010B107E0012010BD002084F850
:1019A0003800204600F00CF8022084F83900211D90
:1019B000206800F02FFE012084F83900002010BDBF
:1019C00008B50068B0F1804F08D10548016841F0C2
:1019D00001010160006800F00100009008BD0000F6
:1019E000403802407047000010B5044600680122EC
:1019F00000F070FE08492068884202D007498842FA
:101A000003D1416C41F4004141642068016841F018
:101A100001010160002010BD0000014000040140F0
:101A200070B5274988424AD101F080FA254C00253B
:101A3000A06C401CA064E06C401CE064606D401C25
:101A40006065206D401C20650A2814DB1E4890F953
:101A5000000000EE100AB8EEC00A00F0F9FC012305
:101A600060601A46A16800F033FD606001F042FD3D
:101A700060682565A060E06C012807DB1348C06B37
:101A8000B0F17E5F02D101F0ADF9E564A06C0128F0
:101A90000FD10F4890ED000A002001F0FBFA606CB6
:101AA000401CC4E91105022803D10020656401F03F
:101AB00019FB606D322802DB01F054FD656570BDD5
:101AC000E40E0020280000208C000020500E002092
:101AD000200E00207047704770B5026804461068F9
:101AE000D168536910F00F0F50D003F0010501F4D5
:101AF000907635435DD0C20705D0CA0503D5E26BA9
:101B000042F00102E263420705D5DA0703D0E26B37
:101B100042F00202E263820705D5DA0703D0E26BE6
:101B200042F00402E263020705D5DA0703D0E26B54
:101B300042F00802E263E26B002A33D0800604D54B
:101B4000880602D5204600F0B9FE20684069E16BA6
:101B5000C0F38010090700D428B3204600F0A0FE8F
:101B60002068416949061AD5416921F04001416167
:101B7000606BA0B11B490165606BFFF7FCF80028A2
:101B800010D0606B016DBDE870400847830610D52A
:101B90008B060ED52046BDE8704000F08FBE204673
:101BA000FFF799FF70BD2046FFF795FF0020E06327
:101BB00070BD030606D50B0604D52046BDE870406F
:101BC00001F018B84006F3D54806F1D5D168204693
:101BD00021F04001D160202184F8391000F0B2F8E2
:101BE00070BD00009128000870B5040004D094F87E
:101BF0003900002510B106E0012070BD84F838508E
:101C0000204600F023F8242084F839002068C168B9
:101C100021F40051C160204600F096FE2068016961
:101C200021F4904101612068416921F02A0141615C
:101C30002068C16841F40051C160E563202084F848
:101C4000390084F83A00002070BD000000B500683B
:101C5000174987B0884228D116480021026842F40B
:101C600000320260006800F400300590114810381E
:101C7000026842F008020260006800F00800059067
:101C8000602000900220CDE901010320039007208D
:101C9000049069460848FFF793F80222114626206F
:101CA000FFF7FAF92620FFF7EBF907B000BD0000B7
:101CB0000044004040380240000C024090F83A30A6
:101CC000202B1DD1D1B1CAB190F83830012B17D0DB
:101CD00081628285C2850021C163222280F83A2078
:101CE00080F8381001684A6942F001024A610068D0
:101CF000C16841F49071C1600020704701207047B5
:101D0000022070470D49884216D10D48411C827847
:101D100012B1012A05D10AE00978A52901D10121D2
:101D2000817007490122491C0448FFF7C7BF0978A1
:101D3000803901700021F3E770470000E00D0020BA
:101D40008C0000207047FEE7F0B50A68032492FA81
:101D5000A2F2B2FA82F30F257EE0324601269E40BF
:101D6000324078D0D1F804E0066892FAA2F7B7FAC8
:101D700087F74FEA470C04FA0CF7BE4392FAA2F732
:101D8000B7FA87F77F000EFA07FE46EA0E060660EE
:101D90004E68012E01D0022E15D1D1F808E08668D8
:101DA00092FAA2F7B7FA87F74FEA470C04FA0CF752
:101DB000BE4392FAA2F7B7FA87F77F000EFA07FE42
:101DC00046EA0E068660D1F810C0C66892FAA2F7FD
:101DD000B7FA87F77F0004FA07FE92FAA2F7B7FA7C
:101DE00087F77F0026EA0E060CFA07FC46EA0C0687
:101DF000C6604E68022E2ED192FAA2F6B6FA86F688
:101E0000082E4E6913D2076A92FAA2FCBCFA8CFC27
:101E10004FEA8C0C05FA0CFC92FAA2F2B2FA82F2AA
:101E2000920027EA0C0796403743076213E0476A9F
:101E3000120A92FAA2FCBCFA8CFC4FEA8C0C05FA4E
:101E40000CFC92FAA2F2B2FA82F2920027EA0C0794
:101E50009640374347625B1C0A681646DA407FF4B7
:101E60007CAF4A68012A01D0022A07D1CB684168B9
:101E70003246914306FB03F2114341600120F0BD5D
:101E800010B5044600F0A4FA206000F077FA606014
:101E900000F082FAA060606800F08CFAE06010BD8B
:101EA0007FB50446C0680D460026C0F34030E8BB4D
:101EB000E9686868AA690843296911430843E16829
:101EC00049F20C6291430843E060A868216921F45B
:101ED0004051014321616869616921F44071014306
:101EE00061616846FFF7CCFF1348844208D013486D
:101EF000844213D01248844210D01248844201D147
:101F000003990CE01048844208D01048844205D060
:101F10000F48844202D00F4884420AD1029929B165
:101F20002B681BB101262046AA6900E001E000F001
:101F300013F804B0304670BD00100140004400406A
:101F40000048004000140140004C00400050004098
:101F500000780040007C0040F0B56424322501EB9D
:101F6000C10606EB0111B2F5004F2AD09A00B1FB71
:101F7000F2F3B3FBF4F3B1FBF2F66FF018077B4317
:101F800006EB8303B1FBF2F605EB0313B3FBF4F3AB
:101F9000B6FBF4F603F0F00303EB0613B1FBF2F625
:101FA000B1FBF2F1B1FBF4F1794306EB810105EBF2
:101FB0000111B1FBF4F101F00F01194489B2816004
:101FC000F0BD5A00B1FBF2F6B6FBF4F6B1FBF2F746
:101FD000B1FBF2F36FF0180C06FB0CF607EB86066C
:101FE00005EBC606B3FBF4F3B6FBF4F61B0106F0F3
:101FF000F80603EB4603B1FBF2F6B1FBF2F1B1FBDD
:10200000F4F101FB0CF106EB810105EBC101B1FB21
:10201000F4F101F00701D0E70F4810B50D49016058
:102020000C21416000214FF430228160C0E903128D
:102030004161017641768176C17601774177FEF77D
:1020400043FD002805D0BDE81040452103A000F065
:10205000C7BE10BD00680040200F00202E2E2F5359
:1020600072632F63616E2E63000000002DE9F04162
:102070002B4886B00024016841F01001016001681E
:1020800001F010010591016841F040010160016813
:1020900001F040010591016841F001010160016812
:1020A00001F001010591016841F0800101600168C2
:1020B00001F080010591016841F020010160016893
:1020C00001F020010591016841F002010160006802
:1020D000144F00F0020044F240050590002229460A
:1020E0003846FEF753FFDFF84080FE1400223146E9
:1020F0004046FEF74BFF00950125CDE901546946A6
:1021000038460394FEF75CFE0096CDE9015469461B
:1021100040460394FEF754FE06B0BDE8F08100008F
:1021200030380240001402400010024010B5194837
:102130008AB04FF08041016053210024C0E90114AE
:1021400044F61F61C0E90314FFF71FFC18B1B52165
:1021500011A000F045FE079407A90E480894FFF768
:1021600072FA18B1BC210CA000F03AFE6020CDE953
:10217000000402940822694606480494FFF79DFB78
:1021800018B1CF2104A000F02BFE0248FFF77CFB22
:102190000AB010BDA80E00202E2E2F5372632F748C
:1021A000696D2E63000000000C4810B50A490160FB
:1021B00040F2473141600021C722C0E902120161AB
:1021C000FFF769FA002805D0BDE81040402104A0BF
:1021D00000F006BE10BD000000040040E40E002028
:1021E0002E2E2F5372632F74696D2E630000000032
:1021F00030B52D488FB0016841F0004101600068A2
:10220000022100F000400D900320CDE907010025D8
:10221000CDE9090501240820CDE90B4007A9234891
:10222000FFF792FD22480068C0F30220C0F10701C9
:10223000042900D90421021D072A01D2002000E050
:10224000C01E04FA01F1491E01F0010181408440E1
:10225000641E04F0010001430801164981F80004DE
:1022600014494FF400204B39C1F800014FF4E1202C
:10227000CDE900050C200295CDE903500E4C0595E3
:10228000694620460695FFF70BFE206920F4904032
:102290002061606920F02A006061E06840F400502D
:1022A000E0600FB030BD0000403802400010024036
:1022B0000CED00E053E000E0007C00400D4810B55C
:1022C0000B4901604FF47A314160002181600C229A
:1022D000C160C0E904128161C161FFF785FC00287B
:1022E00005D0BDE81040692103A000F079BD10BD04
:1022F00000440040E00D00202E2E2F5372632F75F6
:10230000736172742E630000FEE770470907090EBF
:10231000002806DA00F00F0000F1E02080F8141D1C
:10232000704700F1E02080F8001470479FED111A0B
:10233000F7EE000A50EE010ABCEEE00A51B10429A2
:102340000DD0082910D00C2903D1006810EE101A06
:1023500001647047006810EE101A4163704700680E
:1023600010EE101A81637047006810EE101AC163F6
:102370007047000000401C4670470000044909688F
:10238000044A01F0F0010909515CC840704700009F
:1023900008380240DE35000804490968044A01F49F
:1023A000E05102EB91210978C8407047083802409B
:1023B000EE35000804490968044A01F4604102EB63
:1023C00051310978C840704708380240EE3500089E
:1023D0000748006810F00C01064807D0042904D013
:1023E000082903D1082000F009B80348704700000D
:1023F000083802400024F400001BB70010B5104A52
:1024000004460020116811F480030E4903D0B3F58F
:10241000800F00D10C49082C11D1106800F03F004A
:10242000B1FBF0F01168C1F3881148431168012233
:1024300001F4403102EB11414900B0FBF1F010BD55
:10244000043802400024F400001BB700704700006D
:1024500019491A4AD1ED0B0A70EE800A10EE900A63
:10246000C1ED0B0A904203DBDFED150AC1ED0B0A4B
:1024700010EE900A134A904203D3DFED130AC1ED28
:102480000B0A1248D1ED0B1AD0ED100A90ED111A7B
:1024900060EE800A41EE210AD1ED0A1A90ED121A7F
:1024A00081ED0A0A70EE611A41EE210AFDEEE00AA2
:1024B00010EE900A704700002800002000004842FB
:1024C00000004842000048C2000048C2500E0020F0
:1024D00010B504460A4803685B1C0360192B0DDB2A
:1024E00000230360601A904201DB881810BD53423C
:1024F000984201DC881A10BD204610BD084610BD68
:102500008800002010B5FEF74DFDBDE81040FFF734
:1025100094B8000030B5254893B00025016841F01B
:1025200080510160006800F08050119020480168DF
:1025300041F4404101600068022400F440401190E1
:1025400001200090000401908001CDE906400620A2
:102550000890A820CDE9090404200B906846FEF7F6
:10256000BDFE00B1FEE70CA90F2081E831004FF459
:10257000A0500F904FF48050109005210CA8FEF74A
:10258000BDFD00B1FEE7FEF751FE4FF47A71B0FBDE
:10259000F1F0FFF73EF80420FFF72EF80022114675
:1025A000501EFEF779FD13B030BD000040380240E8
:1025B000007000401048016841F4700101600F484C
:1025C000016841F0010101600C4A002108321160EC
:1025D00002680B4B1A400260031D0A4A1A60026827
:1025E00022F48022026005480C300160024958063E
:1025F000803908607047000088ED00E00038024034
:10260000FFFFF6FE103000240148FFF78AB80000F3
:10261000E40E0020F0B50268234B244D244E254FD4
:10262000254C4FF0804C984209D0604507D0A84215
:1026300005D0B04203D0B84201D0A04204D122F06C
:10264000700E4A6842EA0E0298421BD0604519D0CB
:10265000A84217D0B04215D0B84213D0A04211D032
:10266000164DA8420ED0164DA8420BD0154DA842CB
:1026700008D0154DA84205D0144DA84202D0144DE3
:10268000A84203D122F44075CA682A4302608A68CE
:10269000C2620A688262984201D0A04201D10969EF
:1026A000016301214161F0BD0000014000040040D0
:1026B00000080040000C00400004014000400140C0
:1026C000004401400048014000180040001C004048
:1026D0000020004010B50123046A8B409C43046233
:1026E000036A8A401343036210BD000030B5026ADA
:1026F00022F001020262026A436884690D6824F0D4
:102700007304254322F002048A6822430B4CA04242
:1027100002D00B4CA0420BD122F00804CA6823F46B
:10272000407322434C6922F004021C438B6923430B
:102730004360856149684163026230BD0000014029
:102740000004014030B5026A22F010020262026AFF
:10275000436884690D6824F4E64444EA05248D68DE
:1027600022F0200242EA05120D4DA84202D00D4D82
:10277000A8420ED1CD6822F0800242EA05124D69CE
:1027800023F4406343EA85038D6922F0400243EA63
:1027900085034360846149688163026230BD000043
:1027A000000001400004014030B5026A22F480724A
:1027B0000262036A4268C46923F4007324F073055B
:1027C0000C682C438D6843EA05230D4DA84202D0C6
:1027D0000C4DA8420ED1CD6823F4006343EA0523D3
:1027E0004D6922F4405242EA05128D6923F4806358
:1027F00042EA05124260C4614968C163036230BDA8
:10280000000001400004014030B5026A22F4805209
:102810000262046A4268C3690D6823F4E64343EA2E
:1028200005238D6824F4005444EA0534084DA84279
:1028300002D0084DA84204D14D6922F4804242EAF8
:1028400085124260C36149680164046230BD0000C2
:10285000000001400004014010B50B4C2068C0F39B
:10286000401000280ED0E068C0F34010002809D0C6
:1028700060680649C0B2487000F06CFDE06840F046
:102880002000E06010BD0000007C0040000000203F
:1028900010B5806B0021C185C184FFF71CF910BD04
:1028A0000168CA6822F49072CA6001684A6922F01D
:1028B00001024A61202180F83A10704710B590F863
:1028C0003A10222901D0022010BD8168B1F5805F45
:1028D00011D00169002901681FD0496801F07F0308
:1028E000816A4A1C82620B70C18D491E0904090C61
:1028F000C18518D026E00269816A002A0268526800
:1029000005D0D2B20A80816A491C8162ECE7C2F329
:1029100008020A80816A891CF7E74A68816A4B1CB1
:1029200083620A70E0E70168CA6822F49072CA60A4
:1029300001684A6922F001024A61202180F83A10B8
:10294000FFF7E0F9002010BD2DE9F04104460068D2
:10295000016921F44052E168114301612168C868AE
:1029600049F20C6290432369A268E5691A436369DE
:102970002B431A430243CA602168486920F440721D
:10298000A06910434861E1696425B1F5004F97489B
:10299000974A21684FF032083FD0914201D08142DE
:1029A0007CD1FEF759FC00EBC00101EB001061681F
:1029B0008900B0FBF1F6FEF74FFC00EBC00101EB24
:1029C000001061688900B0FBF1F0B0FBF5F06FF02A
:1029D0001801484306EB800108EB0110B0FBF5F04D
:1029E00000F0F006FEF738FC00EBC00101EB001030
:1029F00061688900B0FBF1F0B0FBF5F006EB001662
:102A0000FEF72AFC00EBC00101EB001061688900B1
:102A1000B0FBF1F7FEF720FCD2E0914201D08142F9
:102A20003DD1FEF719FC00EBC00101EB001061681D
:102A30004900B0FBF1F0B0FBF5F00601FEF70CFC2D
:102A400000EBC00101EB001061684900B0FBF1F739
:102A5000FEF702FC00EBC00101EB001061684900C9
:102A6000B0FBF1F0B0FBF5F06FF01801484307EB55
:102A7000800108EBC100B0FBF5F000F0F80006EBB8
:102A80004006FEF7E9FB00EBC00101EB00106168B6
:102A90004900B0FBF1F7FEF7DFFB3CE055E0FEF745
:102AA000CBFB00EBC00101EB001061684900B0FBFB
:102AB000F1F0B0FBF5F00601FEF7BEFB00EBC00144
:102AC00001EB001061684900B0FBF1F7FEF7B4FBC1
:102AD00000EBC00101EB001061684900B0FBF1F0B0
:102AE000B0FBF5F06FF01801484307EB800108EBED
:102AF000C100B0FBF5F000F0F80006EB4006FEF771
:102B00009BFB00EBC00101EB001061684900B0FBCA
:102B1000F1F7FEF791FB00EBC00101EB00106168DB
:102B20004900B0FBF1F0B0FBF5F06FF0180148433D
:102B300007EB800108EBC100B0FBF5F000F00700E7
:102B4000216830448860BDE8F081FEF775FB00EB3A
:102B5000C00101EB001061688900B0FBF1F6FEF7DF
:102B60006BFB00EBC00101EB001061688900B0FB5A
:102B7000F1F0B0FBF5F06FF01801484306EB80016F
:102B800008EB0110B0FBF5F000F0F006FEF754FB87
:102B900000EBC00101EB001061688900B0FBF1F0AF
:102BA000B0FBF5F006EB0016FEF746FB00EBC001AC
:102BB00001EB001061688900B0FBF1F7FEF73CFB08
:102BC00000EBC00101EB001061688900B0FBF1F07F
:102BD000B0FBF5F06FF01801484307EB800108EBFC
:102BE0000110B0FBF5F000F00F00A9E70014014060
:102BF0000010014090F83910212901D002207047BF
:102C00008168B1F5805F016A0BD04A1C02620268DC
:102C100009785160C18C491E0904090CC1840ED089
:102C200017E009880268C1F30801516001690029B1
:102C3000016A02D0491C0162ECE7891CFBE70168CC
:102C4000CA6822F08002CA600068C16841F0400191
:102C5000C1600020704700000148FEF73DBF000042
:102C6000E00D0020FEE70000401A00EE100A1848B0
:102C7000184AB8EEC00AD0ED090A70EE800A10EECC
:102C8000901AC0ED090A914203DDDFED130AC0ED91
:102C9000090A10EE901A114A914203D9DFED100A89
:102CA000C0ED090A0F49B2EE041AD1ED060A60EE32
:102CB000800A80EE810AD1ED070A90ED091A60EED4
:102CC000810A9FED091AC0EE811A30EE210A704781
:102CD000280000200000484300004843000048C38B
:102CE000000048C3500E002000007A44154830EE22
:102CF000600A154AD0ED080A70EE800A10EE901AAC
:102D0000C0ED080A914203DDF3EE0E0AC0ED080A99
:102D100010EE901A0D4A914203D9FBEE0E0AC0ED57
:102D2000080A0B49D0ED081AD1ED030A20EE800AFB
:102D3000D1ED040A00EEA10AD1ED050A01EE200A48
:102D400070470000280000200000F0410000F0C1A2
:102D5000500E0020401A00EE100A1B481B4AF8EEE5
:102D6000C00A90ED030A30EE200A10EE101A80ED32
:102D7000030A914203DB9FED160A80ED030A10EE71
:102D8000101A144A914203D99FED130A80ED030AE9
:102D90001249B0EE600AF2EE041A91ED091A21EE22
:102DA000001A81EE210A91ED0A1AD0ED031A01EE04
:102DB000810AD0ED051A91ED0B1AC0ED050A70EEEF
:102DC000E11A01EE210A7047280000206F12833AB1
:102DD0006F12833A6F1283BA6F1283BA500E0020BB
:102DE000FEE70000F0B5354B0027354CD86B354E6B
:102DF000401CD863186C401C18643C2810DB96ED0E
:102E00000E0ABDEEC00A10EE101A94ED080ABDEECF
:102E1000C00A10EE100AFFF727FF83ED0D0A1F64AA
:102E2000D86B294D0F280EDB96ED0C0AD3ED0D0A59
:102E300095ED031A70EE200A95ED060AFFF756FF8E
:102E400083ED0C0ADF6395ED030AD3ED0C0AFDF761
:102E50006FFB10EE100A1D4983ED0E0A84ED000A87
:102E6000884202DD9FED1A0A06E010EE100A1949A9
:102E7000884203D99FED180A84ED000A18780528C6
:102E800017D095ED060AD6ED0C0A144A30EE600A0A
:102E900010EE101A914204DC10EE101A11F17F5F4F
:102EA00002D90420187004E018B1042801D00528C4
:102EB00003D19FED0B0A84ED000AF0BD280000202D
:102EC000200E0020500E0020A000002000005C42D8
:102ED00000005C4200005CC200005CC20000404098
:102EE00000000000F0B50388002541F221070CE046
:102EF0004C5D002683EA04235C001B0400D57C4063
:102F0000761C2346082EF7D36D1C9542F0D3038020
:102F1000F0BD000010B50349034800F07DFA002021
:102F200010BD000019310008C4000020134900B58D
:102F3000134A086BD061486B9061886B00EE100AF1
:102F400082ED080AB5EEC00AF1EE10FA07D200EEE3
:102F5000100ADFED0C0A30EE200A82ED080A8869BB
:102F600000EE100A82ED030AC8691061086A506118
:102F700000F00CF882ED030A00BD0000D00800202C
:102F8000A00000200000B443FFF7C4BF0A48F0EEE1
:102F9000400A0178012903D100210170C0ED020A25
:102FA00090ED020A90ED011A70EEC00A01EE200ABF
:102FB00080ED020A7047000000000020FDF7FAFFD4
:102FC000FFF7A8FAFFF752F8FFF778F9FFF724F8B0
:102FD000FFF7EAF8FFF70CF900F03CF8FFF7D4FF31
:102FE00000F026FA0948C16841F02001C16000F0F4
:102FF00075FA0748FEF788FB012206490648FEF7E6
:103000005DFE6420FDF7CAFEFBE70000007C004087
:10301000E40E00208D000020E00D002000B58BB0F4
:10302000002001210190029008910590CDE9060150
:1030300004900090039069460548FDF743FB04485F
:10304000FDF766FE02210248FDF7B9FA0BB000BD9C
:10305000200F00200E489FED0D0A002180ED000A90
:1030600080ED010A80ED080A80ED090A80ED020A70
:1030700080ED030A80ED040A80ED050A80ED060A62
:1030800080ED070A8162C162FFF7C8BF000000003F
:10309000200E002000B589B0002210EE101A08237F
:1030A000039204930292C8B101200D2343EA401019
:1030B000CDE900028DF81810080A8DF81900080CE7
:1030C0008DF81A00080E8DF81B00079208AB06AAAF
:1030D00069460348FDF787FA09B000BD1020E4E710
:1030E000200F002000B589B0022103910021029138
:1030F000049168B10120092242EA4010CDE90001A3
:1031000008AB06AA69460348FDF76DFA09B000BD91
:103110001020F0E7200F00202DE9F04F06462DED9E
:10312000028B83B0002000900190029096F808185E
:10313000351D0446A52926D1DFF80882DFF808B23C
:10314000B2EE048A88F800004FF07F090BF14C0AB8
:1031500015E0285DB0284CD008DC62287DD090288E
:1031600016D091287AD0A02808D11CE0C02864D0BD
:10317000D02874D0D12873D0F02872D0641CB6F84F
:103180000408A042E5DC03B0BDEC028BBDE8F08F83
:1031900098F80010A41C41F0010188F8001069782B
:1031A0008BF80110EBE798F80010684641F0020137
:1031B00088F800102919491C00F0C8F99DED000A93
:1031C000F8EEC00A9FED610A80EE801A8BED031ABB
:1031D000DDED010AF8EEE00A80EE801A8BED041AAC
:1031E000DDED020AF8EEE00A80EE801A8BED051A9A
:1031F00072E098F80010684641F0040188F8001069
:103200002919491C00F0A2F99DED000AB8EEC00A88
:10321000C0EE080ACBED060A9DED010AB8EEC00A21
:10322000C0EE080ACBED070A9DED020AB8EEC00A0F
:10323000C0EE080ACBED080A4EE098F80010684688
:1032400041F0080188F800102919491C00F07EF9A6
:103250009DED000AF8EEC00A04E059E04FE016E0E8
:103260003CE04AE080EE880A8BED090A9DED010AF8
:10327000B8EEC00AC0EE080ACBED0A0A9DED020ABC
:10328000B8EEC00AC0EE080ACBED0B0A24E098F8AD
:103290000010684641F0100188F800102919491CF7
:1032A00000F054F99DED000AF8EEC00A9FED280ADF
:1032B00080EE801A8BED0D1ADDED010AF8EEE00AC2
:1032C00080EE801A8BED0C1A9DED020AB8EEC00A52
:1032D000C0EE080ACBED0E0AE41D50E798F8001086
:1032E000194841F0200188F80010291910223C30BB
:1032F000491CFDF742F8113441E7641D3FE788F8A7
:1033000000904C2229461048FDF737F84C3436E738
:103310000D4829680C380027816569680834C16543
:103320000AE000BF88F8009029194C220AF1030036
:10333000FDF723F84C347F1C9AF80210B942CCDD1B
:10334000F0E700000C000020D008002000007A44C4
:103350000000C84270B52F4C0025A21D911F237894
:103360004969072B53D2DFE803F004080F141D202E
:1033700028005A284CD1012004E081F80808A5282B
:1033800046D10220207043E0A1F804089070032089
:10339000F8E7B1F8043843EA0023A1F80438D07004
:1033A0000420EFE760800520ECE7628842EA002015
:1033B00060800D60A5800620E4E70A680B1D561C9E
:1033C0000E60D0540868B0F5006F02D3257001205C
:1033D00070BDB1F8042890421AD391F80808A528C6
:1033E00016D10C490422891D881EFFF77BFD6169F7
:1033F000084804C9001DFFF775FDA0886188884250
:1034000005D1E068401CE060D4E9041088472570CD
:10341000002070BD1000002070B5044D04462961E5
:1034200040F60C01FCF7EEFF6C6170BD100000204F
:1034300021489FED200ADFED220A80ED030A9FED6F
:103440001F0A80ED040AC0ED050ADFED1E0AC0ED7B
:10345000000ADFED1D0A80ED010AC0ED020ADFED72
:103460001B0AC0ED060A80ED070ADFED190A80EDA0
:10347000080AC0ED090ADFED170AC0ED0B0A80ED5E
:103480000A0AF8EE000AC0ED0C0A80ED0E0A80ED83
:103490000F0AF0EE000AC0ED100ADFED0F0AC0EDD2
:1034A000110A80ED120A80ED130A80ED140A80EDF6
:1034B000150A7047333327C1500E0020000000006A
:1034C0009A99B9C0CDCCECBFF6285CBF7B142E3FD7
:1034D0000AD7233C17B7D1386F12833A10B5FEF7DD
:1034E00025FEBDE8104008210148FEF77DBA000026
:1034F000A80E00204FF4757100F54370884203DC7C
:103500004FF41171884200DA084600EE100ADFED30
:103510000C0AB8EEC01A81EE200A10EE100AB0F1C3
:103520007E5F01DDB0EE600AB5EEC00AF1EE10FA82
:1035300001D29FED040A08210348FEF7F7BE000000
:1035400000401C4600000000A80E0020B1F9002039
:103550000260B1F902204260B1F9041081600020DC
:1035600070470000174810B590ED000A164910EE9C
:10357000100A164CF0EE080A884202DD30EE600AAE
:1035800006E010EE100A10F17F5F03D930EE200A3A
:1035900084ED170A0E4B93ED0E0ABDEEC00A10EE35
:1035A000101A94ED170ABDEEC00A10EE100AFFF7CC
:1035B000D1FB84ED160AD3ED0C0A30EE800A83EDC0
:1035C0000C0A10BD200E0020000040402800002002
:1035D000500E00204FF04070E1EE100A70470000DE
:1035E00000000000000001020304060708090000B3
:1035F000000001020304000018360008000000204B
:10360000A0000000E8010008B8360008A000002073
:103610000815000004020008010000008FC2F53CFC
:1036200000000000000000000000000000005AA59B
:10363000000000000000000000000000000000008A
:103640000100000000000000000000000000000079
:10365000000000000000000000000000000000006A
:10366000000000000000000000000000000000005A
:10367000000000000000000000000000000000004A
:10368000000000000000000000000000000000003A
:10369000000000000000000000000000000000002A
:1036A0000000000000000000010000001000000009
:0836B000000000000024F400FA
:04000005080001AD41
:00000001FF
