:020000040800F2
:10000000D81500204D020008B7220008531C000834
:10001000B5220008CD050008B12900080000000045
:100020000000000000000000000000006124000843
:10003000DD050008000000008D23000819250008D8
:1000400067020008670200086702000867020008EC
:1000500067020008670200086702000867020008DC
:1000600067020008670200086702000867020008CC
:1000700067020008670200086702000867020008BC
:1000800067020008670200086702000867020008AC
:10009000670200086702000867020008670200089C
:1000A000670200086702000867020008670200088C
:1000B000670200081D2600082926000867020008BC
:1000C000670200086702000867020008670200086C
:1000D000670200086702000867020008670200085C
:1000E000670200086702000867020008670200084C
:1000F000670200086702000867020008670200083C
:10010000670200086702000867020008670200082B
:10011000670200086702000867020008670200081B
:10012000670200086702000867020008670200080B
:1001300067020008670200086702000867020008FB
:10014000D10500086702000867020008670200087E
:1001500067020008670200086702000867020008DB
:1001600067020008670200086702000867020008CB
:10017000670200086702000867020008000000002C
:100180006702000867020008E528000879290008CE
:10019000670200086702000867020008670200089B
:1001A00000000000000000006702000800F002F8F4
:1001B00000F03CF80AA090E8000C82448344AAF1C5
:1001C0000107DA4501D100F031F8AFF2090EBAE8C3
:1001D0000F0013F0010F18BFFB1A43F0010318477B
:1001E000D0340000F0340000103A24BF78C878C141
:1001F000FAD8520724BF30C830C144BF04680C602D
:10020000704700000023002400250026103A28BF74
:1002100078C1FBD8520728BF30C148BF0B60704778
:100220001FB503F023FA1FBD10B510BD00F05AF939
:100230001146FFF7F5FF02F0FFFE00F078F903B476
:10024000FFF7F2FF03BC00F07BF90000094880478C
:1002500009480047FEE7FEE7FEE7FEE7FEE7FEE7A8
:10026000FEE7FEE7FEE7FEE704480549054A064BC0
:1002700070470000C9250008AD010008D80F002014
:10028000D8150020D8110020D811002053EA020C04
:1002900000F069802DE9F04B4FF00006002B1FBFE6
:1002A000B3FA83F503FA05F424FA05F65E4012BFAB
:1002B0001643B2FA82F502FA05F4C5F120051EBF15
:1002C00022FA05FC44EA0C04203556EA044C4FEAB5
:1002D000144418BF641C4FF000084FF0000990420E
:1002E00071EB030C39D3002919BFB1FA81F701FA78
:1002F00007F6B0FA80F700FA07F6C7F120071EBF2D
:1003000020FA07FC46EA0C062037B6FBF4FCA7EB04
:100310000507103F07F01F0BCBF120060CFA0BFB73
:100320002CFA06F644BFB3460026202FA4BF5E4633
:100330004FF0000B5BEA060C08BF4FF0010B19EB06
:100340000B09ABFB027C48EB0608C01B06FB02CC8A
:100350000BFB03CC71EB0C01C1E70B460246414697
:100360004846BDE8F08B13B54FF000004FF0000198
:10037000AFF30080BDE81C407047032A40F2308094
:1003800010F0030C00F0158011F8013BBCF1020FD6
:10039000624498BF11F801CB00F8013B38BF11F857
:1003A000013BA2F1040298BF00F801CB38BF00F86E
:1003B000013B11F0030300F05A80083AC0F00880B6
:1003C00051F8043B083A51F804CBA0E80810F5E7CF
:1003D000121D5CBF51F8043B40F8043BAFF30080B2
:1003E000D20724BF11F8013B11F801CB48BF11F827
:1003F000012B24BF00F8013B00F801CB48BF00F8F7
:10040000012B70474FF0000200B513469446964604
:10041000203922BFA0E80C50A0E80C50B1F1200117
:10042000BFF4F7AF090728BFA0E80C5048BF0CC0C5
:100430005DF804EB890028BF40F8042B08BF704723
:1004400048BF20F8022B11F0804F18BF00F8012B95
:10045000704770477047704710B500F03BF8006870
:1004600010BD10B5044600F035F8046010BD10B59D
:10047000203AC0F00B80B1E81850203AA0E818509C
:10048000B1E81850A0E81850BFF4F5AF5FEA027C5D
:1004900024BFB1E81850A0E8185044BF18C918C0CC
:1004A000BDE810405FEA827C24BF51F8043B40F86D
:1004B000043B08BF7047D20728BF31F8023B48BF52
:1004C00011F8012B28BF20F8023B48BF00F8012B90
:1004D0007047000000487047780F002000487047C0
:1004E000780F00207546FFF7F9FFAE460500694614
:1004F000534620F00700854618B020B5FFF7B4FE3C
:10050000BDE820404FF000064FF000074FF0000814
:100510004FF0000B21F00701AC46ACE8C009ACE895
:10052000C009ACE8C009ACE8C0098D46704710B5F9
:100530000446AFF300802046BDE81040FFF77FBEC1
:1005400001491820ABBEFEE72600020070470000FC
:10055000184870EE600A184A90ED0B0A30EE200A37
:1005600010EE101A80ED0B0A914203DD9FED130A85
:1005700080ED0B0A10EE101A114A914203D99FED3B
:10058000110A80ED0B0A1049D0ED0B1A91ED000A0B
:1005900091ED011A20EE200A01EE210AD0ED0A1A8F
:1005A00091ED021AC0ED0A0A70EEE11A01EE210A7D
:1005B000704700002C00002000401C4600401C46F4
:1005C00000401CC600401CC63C0E0020FEE7000098
:1005D000014800F0C5B900009C0E002070470000E3
:1005E00010B5184C1848616A90ED080A11B101293C
:1005F00025D104E084ED1D0A012060621FE0D4EDE6
:100600001D0A30EE600A02F0CFFA10489FED101A72
:10061000D0ED090A60EE810A94ED041A20EE811AE9
:10062000D4ED050A41EE000A10EE900AC4ED050A69
:10063000B0F1804F03DB00206062012010BD00207C
:1006400010BD00002C000020CC0000200C0E00206B
:100650006F12833A90F82020012A09D090F82020C8
:10066000022A05D0416A41F480214162012070478D
:10067000006842690A43426100207047F0B590F873
:100680002040012C07D090F82040022C03D0416A72
:1006900041F480215DE00468A5686D0105D4A5687A
:1006A0002D0102D4A568ED0050D5A4680125C4F33E
:1006B0000164A5401D608D684FF4C0739DB1CE6884
:1006C00035434E6845EAC605066803EB0417F55145
:1006D0004FF4C275076805EB04150E697E51097D5C
:1006E000012905D009E00E88CD6845EA4655EBE7BB
:1006F00001684E5946F480764E511179D579567974
:1007000041EA056195792D0445EA062529434FF410
:10071000C676056806EB0416A9511178D57841EA2A
:100720000561957852782D0445EA022211434FF471
:10073000C475026805EB04155151006803EB041100
:10074000425842F0010242500020F0BD416A41F49B
:10075000001141620120F0BD10B590F82020012A5F
:1007600009D090F82020022A05D0416A41F4802166
:100770004162012010BD3A48D0F8002242F0010247
:10078000C0F80022D0F8002222F47C52C0F80022E7
:10079000D0F800224B6A42EA0322C0F800220B7D07
:1007A00001229A40D0F81C329343C0F81C32CB6926
:1007B000B3B9D0F80C329343C0F80C328C894B6833
:1007C00064F31F434C6900EBC404C4F840320C8945
:1007D0000B6864F31F434C6900EBC404C4F8443253
:1007E000CB69012B16D1D0F80C321343C0F80C3270
:1007F0000C884B6864F31F434C6900EBC404C4F8D5
:1008000040320C89CB6864F31F434C6900EBC4048D
:10081000C4F844328B69002BD0F804320ED0134355
:10082000C0F804320B69002BD0F8143208D01343FF
:10083000C0F81432096A012904D008E09343EFE7B5
:100840009343F5E7D0F81C121143C0F81C12D0F8FE
:10085000001221F00101C0F80012002010BD0000BC
:1008600000640040704730B590F82040012C07D05C
:1008700090F82040022C03D0416A41F4802109E025
:1008800011B1012909D00CE00468E46807E0416A6D
:1008900041F400114162012030BD04682469A407BD
:1008A000F5D04FF4D874056804EB01142D5915F0F8
:1008B0000405956005682D5942D0ED08556005681E
:1008C0002C59C4F34004D4604FF4DA74056804EB87
:1008D00001142D5905F00F05156105682D59C5F353
:1008E0000725956105682C59240C54614FF4DC727E
:1008F000046802EB0112A4581C700468A458240A6E
:100900005C700468A458240C9C700468A258120EF1
:10091000DA704FF4DE72046802EB0112A4581C7105
:100920000468A458240A5C710468A458240C9C71BF
:100930000468A258120EDA7129B1012909D00DE01C
:100940006D0D1560BBE70068C16841F02001C16012
:1009500004E00068016941F020010161002030BD20
:100960002DE9F05F0546006800244669D0F8049040
:100970008768D0F80CB0D0F810A0D0F81880F10734
:1009800048D0F90714D001218160B80703D5284663
:1009900000F035FA0CE0780702D54FF4006407E068
:1009A000380702D54FF4805402E0284600F026FABA
:1009B000F80516D529684FF480708860B80503D50E
:1009C000284600F01EFA0CE0780502D544F40054E5
:1009D00007E0380502D544F4804402E0284600F0E0
:1009E0000FFAF80316D529684FF480308860B803F1
:1009F00003D5284600F007FA0CE0780302D544F44A
:100A0000004407E0380302D544F4803402E028466D
:100A100000F0F8F9300707D55FEACB6004D5296804
:100A2000102044F40074C86070074FF0080707D521
:100A30005FEA0B7004D52868C760284600F052F9B9
:100A4000B00706D52868C068800702D0284600F0A5
:100A50004BF9700607D55FEACA6004D529681020F3
:100A600044F480640861B00607D55FEA0A7004D5D3
:100A700028680761284600F091F9F00606D5286835
:100A80000069800702D0284600F089F9B00308D534
:100A90005FEAC96005D5296810204860284600F043
:100AA0007FF9F00307D55FEA097004D5286847602D
:100AB000284600F0A9F9300446D55FEA497040D5D0
:100AC000F00504D55FEAC87001D044F00104B00518
:100AD00004D55FEA887001D544F00204700504D59E
:100AE0005FEA487001D544F00404300529D518F0B8
:100AF000700F26D008F07000402815D006DC1028B2
:100B000009D020280AD0302816D10AE050280ED06B
:100B1000602811D10EE044F008040DE044F0100408
:100B20000AE044F0200407E044F0400404E044F00C
:100B3000800401E044F480742868816921F0700128
:100B40008161296804204860002C05D0686A204330
:100B500068622846FFF786FEBDE8F09F70B5040086
:100B600003D094F8200010B104E0012070BD2046AD
:100B700000F082F82068016821F00201016000F0B5
:100B800043FA0546052604E000F03EFA401B0A2819
:100B900011D8206840688007F6D42068016841F0C9
:100BA0000101016000F030FA05460BE000F02CFA7C
:100BB000401B0A2806D9606A40F40030606284F85D
:100BC0002060D2E720684068C007EFD0207E01286F
:100BD000206801683DD021F080010160607E01281D
:100BE0002068016838D021F040010160A07E012812
:100BF0002068016833D021F020010160E07E0128E7
:100C0000206801682ED041F010010160207F01288A
:100C10002068016829D021F008010160607F012867
:100C20002068016824D021F004010160D4E90201A8
:100C30000843D4E90412114308436168491E08437C
:100C40002168C86100206062012084F82000002033
:100C500070BD41F08001C0E741F04001C5E741F0BF
:100C60002001CAE721F01001CFE741F00801D4E7E5
:100C700041F00401D9E7000000B50068164987B0CB
:100C8000884227D115480021026842F08062026044
:100C9000026802F080620592026842F0007202600F
:100CA000006800F0007005904FF440500090022062
:100CB000CDE901010320039009200490694608480A
:100CC00000F0B6F801221146402000F01DFA402045
:100CD00000F00EFA07B000BD006800404038024046
:100CE000000402407047000000B52A4989B08842DC
:100CF0002DD107AB6A4600212648FFF7B4FD0099C5
:100D000001F01F00092822D1102323480322B0EE4E
:100D1000080AB3EB511F1CD1816A491C91FBF2F305
:100D200002FB13118162DDED080A00EB8101C1EDC8
:100D3000020AD0ED020A90ED031A70EE810A90EDDE
:100D4000041A70EE810A80EE801A80ED081A09B04C
:100D500000BD1823B3EB511FF9D1C16A491C91FBA7
:100D6000F2F302FB1311C162DDED080A00EB810111
:100D7000C1ED050AD0ED050A90ED061A70EE810A64
:100D800090ED071A70EE810A80EE801A80ED091A44
:100D9000DDE700009C0E00200C0E0020704770471D
:100DA0007047000070B5044690F82000012804D078
:100DB000606A40F40020606218E0022084F820009D
:100DC0002068016821F00101016000F01DF905466D
:100DD0000EE000BF00F018F9401B0A2808D9606A2D
:100DE00040F400306062052084F82000012070BDCE
:100DF00020684068C007EDD1606270BD70477047E1
:100E000070477047704770477047000070B50446E0
:100E100000F0FAF80546601C02D00448007804444B
:100E200000F0F2F8401BA042FAD370BDBC000020D5
:100E30002DE9F84FDFF890B100224FF001084FF094
:100E4000030A4FF00F090BF1040E00BF0B6808FAFC
:100E500002F42340A3426ED14D68022D01D0122D21
:100E60000ED1D50800EB850CDCF820505607F70EA4
:100E700009FA07F6B5430E69BE402E43CCF8206050
:100E8000066855000F790AFA05FC07F0030726EA01
:100E90000C06AF40374307604E68012E05D0022E86
:100EA00003D0112E01D0122E0ED18768CE6827EA0A
:100EB0000C07AE403E4386604668A6430C79C4F3F7
:100EC0000014944034434460C4688E6824EA0C04DF
:100ED000AE402643C6604C68E4006FD53B4C2568A5
:100EE00045F480452560246822F0030504F480441D
:100EF0000094374C2E19D6F8084895072F0F09FA99
:100F000007F5AC43334DA84201D100252EE0324D08
:100F1000A84201D1012529E0304DA84201D1022586
:100F200024E02F4DA84201D103251FE02D4DA842FA
:100F300002D104251AE041E02B4DA84201D105253C
:100F400014E02A4DA84201D106250FE0284DA84201
:100F500001D107250AE0274DA84201D1082505E067
:100F6000254DA84201D1092500E00A25BD402543B1
:100F7000C6F80858DBF800405D464E689C43F6030F
:100F800000D51C432C60DEF8004075464E689C433B
:100F9000B60300D51C432C600B4D08352C684E68F9
:100FA0009C43F60200D51C432C60074D0C352C6881
:100FB0004E689C43B60200D51C432C60521C102A7C
:100FC000FFF444AFBDE8F88F003C014044380240D4
:100FD00000300140000002400004024000080240CE
:100FE000000C0240001002400014024000180240B1
:100FF000001C024000200240002402400AB181612E
:1010000070470904FBE70000014880687047000052
:10101000BC0000200248816802781144816070475A
:10102000BC0000200B4810B5016841F4007101605C
:10103000016841F480610160016841F480710160E0
:10104000032000F081F8002000F006F800F024F8FA
:10105000002010BD003C024070B50D4D04464FF419
:101060007A712878B1FBF0F00A490968B1FBF0F019
:1010700000F0E7FA48B9102C07D200222146501E92
:1010800000F042F800206C6070BD012070BD0000CF
:10109000BC000020C800002010B5032000F054F868
:1010A000002211466FF00B0000F02EF800221146CE
:1010B0006FF00A0000F028F8002211466FF00900D6
:1010C00000F022F800221146501F00F01DF8002207
:1010D0001146101F00F018F800221146901E00F073
:1010E00013F80022BDE810401146501E00F00CB865
:1010F00000F01F02012191404009800000F1E02032
:10110000C0F8001170470000F0B40E4B1B680C468D
:10111000C3F30223C3F10705042D00D90425191DCB
:10112000072901D2002300E0DB1E012606FA05F1A3
:10113000491E214099409E40761E16403143F0BC26
:1011400001F0EEB80CED00E0064900F00702086877
:101150004FF6FF03184040EA0220034A104308609C
:10116000704700000CED00E00000FA052DE9F047A3
:101170000E46050065D0DFF81481D8F80000F7B2FC
:1011800000F00F00B04207D288F80070D8F80000D5
:1011900000F00F00B04254D128683D4C810712D5B1
:1011A000400703D5206840F4E0502060287800070D
:1011B00003D5206840F4604020602068A96820F0D2
:1011C000F000084320602878C0072DD030496868B7
:1011D0000839012812D0022813D0032811D0096839
:1011E000890700292DDA216821F0030101432160DC
:1011F000FFF70AFF814641F2883A0EE00968890349
:10120000EFE709688901ECE7FFF7FEFEA0EB0901B3
:10121000514502D90320BDE8F0872068696800F0D5
:101220000C00B0EB810FEFD1D8F80010404601F070
:101230000F01B14207D90770006800F00F00B042FB
:1012400001D00120E7E72878400705D52068E96844
:1012500020F4E050084320602878000706D5206875
:10126000296920F4604040EAC100206000F01CF8C9
:101270002168084AC1F30311515CC840064908605F
:101280000020FFF7E9FE0020C5E70000003C024017
:101290000838024076360008C8000020014800687F
:1012A00070470000C8000020154810B5006810F015
:1012B0000C02144813D01449042A0FD0082A0ED166
:1012C0000F4C241F2268236802F03F025B0207D5FF
:1012D0002068C0F38810A0FB010106E0084610BD9D
:1012E0002168C1F38811A1FB00010023FEF7CEFFA6
:1012F0002168C1F30141491C4900B0FBF1F010BD68
:10130000083802400024F40040787D012DE9F84FB0
:10131000050076D02878DFF8F8B2BE4CC00749D077
:10132000DBF800105846C1F38101012908D000689C
:10133000C0F3810002280AD1201D0068400206D5B2
:101340002068800336D568680028E2D032E06868FB
:10135000B0F5803F10D0B0F5A02F206810D020F459
:1013600080302060206820F4802020606868A0B170
:10137000FFF74AFE06460CE0206840F48030F4E7B0
:1013800040F480202060F7E7FFF73EFE801B6428D2
:1013900073D820688003F7D50CE0FFF735FE0646CA
:1013A00005E000BFFFF730FE801B6428F0D82068FE
:1013B0008003F7D42878DFF8608280074FF00009B7
:1013C0003ED5DBF80010584611F00C0F09D000682C
:1013D000C0F3810002280BD18D48001F0068400235
:1013E00006D42068800715D5E868012809D111E0E6
:1013F000E868B8B10120C8F80000FFF705FE06460E
:1014000005E002E1FFF700FE801B0228C0D820683B
:101410008007F7D52068296920F0F80040EAC1006C
:1014200020600DE0C8F80090FFF7EEFD064604E0EE
:10143000FFF7EAFD801B02281FD820688007F7D439
:101440002878000722D5724E744869696C3671B1EC
:1014500001210160FFF7D8FD074604E0FFF7D4FD46
:10146000C01B022809D830688007F7D50EE0C0F805
:101470000090FFF7C9FD074605E083E0FFF7C4FDD4
:10148000C01B02287ED830688007F7D42878400730
:1014900068D5DFF87CA100270AF1380ADAF80000E5
:1014A000C0000BD4DAF8001041F08051CAF80010E7
:1014B000DAF80000012700F080500090584E3068A4
:1014C000C00510D4306840F480703060FFF79CFD98
:1014D000009005E0FFF798FD0099401A022851D8C6
:1014E0003068C005F6D54A4EA868683601280FD086
:1014F0000528306810D020F001003060306820F0FE
:1015000004003060A868B8B1FFF77EFD00900FE0DE
:10151000306840F00100F4E740F004003060F7E785
:10152000FFF772FD0099411A41F28830814264D878
:1015300030688007F4D50EE0FFF766FD009007E005
:10154000FFF762FD0099411A41F28830814254D878
:1015500030688007F4D42FB1DAF8001021F0805100
:10156000CAF80010A869C0B3DBF80010C1F381010C
:1015700002294AD00228484607D0C8F86000FFF781
:1015800043FD00E039E005463AE04746C8F8600010
:10159000FFF73AFD064604E0FFF736FD801B022800
:1015A0002BD820688001F7D4D5E907010843A96A40
:1015B0001C4A490802EB01416A6A41EA8211084368
:1015C00095F82C1040EA01611148001F01600120CC
:1015D0003866FFF719FD054605E014E0FFF714FD36
:1015E000401B022809D820688001F7D50BE000BF16
:1015F000FFF70AFD401B022802D90320BDE8F88F3F
:1016000020688001F4D40020F8E70120F6E700000C
:10161000083802400038024000004742800E47422E
:10162000007000400000FFFF4FF0E021042808692F
:1016300003D020F004000861704740F00400FAE78E
:10164000704710B5401EB0F1807F01D3012010BD5E
:101650004FF0E02460610F21601700F061FE002070
:10166000A06107202061002010BD10B5FFF7E8FF42
:1016700010BD7047704730B590F83820012A20D04F
:10168000012280F83820022380F8393003685C6832
:1016900024F070045C6003685C680D682C435C6037
:1016A00003689C6824F080049C6003689C68496817
:1016B0000C439C6080F83920002180F838100846DF
:1016C00030BD022030BD10B5040003D094F83900BD
:1016D00010B107E0012010BD002084F8380020463A
:1016E00000F00CF8022084F83900211D206800F079
:1016F000A1FF012084F83900002010BD08B5154A6B
:101700000168154891420ED1016841F00201016063
:101710000068032200F00200009001211D20FFF765
:10172000F3FC1D2010E00D4A914211D1016841F0F7
:10173000040101600068042200F00400009001210F
:101740001E20FFF7E1FC1E20BDE80840FFF7D0BCDB
:1017500008BD00000004004040380240000800407E
:101760000168CA6842F00102CA600068016841F07D
:10177000010101600020704770B5044690F8380000
:10178000012817D0012584F83850022084F8390048
:101790002068826822F0770222F47F428260086823
:1017A000502837D00DDC202859D005DC88B310280C
:1017B00041D151E0022070BD302853D040283AD1A9
:1017C0003FE060282ED070280BD0B0F5805F03D0AA
:1017D000B0F5005F2FD110E02068816821F007018B
:1017E00015E0CB68D1E90121206800F08EFF216867
:1017F000886840F0770088601DE0CB68D1E901215E
:10180000206800F082FF2068816841F48041816097
:1018100011E01EE0CA684968206801F03FF85021D5
:10182000206806E0CA684968206801F048F860212D
:10183000206800F074FF84F83950002084F83800E4
:1018400070BDCA684968206801F028F84021206806
:10185000EFE700212068ECE710212068E9E720216C
:101860002068E6E730212068E3E7704770B504465A
:10187000006801694FF00005C943890715D4C168A4
:10188000C943890711D4E91E01610120207620682F
:1018900080698007204602D0FFF7E7FF04E000F0F0
:1018A000B1F8204600F044F9257620680169C94363
:1018B000490717D4C168C943490713D46FF004011D
:1018C0000161022020762068806910F4407F204664
:1018D00002D0FFF7CAFF04E000F094F8204600F0C1
:1018E00027F9257620680169C943090716D4C1681C
:1018F000C943090712D46FF0080101610420207662
:101900002068C0698007204602D0FFF7AEFF04E0E0
:1019100000F078F8204600F00BF925762068016980
:10192000C943C90617D4C168C943C90613D46FF0A7
:1019300010010161082020762068C06910F4407F02
:10194000204602D0FFF791FF04E000F05BF820464C
:1019500000F0EEF8257620680169C943C90708D16F
:10196000C168C943C90704D1891E0161204600F03E
:10197000FDF820680169C943090609D4C168C94353
:10198000090605D46FF0800101612046FFF771FE62
:1019900020680169C943490609D4C168C943490699
:1019A00005D46FF040010161204600F051F9206834
:1019B0000169C94389060BD4C168C943890607D4A4
:1019C0006FF0200101612046BDE87040FFF752BE74
:1019D00070BD000000B5006885B0B0F1804F0CD13B
:1019E000042000900220019000200290039001202A
:1019F000049069460248FFF71BFA05B000BD0000DD
:101A000000000240704770B5044690F838000D465B
:101A100001280DD0012684F83860022084F83900AE
:101A200042B1042A18D0082A2AD00C2A4DD139E014
:101A3000022070BD206800F07BFE2068816941F0C3
:101A4000080181612068816921F0040181612068B9
:101A500081692A69114311E0206800F095FE206831
:101A6000816941F4006181612068816921F48061AC
:101A70008161206881692A6941EA0221816124E04B
:101A8000206800F0B3FE2068C16941F00801C1611F
:101A90002068C16921F00401C1612068C1692A6917
:101AA000114311E0206800F0D1FE2068C16941F4C3
:101AB0000061C1612068C16921F48061C161206851
:101AC000C1692A6941EA0221C16184F839600020B4
:101AD00084F8380070BD10B5040003D094F83900C4
:101AE00010B107E0012010BD002084F83800204626
:101AF00000F00CF8022084F83900211D206800F065
:101B000099FD012084F83900002010BD08B5006857
:101B1000B0F1804F08D10548016841F00101016032
:101B2000006800F00100009008BD0000403802404D
:101B30007047000010B504460068012200F0DAFD8D
:101B400008492068884202D00749884203D1416C85
:101B500041F4004141642068016841F001010160E5
:101B6000002010BD000001400004014070B5324962
:101B7000324C884252D101F017FA606D0025401CAA
:101B80006065A06D401CA065206E401C2066E06D65
:101B9000401CE065616E491C616605281EDB284813
:101BA000B0F9000000EE100AB8EEC00A00F05AFCCE
:101BB00000EE100A0F230122B8EEC00A84ED1C0AC1
:101BC000BDEEC00A10EE100A6060A16800F08AFC49
:101BD000606001F0E1FC6068E565A060606E64280B
:101BE0000ADBE068012806D101F0CEFAFEF7F8FC26
:101BF000012800D1E5606566A06D012807DB11486A
:101C0000006DB0F17E5F02D101F02CF9A565206E68
:101C1000C82802DB01F0F8FC256670BD0A4988423D
:101C2000FBD1606D401C6065084890ED000ABDE87E
:101C30007040002001F07CBA3C0F00202C000020F6
:101C4000AE0000203C0E0020000F00200C0E0020F3
:101C50007047FEE7044908B50A6802430A6009684C
:101C60000140009108BD000040380240F0B50A680C
:101C7000032492FAA2F2B2FA82F30F257EE03246F2
:101C800001269E40324078D0D1F804E0066892FAEE
:101C9000A2F7B7FA87F74FEA470C04FA0CF7BE43EE
:101CA00092FAA2F7B7FA87F77F000EFA07FE46EA24
:101CB0000E0606604E68012E01D0022E15D1D1F815
:101CC00008E0866892FAA2F7B7FA87F74FEA470C5E
:101CD00004FA0CF7BE4392FAA2F7B7FA87F77F002F
:101CE0000EFA07FE46EA0E068660D1F810C0C668F6
:101CF00092FAA2F7B7FA87F77F0004FA07FE92FA82
:101D0000A2F7B7FA87F77F0026EA0E060CFA07FC5F
:101D100046EA0C06C6604E68022E2ED192FAA2F652
:101D2000B6FA86F6082E4E6913D2076A92FAA2FC1A
:101D3000BCFA8CFC4FEA8C0C05FA0CFC92FAA2F26D
:101D4000B2FA82F2920027EA0C0796403743076204
:101D500013E0476A120A92FAA2FCBCFA8CFC4FEA22
:101D60008C0C05FA0CFC92FAA2F2B2FA82F2920002
:101D700027EA0C079640374347625B1C0A68164601
:101D8000DA407FF47CAF4A68012A01D0022A07D1E9
:101D9000CB6841683246914306FB03F21143416030
:101DA0000120F0BD10B5044600F01CFB206000F0DF
:101DB000EFFA606000F0FAFAA060606800F004FBDF
:101DC000E06010BD7FB50446C0680D460026C0F334
:101DD0004030E8BBE9686868AA690843296911438B
:101DE0000843E16849F20C6291430843E060A86847
:101DF000216921F44051014321616869616921F43D
:101E00004071014361616846FFF7CCFF134884428B
:101E100008D01348844213D01248844210D012488C
:101E2000844201D103990CE01048844208D0104844
:101E3000844205D00F48844202D00F4884420AD120
:101E4000029929B12B681BB101262046AA6900E03E
:101E500001E000F013F804B0304670BD00100140FE
:101E6000004400400048004000140140004C004085
:101E70000050004000780040007C0040F0B5642431
:101E8000322501EBC10606EB0111B2F5004F2AD055
:101E90009A00B1FBF2F3B3FBF4F3B1FBF2F66FF08F
:101EA00018077B4306EB8303B1FBF2F605EB031344
:101EB000B3FBF4F3B6FBF4F603F0F00303EB061305
:101EC000B1FBF2F6B1FBF2F1B1FBF4F1794306EBB1
:101ED000810105EB0111B1FBF4F101F00F0119448F
:101EE00089B28160F0BD5A00B1FBF2F6B6FBF4F6A0
:101EF000B1FBF2F7B1FBF2F36FF0180C06FB0CF636
:101F000007EB860605EBC606B3FBF4F3B6FBF4F667
:101F10001B0106F0F80603EB4603B1FBF2F6B1FB3A
:101F2000F2F1B1FBF4F101FB0CF106EB810105EBE1
:101F3000C101B1FBF4F101F00701D0E70F4810B582
:101F40000D4901600621416000214FF4302281607B
:101F5000C0E903124161017641768176C17601774D
:101F60004177FEF7FBFD002805D0BDE81040452174
:101F700003A000F017BE10BD006800409C0E0020BA
:101F80002E2E2F5372632F63616E2E6300000000AC
:101F90002DE9F0412B4886B00024016841F0100182
:101FA0000160016801F010010591016841F04001F4
:101FB0000160016801F040010591016841F00101F3
:101FC0000160016801F001010591016841F08001A3
:101FD0000160016801F080010591016841F0200174
:101FE0000160016801F020010591016841F00201E2
:101FF00001600068144F00F0020044F240050590B3
:10200000002229463846FEF7F9FFDFF84080FE142B
:10201000002231464046FEF7F1FF00950125CDE94B
:102020000154694638460394FEF702FF0096CDE955
:102030000154694640460394FEF7FAFE06B0BDE837
:10204000F0810000303802400014024000100240CD
:1020500010B51A488AB04FF0804101605321002426
:10206000C0E9011444F61F61C0E90314FFF733FD12
:1020700018B1E92112A000F095FD079407A90F48B7
:102080000894FFF7F8FA18B1F0210DA000F08AFDCE
:102090006020CDE9000402940822694607480494B0
:1020A000FFF7B1FC20B140F2031105A000F07AFD6A
:1020B0000248FFF78FFC0AB010BD0000C40E0020DC
:1020C0002E2E5C5372635C74696D2E6300000000F9
:1020D0000C4810B50A49016040F2473141600021C7
:1020E000C722C0E902120161FFF7EDFA002805D00E
:1020F000BDE810405E2104A000F054BD10BD0000FA
:10210000000400403C0F00202E2E5C5372635C7470
:10211000696D2E630000000010B5184886B016499E
:10212000016040F247310024C0E9011440F2E73178
:10213000C0E90314FFF7C7FA18B13E2110A000F060
:1021400031FD4FF48050009069460C48FFF714FBB6
:1021500018B144210AA000F025FD049404A9074801
:102160000594FFF788FA002803D04B2104A000F063
:1021700019FD06B010BD000000080040000F00204F
:102180002E2E5C5372635C74696D2E630000000038
:1021900010B58EB04FF08040FFF75CFD4FF4C0707B
:1021A00007900220089003200024CDE909040120B3
:1021B0000B9008200C9007A91748FFF757FD174808
:1021C00000680222C0F30220114600F080F80146A8
:1021D000522000F095F8522000F06EF84FF4E130F4
:1021E000CDE900040C200294CDE903400594069447
:1021F0000B4C69462046FFF7E5FD206920F490402E
:102200002061606920F02A006061E06840F40050BD
:10221000E0600EB010BD0000001002400CED00E0C8
:102220000078004010B58EB04FF00040FFF712FD6F
:1022300003200221CDE907010024CDE90904012092
:102240000B9008200C9007A91748FFF70FFD1748BF
:1022500000680122C0F30220114600F038F8014660
:10226000532000F04DF8532000F026F84FF4E12001
:10227000CDE900040C200294CDE9034005940694B6
:102280000B4C69462046FFF79DFD206920F49040E5
:102290002061606920F02A006061E06840F400502D
:1022A000E0600EB010BD0000001002400CED00E038
:1022B000007C0040FEE7704700F01F0201219140C2
:1022C0004009800000F1E020C0F80011704730B5EF
:1022D00000F00703C3F10704042C00D90424181DDF
:1022E000072801D2002300E0DB1E012505FA04F0D7
:1022F000401E084098409D406D1E1540284330BD4B
:102300000907090E002806DA00F00F0000F1E020AE
:1023100080F8141D704700F1E02080F80014704729
:102320000907090E002806DA00F00F0000F1E0208E
:1023300080F8141D704700F1E02080F80014704709
:102340009FED111AF7EE000A50EE010ABCEEE00A0A
:1023500051B104290DD0082910D00C2903D10068EF
:1023600010EE101A01647047006810EE101A4163F5
:102370007047006810EE101A81637047006810EE15
:10238000101AC1637047000000401C4670470000EF
:1023900004490968044A01F0F0010909515CC84088
:1023A0007047000008380240763600080449096882
:1023B000044A01F4E05102EB91210978C8407047CA
:1023C000083802408636000804490968044A01F4C6
:1023D000604102EB51310978C8407047083802402B
:1023E000863600080748006810F00C01064807D040
:1023F000042904D0082903D1082000F009B80348B3
:1024000070470000083802400024F400001BB700A9
:1024100010B5104A04460020116811F480030E49DB
:1024200003D0B3F5800F00D10C49082C11D11068EE
:1024300000F03F00B1FBF0F01168C1F38811484390
:102440001168012201F4403102EB11414900B0FB57
:10245000F1F010BD043802400024F400001BB70066
:102460007047000019491A4AD1ED0F0A70EE800A30
:1024700010EE900AC1ED0F0A904203DBDFED150A62
:10248000C1ED0F0A10EE900A134A904203D3DFED1C
:10249000130AC1ED0F0A1248D1ED0F1AD0ED150A3B
:1024A00090ED161A60EE800A41EE210AD1ED0E1A67
:1024B00090ED171A81ED0E0A70EE611A41EE210AB5
:1024C000FDEEE00A10EE900A704700002C0000209C
:1024D0000000484200004842000048C2000048C2D4
:1024E0003C0E002030B50B4C05462068401C206097
:1024F00098420DDB00202060681A904201DB8818AA
:1025000030BD5342984201DC881A30BD284630BDA8
:10251000084630BDA400002010B5FEF77BFDBDE8E5
:102520001040FFF7A2B8000030B5254893B0002551
:10253000016841F080510160006800F08050119006
:102540002048016841F4404101600068022400F421
:102550004040119001200090000401908001CDE9DD
:10256000064006200890A820CDE9090404200B901D
:102570006846FEF7CBFE00B1FEE70CA90F2081E80C
:1025800031004FF4A0500F904FF48050109005216F
:102590000CA8FEF7EBFD00B1FEE7FEF77FFE4FF45F
:1025A0007A71B0FBF1F0FFF74CF80420FFF73CF82C
:1025B00000221146501EFEF7A7FD13B030BD0000EB
:1025C00040380240007000401048016841F470013A
:1025D00001600F48016841F0010101600C4A0021CF
:1025E0000832116002680B4B1A400260031D0A4A50
:1025F0001A60026822F48022026005480C300160F3
:1026000002495806803908607047000088ED00E0F4
:1026100000380240FFFFF6FE103000240148FFF7AB
:1026200025B900003C0F00200148FFF71FB900004A
:10263000000F0020F0B50268234B244D244E254F97
:10264000254C4FF0804C984209D0604507D0A842F5
:1026500005D0B04203D0B84201D0A04204D122F04C
:10266000700E4A6842EA0E0298421BD0604519D0AB
:10267000A84217D0B04215D0B84213D0A04211D012
:10268000164DA8420ED0164DA8420BD0154DA842AB
:1026900008D0154DA84205D0144DA84202D0144DC3
:1026A000A84203D122F44075CA682A4302608A68AE
:1026B000C2620A688262984201D0A04201D10969CF
:1026C000016301214161F0BD0000014000040040B0
:1026D00000080040000C00400004014000400140A0
:1026E000004401400048014000180040001C004028
:1026F0000020004010B50123046A8B409C43046213
:10270000036A8A401343036210BD10B5846842EA2D
:10271000032224F47F440A432243826010BD82686E
:1027200022F070020A4342F0070181607047000006
:1027300030B5026A22F001020262026A43688469CB
:102740000D6824F07304254322F002048A682243B2
:102750000B4CA04202D00B4CA0420BD122F008043B
:10276000CA6823F4407322434C6922F004021C43DC
:102770008B6923434360856149684163026230BDD0
:10278000000001400004014030B5026A22F010024E
:102790000262026A436884690D6824F4E64444EAEC
:1027A00005248D6822F0200242EA05120D4DA84250
:1027B00002D00D4DA8420ED1CD6822F0800242EA2F
:1027C00005124D6923F4406343EA85038D6922F0C5
:1027D000400243EA85034360846149688163026281
:1027E00030BD0000000001400004014030B5026A25
:1027F00022F480720262036A4268C46923F400739F
:1028000024F073050C682C438D6843EA05230D4DB5
:10281000A84202D00C4DA8420ED1CD6823F400632B
:1028200043EA05234D6922F4405242EA05128D69BC
:1028300023F4806342EA05124260C4614968C163BF
:10284000036230BD000001400004014030B5026A5F
:1028500022F480520262046A4268C3690D6823F45C
:10286000E64343EA05238D6824F4005444EA053422
:10287000084DA84202D0084DA84204D14D6922F467
:10288000804242EA85124260C36149680164046281
:1028900030BD0000000001400004014010B5036A93
:1028A000046A24F001040462846924F0F00444EA18
:1028B000021423F00A020A438461026210BD10B5BB
:1028C000036A23F0100303628369046A23F47043EC
:1028D00043EA023224F0A00343EA0111826101625B
:1028E00010BD000030B5214A1068C0F34010002828
:1028F00032D0D068C0F3401000282DD05068C1B24B
:102900001B48841D0170801E0378E1545B1CDCB2FF
:1029100000230470042C00D103700579012445B113
:10292000012D0AD0124C641C022D16D0032D0FD19C
:1029300016E0A5290CD104710AE011B1012903D0D8
:1029400005E00221017103E00A48046000E0037120
:10295000D06840F02000D06030BD21700321F1E745
:10296000247841EA0421C180F1E7000000780040AA
:10297000AA0000203800002010B50B4C2068C0F3DE
:10298000401000280ED0E068C0F34010002809D0A5
:1029900060680649C0B2487000F032FDE06840F05F
:1029A0002000E06010BD0000007C0040000000201E
:1029B000FEE70000401A00EE100A1848184AB8EE68
:1029C000C00AD0ED0D0A70EE800A10EE901AC0ED2C
:1029D0000D0A914203DDDFED130AC0ED0D0A10EE82
:1029E000901A114A914203D9DFED100AC0ED0D0A89
:1029F0000F49B2EE041AD1ED060A60EE800A80EEAD
:102A0000810AD1ED070A90ED0D1A60EE810A9FED63
:102A1000091AC0EE811A30EE210A70472C000020FE
:102A20000000484300004843000048C3000048C37A
:102A30003C0E002000007A44154830EE600A154A2A
:102A4000D0ED0C0A70EE800A10EE901AC0ED0C0A60
:102A5000914203DDF3EE0E0AC0ED0C0A10EE901A5F
:102A60000D4A914203D9FBEE0E0AC0ED0C0A0B4948
:102A7000D0ED0C1AD1ED030A20EE800AD1ED040A44
:102A800000EEA10AD1ED050A01EE200A7047000010
:102A90002C0000200000F0410000F0C13C0E00209E
:102AA0003A4A00B50346506800F0FAFA0A2802DCF8
:102AB000F7EE000A2DE0506800F0F2FA0A2807DD70
:102AC000506800F0EDFA322802DCF2EE000A20E055
:102AD000506800F0E5FA322807DD506800F0E0FAAF
:102AE000642802DCF3EE000A13E0506800F0D8FA24
:102AF000642807DD506800F0D3FA962802DCF3EE74
:102B0000040A06E0506800F0CBFA962801DDF3EEE7
:102B1000080A581A00EE100A1D49B8EEC01A82EDD4
:102B2000071A92ED060A30EE010A10EE100A82ED45
:102B3000060A884203DD9FED170A82ED060A10EEB1
:102B4000100A1549884203D39FED140A82ED060A44
:102B50001348B2EE042A90ED090AC0EE021AB0EE54
:102B6000410A20EE200AD0ED0A0A21EE800AD2EDB9
:102B7000061A01EEA00AD2ED081AD0ED0B0A82ED7A
:102B8000081A71EE611A00EEA10A00BD2C000020A7
:102B90000AD7233C0AD7233C0AD723BC0AD723BC35
:102BA0003C0E0020FEE7000010EE101A08B5444A63
:102BB0006846B2EB410F28D94FF0E640B0EB410F29
:102BC00094BF00204FF0FF3000900098002861DB98
:102BD00060EE000A10F0010F45D010F0020FDFED9B
:102BE000391A9FED391A00EEE11ADFED381A40EE7E
:102BF000811A21EEA01AF0EE400A40EE010A08BF49
:102C0000F1EE600AB0EE600A08BD314B21F00042DF
:102C100093423CD911F0004FDFED2E0A20EE201A2E
:102C2000DFED2D0A19BF31EE601A71EE200A31EE88
:102C3000201A71EE600ABDEEE01A11EE100A9FED47
:102C4000271A00F0030000EEC10A9FED251A00903C
:102C500000EEC10A9FED231A00EEC10A9FED221A71
:102C600000EEC10AB1E79FED211A9FED210A10F095
:102C7000020F00EE810A9FED1F1A00EE801AB7EED8
:102C8000000A00EE810A18BFB1EE400A08BD00F04C
:102C90003FF89AE710EE100A4000B0F17F4F3CBFBA
:102CA000B7EE000A08BD07D14FF00100FDF7D9FBD0
:102CB000BDE8084000F024B8BDE8084000F01CB8AA
:102CC000B61F927E336D4C39DA82083CA0AA2ABE28
:102CD000490E494683F9223F0000004B0000C93FDE
:102CE00000A0FD390020A2331A61342CB93AB2BADF
:102CF000CA9F2A3DDDFFFFBE30EE000A704700008C
:102D0000DFED020A80EEA00A70470000000000001C
:102D10002DE9F0014FF07F42B2EB410F9FBF4FF022
:102D2000FF310160BDE8F00170474FF0004242EA18
:102D30000123C1F3C752783A551112F01F0C434CCE
:102D4000CCF120067C44C1F3C752A2F178024FEACD
:102D5000621204EB820254F8254008BFD2E9015602
:102D600012D0556804FA0CF425FA06F73C4397682C
:102D700005FA0CF527FA06F8D26807FA0CFCF240BF
:102D800045EA08054CEA0206A4FB034CA5FB0352E6
:102D9000A6FB03631D449D4234BF01260026131980
:102DA000334416B1934202D903E0934201D2012287
:102DB00000E00022624402F1200C9206DC0C42EAA0
:102DC000443200EE102A5B03DFED210AF8EEC01A50
:102DD00000EE103A4FEA9C1C11F0004FB8EE400A8A
:102DE000C0F800C020EE201A00EE105ADFED190ADC
:102DF000B8EE400A20EE200A71EE810A70EE800AD9
:102E000010EE902A02F500626FF30B0200EE902A9A
:102E100070EEE11A31EEC11ADFED101A30EE411AF0
:102E20009FED0D0A20EE800A01EE210A9FED0C1A9B
:102E300000EE810A04BFBDE8F0017047CCF180517B
:102E40000160BDE8F001B1EE400A7047480900009A
:102E5000000000360000802C22AAFD29DB0FC92FBC
:102E60000000C92FF0B5344B0027344CD86C401CFF
:102E7000D864186D401C18653C280BDB94ED080ADB
:102E80000021BDEEC00A10EE100AFFF793FD83ED9E
:102E9000110A1F65D86C2A4D2A4E0F280EDB96EDBD
:102EA000120AD3ED110A95ED031A70EE200A95ED82
:102EB000060AFFF7C1FD83ED100ADF6495ED030AF2
:102EC000D3ED100AFDF744FB10EE100A1E4983ED06
:102ED000120A84ED000A884202DD9FED1C0A06E01A
:102EE00010EE100A1A49884203D99FED1A0A84EDA0
:102EF000000A1878052817D095ED060AD6ED120AB3
:102F0000154A30EE600A10EE101A914204DC10EE01
:102F1000101A11F17F5F02D90420187004E018B173
:102F2000042801D0052805D19FED0C0A84ED000A84
:102F300084ED010AF0BD00002C0000200C0E0020E2
:102F4000CC0000203C0E002000005C4200005C42EF
:102F500000005CC200005CC20000404000000000B5
:102F6000F0B50388002541F221070CE04C5D0026F6
:102F700083EA04235C001B0400D57C40761C2346B6
:102F8000082EF7D36D1C9542F0D30380F0BD0000EE
:102F900010B50349034800F095FA002010BD000069
:102FA000C5310008F0000020134900B5134A086B32
:102FB000D061486B9061886B00EE100A82ED080AC0
:102FC000B5EEC00AF1EE10FA07D200EE100ADFEDFE
:102FD0000C0A30EE200A82ED080A886900EE100A19
:102FE00082ED030AC8691061086A506100F00CF8AC
:102FF00082ED030A00BD0000FC080020CC00002088
:103000000000B443FFF7C4BF0A48F0EE400A01785D
:10301000012903D100210170C0ED020A90ED020ADE
:1030200090ED011A70EEC00A01EE200A80ED020A4E
:103030007047000000000020FDF7F4FFFFF774FA6E
:10304000FEF7A6FFFEF77AFFFFF742F8FFF764F8F6
:10305000FFF7E8F8FFF79CF800F04AF8FFF7D2FF17
:1030600000F03CFA0A48C16841F02001C1600948FB
:10307000C16841F02001C16000F082FA0648FEF705
:103080006FFB0648FEF76CFB6420FDF7BFFEFBE715
:10309000007C0040007800403C0F0020000F002022
:1030A000002800DA404200EE100AB8EEC00ABDEE79
:1030B000C00A10EE100A704700B58BB00020012145
:1030C0000190029008910590CDE9060104900090CE
:1030D000039069460548FDF73FFB0448FDF762FE93
:1030E00002210248FDF7B6FA0BB000BD9C0E00208D
:1030F0000E489FED0D0A002180ED000A80ED010AC7
:1031000080ED080A80ED090A80ED020A80ED030ACD
:1031100080ED040A80ED050A80ED060A80ED070ABD
:103120008162C162FFF7C8BF000000000C0E0020E2
:1031300000B589B0002210EE101A08230392049300
:103140000292D8B118200D2343EA4010CDE90002C5
:103150008DF81810080A8DF81900080C8DF81A005F
:10316000080E8DF81B00079208AB06AA69460448B2
:10317000FDF784FA0349087009B000BD1020E2E7AA
:103180009C0E00202800002000B589B00221039188
:1031900000210291049178B11820092242EA4010DE
:1031A000CDE9000108AB06AA69460448FDF766FAB6
:1031B0000349487009B000BD1020EEE79C0E0020C6
:1031C000280000202DE9F04F06462DED028B83B03C
:1031D000002000900190029096F80818351D0446D2
:1031E000A52926D1DFF80882DFF808B2B2EE048AFA
:1031F00088F800004FF07F090BF14C0A15E0285DBC
:10320000B0284CD008DC62287DD0902816D09128B8
:103210007AD0A02808D11CE0C02864D0D02874D06F
:10322000D12873D0F02872D0641CB6F80408A042EC
:10323000E5DC03B0BDEC028BBDE8F08F98F8001020
:10324000A41C41F0010188F8001069788BF8011086
:10325000EBE798F80010684641F0020188F800108A
:103260002919491C00F0C4F99DED000AF8EEC00AC6
:103270009FED610A80EE801A8BED031ADDED010AE5
:10328000F8EEE00A80EE801A8BED041ADDED020AFA
:10329000F8EEE00A80EE801A8BED051A72E098F8DD
:1032A0000010684641F0040188F800102919491CF3
:1032B00000F09EF99DED000AB8EEC00AC0EE080AC3
:1032C000CBED060A9DED010AB8EEC00AC0EE080A71
:1032D000CBED070A9DED020AB8EEC00AC0EE080A5F
:1032E000CBED080A4EE098F80010684641F008015E
:1032F00088F800102919491C00F07AF99DED000AA0
:10330000F8EEC00A04E059E04FE016E03CE04AE085
:1033100080EE880A8BED090A9DED010AB8EEC00A1D
:10332000C0EE080ACBED0A0A9DED020AB8EEC00A0B
:10333000C0EE080ACBED0B0A24E098F800106846AE
:1033400041F0100188F800102919491C00F050F9CB
:103350009DED000AF8EEC00A9FED280A80EE801A63
:103360008BED0D1ADDED010AF8EEE00A80EE801A11
:103370008BED0C1A9DED020AB8EEC00AC0EE080AE9
:10338000CBED0E0AE41D50E798F80010194841F003
:10339000200188F80010291910223C30491CFCF744
:1033A000ECFF113441E7641D3FE788F800904C22A0
:1033B00029461048FCF7E1FF4C3436E70D482968F0
:1033C0000C380027816569680834C1650AE000BFD0
:1033D00088F8009029194C220AF10300FCF7CDFF70
:1033E0004C347F1C9AF80210B942CCDDF0E70000A3
:1033F0000C000020FC08002000007A440000C842B5
:1034000070B52F4C0025A21D911F23784969072B09
:1034100053D2DFE803F004080F141D2028005A28B7
:103420004CD1012004E081F80808A52846D10220EB
:10343000207043E0A1F8040890700320F8E7B1F889
:10344000043843EA0023A1F80438D0700420EFE7E1
:1034500060800520ECE7628842EA002060800D6011
:10346000A5800620E4E70A680B1D561C0E60D054A8
:103470000868B0F5006F02D32570012070BDB1F867
:10348000042890421AD391F80808A52816D10C49AF
:103490000422891D881EFFF763FD6169084804C97D
:1034A000001DFFF75DFDA0886188884205D1E068B6
:1034B000401CE060D4E9041088472570002070BDEE
:1034C0001000002070B5044D0446296140F60C013F
:1034D000FCF798FF6C6170BD1000002021489FED43
:1034E000200ADFED220A80ED030A9FED1F0A9FEDFF
:1034F000201A80ED040AC0ED050AF8EE000AC0EDBE
:10350000000A80ED010A80ED021A9FED1A1A80ED83
:10351000061A80ED070A9FED181A80ED080A80ED63
:10352000091A9FED161A80ED0B1A80ED0A0A80ED3C
:103530000C0A80ED0D0A80ED0E0A80ED0F0A80ED79
:10354000100A80ED110AC0ED120A80ED140AF0EEA7
:10355000000AC0ED150A80ED160A80ED170A7047C3
:10356000333327C13C0E0020000000009A99B9C0F7
:10357000F6285CBF7B142E3FA69BC43A6F12833A99
:1035800010B5FEF765FDBDE8104008210148FEF7C3
:10359000D1BA0000C40E00204FF4757100F54370DD
:1035A000884203DC4FF41171884200DA084600EECD
:1035B000100ADFED0C0AB8EEC01A81EE200A10EEF8
:1035C000100AB0F17E5F01DDB0EE600AB5EEC00A10
:1035D000F1EE10FA01D29FED040A08210348FEF72C
:1035E000AFBE000000401C4600000000C40E0020DA
:1035F000B1F900200260B1F902204260B1F9041073
:103600008160002070470000154810B590ED000A59
:10361000144C10EE100AF0EE000AB0F1804F02DDFB
:1036200030EE600A06E010EE100AB0F1404F03D908
:1036300030EE200A84ED1B0A94ED1B0A0021BDEE3A
:10364000C00A10EE100AFFF72BFA074884ED1A0A99
:10365000D0ED120A30EE800A80ED120A10BD000093
:103660000C0E00202C0000203C0E00204FF040707B
:10367000E1EE100A704700000000000000000102A7
:10368000030406070809000000000102030400000B
:10369000000000006E83F9A22915444ED15727FC83
:1036A000C0DD34F5999562DB4190433CAB6351FE3C
:1036B000D036000800000020CC000000E80100081F
:1036C0009C370008CC0000200C1500000402000804
:1036D000010000008FC2F53C000000000000000067
:1036E0000000000000005AA50000000000000000DB
:1036F00000000000000000000000000001000000C9
:103700000000000000000000000000000000803FFA
:1037100000000000000000000000000000000000A9
:103720000000000000000000000000000000000099
:103730000000000000000000000000000000000089
:103740000000000000000000000000000000000079
:103750000000000000000000000000000000000069
:103760000000000000000000000000000000000059
:103770000000000000000000000000000000000049
:1037800000000000A5010100000000000100000091
:0C37900010000000000000000024F40005
:04000005080001AD41
:00000001FF
