:020000040800F2
:10000000401500204D020008832100087D1B0008D8
:10001000812100082F050008D929000800000000F0
:10002000000000000000000000000000792200082D
:100030003D05000800000000A52100087B22000803
:1000400067020008670200086702000867020008EC
:1000500067020008670200086702000867020008DC
:1000600067020008670200086702000867020008CC
:1000700067020008670200086702000867020008BC
:1000800067020008670200086702000867020008AC
:10009000670200086702000867020008670200089C
:1000A000670200086702000867020008670200088C
:1000B000670200087D230008670200086702000845
:1000C000670200086702000867020008670200086C
:1000D000670200086702000867020008670200085C
:1000E000670200086702000867020008670200084C
:1000F000670200086702000867020008670200083C
:10010000670200086702000867020008670200082B
:10011000670200086702000867020008670200081B
:10012000670200086702000867020008670200080B
:1001300067020008670200086702000867020008FB
:10014000310500086702000867020008670200081E
:10015000670200086702000867020008CD2900084E
:1001600067020008670200086702000867020008CB
:10017000670200086702000867020008000000002C
:10018000670200086702000867020008CD25000822
:10019000670200086702000867020008670200089B
:1001A00000000000000000006702000800F002F8F4
:1001B00000F03CF80AA090E8000C82448344AAF1C5
:1001C0000107DA4501D100F031F8AFF2090EBAE8C3
:1001D0000F0013F0010F18BFFB1A43F0010318477B
:1001E0008C2D0000AC2D0000103A24BF78C878C1D7
:1001F000FAD8520724BF30C830C144BF04680C602D
:10020000704700000023002400250026103A28BF74
:1002100078C1FBD8520728BF30C148BF0B60704778
:100220001FB502F092FE1FBD10B510BD00F046F9DB
:100230001146FFF7F5FF02F03DFC00F064F903B44E
:10024000FFF7F2FF03BC00F06BF90000094880479C
:1002500009480047FEE7FEE7FEE7FEE7FEE7FEE7A8
:10026000FEE7FEE7FEE7FEE704480549054A064BC0
:100270007047000029230008AD010008400F00204E
:1002800040150020401100204011002053EA020CCC
:1002900000F069802DE9F04B4FF00006002B1FBFE6
:1002A000B3FA83F503FA05F424FA05F65E4012BFAB
:1002B0001643B2FA82F502FA05F4C5F120051EBF15
:1002C00022FA05FC44EA0C04203556EA044C4FEAB5
:1002D000144418BF641C4FF000084FF0000990420E
:1002E00071EB030C39D3002919BFB1FA81F701FA78
:1002F00007F6B0FA80F700FA07F6C7F120071EBF2D
:1003000020FA07FC46EA0C062037B6FBF4FCA7EB04
:100310000507103F07F01F0BCBF120060CFA0BFB73
:100320002CFA06F644BFB3460026202FA4BF5E4633
:100330004FF0000B5BEA060C08BF4FF0010B19EB06
:100340000B09ABFB027C48EB0608C01B06FB02CC8A
:100350000BFB03CC71EB0C01C1E70B460246414697
:100360004846BDE8F08B13B54FF000004FF0000198
:10037000AFF30080BDE81C407047032A40F2308094
:1003800010F0030C00F0158011F8013BBCF1020FD6
:10039000624498BF11F801CB00F8013B38BF11F857
:1003A000013BA2F1040298BF00F801CB38BF00F86E
:1003B000013B11F0030300F04F80083AC0F00880C1
:1003C00051F8043B083A51F804CBA0E80810F5E7CF
:1003D000121D5CBF51F8043B40F8043BAFF30080B2
:1003E000D20724BF11F8013B11F801CB48BF11F827
:1003F000012B24BF00F8013B00F801CB48BF00F8F7
:10040000012B70474FF0000200B513469446964604
:10041000203922BFA0E80C50A0E80C50B1F1200117
:10042000BFF4F7AF090728BFA0E80C5048BF0CC0C5
:100430005DF804EB890028BF40F8042B08BF704723
:1004400048BF20F8022B11F0804F18BF00F8012B95
:10045000704770477047704710B5203AC0F00B8066
:10046000B1E81850203AA0E81850B1E81850A0E8B8
:100470001850BFF4F5AF5FEA027C24BFB1E8185012
:10048000A0E8185044BF18C918C0BDE810405FEA82
:10049000827C24BF51F8043B40F8043B08BF7047FE
:1004A000D20728BF31F8023B48BF11F8012B28BF03
:1004B00020F8023B48BF00F8012B7047754600F05A
:1004C0002BF8AE4605006946534620F007008546E6
:1004D00018B020B5FFF7C8FEBDE820404FF0000679
:1004E0004FF000074FF000084FF0000B21F007011C
:1004F000AC46ACE8C009ACE8C009ACE8C009ACE85F
:10050000C0098D46704710B50446AFF30080204601
:10051000BDE81040FFF793BE00487047E00E002092
:1005200001491820ABBEFEE7260002007047FEE737
:10053000014800F08BB90000400E0020704790F891
:100540002020012A09D090F82020022A05D0416AF3
:1005500041F48021416201207047006842690A43EA
:10056000426100207047F0B590F82040012C07D080
:1005700090F82040022C03D0416A41F480215DE0D4
:100580000468A5686D0105D4A5682D0102D4A5688D
:10059000ED0050D5A4680125C4F30164A5401D6099
:1005A0008D684FF4C0739DB1CE6835434E6845EAFF
:1005B000C605066803EB0417F5514FF4C2750768CA
:1005C00005EB04150E697E51097D012905D009E06E
:1005D0000E88CD6845EA4655EBE701684E5946F46A
:1005E00080764E511179D579567941EA0561957930
:1005F0002D0445EA062529434FF4C676056806EB27
:100600000416A9511178D57841EA05619578527898
:100610002D0445EA022211434FF4C475026805EB2C
:1006200004155151006803EB0411425842F00102D5
:1006300042500020F0BD416A41F4001141620120A6
:10064000F0BD000010B590F82020012A09D090F8E4
:100650002020022A05D0416A41F480214162012014
:1006600010BD3A48D0F8002242F00102C0F8002242
:10067000D0F8002222F47C52C0F80022D0F80022E8
:100680004B6A42EA0322C0F800220B7D01229A4005
:10069000D0F81C329343C0F81C32CB69B3B9D0F800
:1006A0000C329343C0F80C328C894B6864F31F43BF
:1006B0004C6900EBC404C4F840320C890B6864F345
:1006C0001F434C6900EBC404C4F84432CB69012BCE
:1006D00016D1D0F80C321343C0F80C320C884B689A
:1006E00064F31F434C6900EBC404C4F840320C8926
:1006F000CB6864F31F434C6900EBC404C4F8443274
:100700008B69002BD0F804320ED01343C0F80432AA
:100710000B69002BD0F8143208D01343C0F8143200
:10072000096A012904D008E09343EFE79343F5E712
:10073000D0F81C121143C0F81C12D0F8001221F09E
:100740000101C0F80012002010BD0000006400404C
:10075000704730B590F82040012C07D090F8204029
:10076000022C03D0416A41F4802109E011B1012932
:1007700009D00CE00468E46807E0416A41F4001124
:100780004162012030BD04682469A407F5D04FF40C
:10079000D874056804EB01142D5915F00405956013
:1007A00005682D5942D0ED08556005682C59C4F3F1
:1007B0004004D4604FF4DA74056804EB01142D5939
:1007C00005F00F05156105682D59C5F307259561DD
:1007D00005682C59240C54614FF4DC72046802EB58
:1007E0000112A4581C700468A458240A5C700468A0
:1007F000A458240C9C700468A258120EDA704FF4AE
:10080000DE72046802EB0112A4581C710468A4583B
:10081000240A5C710468A458240C9C710468A258D2
:10082000120EDA7129B1012909D00DE06D0D1560A4
:10083000BBE70068C16841F02001C16004E00068C6
:10084000016941F020010161002030BD2DE9F05F18
:100850000546006800244669D0F804908768D0F8FF
:100860000CB0D0F810A0D0F81880F10748D0F907E4
:1008700014D001218160B80703D5284600F015FA8D
:100880000CE0780702D54FF4006407E0380702D582
:100890004FF4805402E0284600F006FAF80516D519
:1008A00029684FF480708860B80503D5284600F0A9
:1008B000FEF90CE0780502D544F4005407E0380551
:1008C00002D544F4804402E0284600F0EFF9F80332
:1008D00016D529684FF480308860B80303D52846C0
:1008E00000F0E7F90CE0780302D544F4004407E097
:1008F000380302D544F4803402E0284600F0D8F9E9
:10090000300707D55FEACB6004D52968102044F48E
:100910000074C86070074FF0080707D55FEA0B70D6
:1009200004D52868C760284600F052F9B00706D5FC
:100930002868C068800702D0284600F04BF970068E
:1009400007D55FEACA6004D52968102044F48064A2
:100950000861B00607D55FEA0A7004D52868076108
:10096000284600F071F9F00606D52868006980076E
:1009700002D0284600F069F9B00308D55FEAC960E3
:1009800005D5296810204860284600F05FF9F0037B
:1009900007D55FEA097004D528684760284600F04B
:1009A00089F9300446D55FEA497040D5F00504D591
:1009B0005FEAC87001D044F00104B00504D55FEAD5
:1009C000887001D544F00204700504D55FEA4870D0
:1009D00001D544F00404300529D518F0700F26D055
:1009E00008F07000402815D006DC102809D0202817
:1009F0000AD0302816D10AE050280ED0602811D134
:100A00000EE044F008040DE044F010040AE044F065
:100A1000200407E044F0400404E044F0800401E0D6
:100A200044F480742868816921F07001816129682B
:100A300004204860002C05D0686A2043686228467C
:100A4000FFF786FEBDE8F09F70B5040003D094F870
:100A5000200010B104E0012070BD204600F082F8B3
:100A60002068016821F00201016000F035FA0546B6
:100A7000052604E000F030FA401B0A2811D820684F
:100A800040688007F6D42068016841F001010160E8
:100A900000F022FA05460BE000F01EFA401B0A287F
:100AA00006D9606A40F40030606284F82060D2E7C2
:100AB00020684068C007EFD0207E012820680168C8
:100AC0003DD021F080010160607E0128206801682E
:100AD00038D021F040010160A07E01282068016823
:100AE00033D021F020010160E07E012820680168F8
:100AF0002ED041F010010160207F0128206801689C
:100B000029D021F008010160607F01282068016878
:100B100024D021F004010160D4E902010843D4E9A2
:100B20000412114308436168491E08432168C861E3
:100B300000206062012084F82000002070BD41F098
:100B40008001C0E741F04001C5E741F02001CAE75C
:100B500021F01001CFE741F00801D4E741F0040192
:100B6000D9E7000000B50068164987B0884227D150
:100B700015480021026842F080620260026802F0BB
:100B800080620592026842F000720260006800F024
:100B9000007005904FF4405000900220CDE9010113
:100BA00003200390092004906946084800F0A8F843
:100BB00001221146402000F00FFA402000F000FA18
:100BC00007B000BD00680040403802400004024009
:100BD0007047000000B51A4989B088422DD107AB93
:100BE0006A4600211648FFF7B4FD00981021B1EBCA
:100BF000501F22D100F01F0009281ED111480322E6
:100C0000816A491C91FBF2F302FB131181629DED95
:100C1000080A00EB810181ED020A90ED020AD0ED95
:100C2000030A30EE200AD0ED040A30EE200AF0EE7E
:100C3000080A80EE201A80ED081A09B000BD0000F5
:100C4000400E0020100E00207047704770470000D3
:100C500070B5044690F82000012804D0606A40F482
:100C60000020606218E0022084F8200020680168FB
:100C700021F00101016000F02FF905460EE000BFF0
:100C800000F02AF9401B0A2808D9606A40F40030B5
:100C90006062052084F82000012070BD2068406853
:100CA000C007EDD1606270BD7047704770477047F4
:100CB00070477047704790F83510022903D08021A3
:100CC000416501207047052180F8351000680168F2
:100CD00021F00101016000207047000070B504465A
:100CE00000F0FAF80546601C02D00448007804447D
:100CF00000F0F2F8401BA042FAD370BD8000002043
:100D00002DE9F84FDFF890B100224FF001084FF0C5
:100D1000030A4FF00F090BF1040E00BF0B6808FA2D
:100D200002F42340A3426ED14D68022D01D0122D52
:100D30000ED1D50800EB850CDCF820505607F70ED5
:100D400009FA07F6B5430E69BE402E43CCF8206081
:100D5000066855000F790AFA05FC07F0030726EA32
:100D60000C06AF40374307604E68012E05D0022EB7
:100D700003D0112E01D0122E0ED18768CE6827EA3B
:100D80000C07AE403E4386604668A6430C79C4F328
:100D90000014944034434460C4688E6824EA0C0410
:100DA000AE402643C6604C68E4006FD53B4C2568D6
:100DB00045F480452560246822F0030504F480444E
:100DC0000094374C2E19D6F8084895072F0F09FACA
:100DD00007F5AC43334DA84201D100252EE0324D3A
:100DE000A84201D1012529E0304DA84201D10225B8
:100DF00024E02F4DA84201D103251FE02D4DA8422C
:100E000002D104251AE041E02B4DA84201D105256D
:100E100014E02A4DA84201D106250FE0284DA84232
:100E200001D107250AE0274DA84201D1082505E098
:100E3000254DA84201D1092500E00A25BD402543E2
:100E4000C6F80858DBF800405D464E689C43F60340
:100E500000D51C432C60DEF8004075464E689C436C
:100E6000B60300D51C432C600B4D08352C684E682A
:100E70009C43F60200D51C432C60074D0C352C68B2
:100E80004E689C43B60200D51C432C60521C102AAD
:100E9000FFF444AFBDE8F88F003C01404438024005
:100EA00000300140000002400004024000080240FF
:100EB000000C0240001002400014024000180240E2
:100EC000001C024000200240002402400AB181615F
:100ED00070470904FBE70000014880687047000084
:100EE00080000020024881680278114481607047C8
:100EF000800000200B4810B5016841F400710160CA
:100F0000016841F480610160016841F48071016011
:100F1000032000F081F8002000F006F800F024F82B
:100F2000002010BD003C024070B50D4D04464FF44A
:100F30007A712878B1FBF0F00A490968B1FBF0F04A
:100F400000F007FB48B9102C07D200222146501EA2
:100F500000F042F800206C6070BD012070BD000000
:100F6000800000208C00002010B5032000F054F811
:100F7000002211466FF00B0000F02EF800221146FF
:100F80006FF00A0000F028F8002211466FF0090007
:100F900000F022F800221146501F00F01DF8002238
:100FA0001146101F00F018F800221146901E00F0A4
:100FB00013F80022BDE810401146501E00F00CB896
:100FC00000F01F02012191404009800000F1E02063
:100FD000C0F8001170470000F0B40E4B1B680C46BF
:100FE000C3F30223C3F10705042D00D90425191DFD
:100FF000072901D2002300E0DB1E012606FA05F1D5
:10100000491E214099409E40761E16403143F0BC57
:1010100001F0B8B80CED00E0064900F007020868DE
:101020004FF6FF03184040EA0220034A10430860CD
:10103000704700000CED00E00000FA052DE9F047D4
:101040000E46050065D0DFF81481D8F80000F7B22D
:1010500000F00F00B04207D288F80070D8F8000006
:1010600000F00F00B04254D128683D4C810712D5E2
:10107000400703D5206840F4E0502060287800073E
:1010800003D5206840F4604020602068A96820F003
:10109000F000084320602878C0072DD030496868E8
:1010A0000839012812D0022813D0032811D009686A
:1010B000890700292DDA216821F00301014321600D
:1010C000FFF70AFF814641F2883A0EE0096889037A
:1010D000EFE709688901ECE7FFF7FEFEA0EB0901E5
:1010E000514502D90320BDE8F0872068696800F007
:1010F0000C00B0EB810FEFD1D8F80010404601F0A2
:101100000F01B14207D90770006800F00F00B0422C
:1011100001D00120E7E72878400705D52068E96875
:1011200020F4E050084320602878000706D52068A6
:10113000296920F4604040EAC100206000F03CF8DA
:101140002168084AC1F30311515CC8400649086090
:101150000020FFF7E9FE0020C5E70000003C024048
:1011600008380240542F00088C0000200148006815
:10117000704700008C000020044805490068096899
:10118000044AC1F38221515CC84070478C000020A2
:1011900008380240642F00080448054900680968BF
:1011A000044AC1F34231515CC84070478C000020B2
:1011B00008380240642F0008154810B5006810F088
:1011C0000C02144813D01449042A0FD0082A0ED157
:1011D0000F4C241F2268236802F03F025B0207D5F0
:1011E0002068C0F38810A0FB010106E0084610BD8E
:1011F0002168C1F38811A1FB00010023FFF746F825
:101200002168C1F30141491C4900B0FBF1F010BD58
:10121000083802400024F40040787D012DE9F84FA1
:10122000050076D02878DFF8F8B2BE4CC00749D068
:10123000DBF800105846C1F38101012908D000688D
:10124000C0F3810002280AD1201D0068400206D5A3
:101250002068800336D568680028E2D032E06868EC
:10126000B0F5803F10D0B0F5A02F206810D020F44A
:1012700080302060206820F4802020606868A0B161
:10128000FFF72AFE06460CE0206840F48030F4E7C1
:1012900040F480202060F7E7FFF71EFE801B6428E3
:1012A00073D820688003F7D50CE0FFF715FE0646DB
:1012B00005E000BFFFF710FE801B6428F0D820680F
:1012C0008003F7D42878DFF8608280074FF00009A8
:1012D0003ED5DBF80010584611F00C0F09D000681D
:1012E000C0F3810002280BD18D48001F0068400226
:1012F00006D42068800715D5E868012809D111E0D7
:10130000E868B8B10120C8F80000FFF7E5FD06461F
:1013100005E002E1FFF7E0FD801B0228C0D820684D
:101320008007F7D52068296920F0F80040EAC1005D
:1013300020600DE0C8F80090FFF7CEFD064604E0FF
:10134000FFF7CAFD801B02281FD820688007F7D44A
:101350002878000722D5724E744869696C3671B1DD
:1013600001210160FFF7B8FD074604E0FFF7B4FD77
:10137000C01B022809D830688007F7D50EE0C0F8F6
:101380000090FFF7A9FD074605E083E0FFF7A4FD05
:10139000C01B02287ED830688007F7D42878400721
:1013A00068D5DFF87CA100270AF1380ADAF80000D6
:1013B000C0000BD4DAF8001041F08051CAF80010D8
:1013C000DAF80000012700F080500090584E306895
:1013D000C00510D4306840F480703060FFF77CFDA9
:1013E000009005E0FFF778FD0099401A022851D8D7
:1013F0003068C005F6D54A4EA868683601280FD077
:101400000528306810D020F001003060306820F0EE
:1014100004003060A868B8B1FFF75EFD00900FE0EF
:10142000306840F00100F4E740F004003060F7E776
:10143000FFF752FD0099411A41F28830814264D889
:1014400030688007F4D50EE0FFF746FD009007E016
:10145000FFF742FD0099411A41F28830814254D889
:1014600030688007F4D42FB1DAF8001021F08051F1
:10147000CAF80010A869C0B3DBF80010C1F38101FD
:1014800002294AD00228484607D0C8F86000FFF772
:1014900023FD00E039E005463AE04746C8F8600021
:1014A000FFF71AFD064604E0FFF716FD801B022831
:1014B0002BD820688001F7D4D5E907010843A96A31
:1014C0001C4A490802EB01416A6A41EA8211084359
:1014D00095F82C1040EA01611148001F01600120BD
:1014E0003866FFF7F9FC054605E014E0FFF7F4FC69
:1014F000401B022809D820688001F7D50BE000BF07
:10150000FFF7EAFC401B022802D90320BDE8F88F50
:1015100020688001F4D40020F8E70120F6E70000FD
:10152000083802400038024000004742800E47421F
:10153000007000400000FFFF4FF0E0210428086920
:1015400003D020F004000861704740F00400FAE77F
:10155000704710B5401EB0F1807F01D3012010BD4F
:101560004FF0E02460610F21601700F00BFE0020B7
:10157000A06107202061002010BD10B5FFF7E8FF33
:1015800010BD7047704730B590F83820012A20D040
:10159000012280F83820022380F8393003685C6823
:1015A00024F070045C6003685C680D682C435C6028
:1015B00003689C6824F080049C6003689C68496808
:1015C0000C439C6080F83920002180F838100846D0
:1015D00030BD022030BD10B5040003D094F83900AE
:1015E00010B107E0012010BD002084F8380020462B
:1015F00000F00CF8022084F83900211D206800F06A
:10160000C3FE012084F83900002010BD08B5006831
:101610000B49884212D10B48016841F00201016078
:101620000068032200F00200009001211D20FFF756
:10163000D3FCBDE808401D20FFF7C2BC08BD000078
:1016400000040040403802400168CA6842F00102CC
:10165000CA600068016841F0010101600020704724
:10166000704770B50446006801694FF00005C94332
:10167000890715D4C168C943890711D4E91E0161DE
:1016800001202076206880698007204602D0FFF77D
:10169000E7FF04E000F0B0F8204600F043F92576BB
:1016A00020680169C943490717D4C168C94349077C
:1016B00013D46FF004010161022020762068806954
:1016C00010F4407F204602D0FFF7CAFF04E000F08C
:1016D00093F8204600F026F9257620680169C94371
:1016E000090716D4C168C943090712D46FF008016D
:1016F0000161042020762068C0698007204602D05E
:10170000FFF7AEFF04E000F077F8204600F00AF99A
:10171000257620680169C943C90617D4C168C94341
:10172000C90613D46FF010010161082020762068EB
:10173000C06910F4407F204602D0FFF791FF04E01B
:1017400000F05AF8204600F0EDF82576206801698F
:10175000C943C90708D1C168C943C90704D1891E53
:101760000161204600F0FCF820680169C9430906C0
:1017700009D4C168C943090605D46FF0800101612D
:101780002046FFF7FEFE20680169C943490609D4D7
:10179000C168C943490605D46FF040010161204684
:1017A00000F000F920680169C94389060BD4C168BB
:1017B000C943890607D46FF0200101612046BDE8C6
:1017C0007040FFF7DFBE70BD00B5006885B0B0F1B6
:1017D000804F0CD10F200090022001900020029039
:1017E00003900120049069460248FFF789FA05B08A
:1017F00000BD000000000240704770B5044690F83C
:1018000038000D4601280DD0012684F838600220EA
:1018100084F8390042B1042A18D0082A2AD00C2AA8
:101820004DD139E0022070BD206800F019FE20681B
:10183000816941F0080181612068816921F004011A
:101840008161206881692A69114311E0206800F0F4
:1018500033FE2068816941F40061816120688169FB
:1018600021F480618161206881692A6941EA02214D
:10187000816124E0206800F051FE2068C16941F0D8
:101880000801C1612068C16921F00401C1612068BB
:10189000C1692A69114311E0206800F06FFE2068D9
:1018A000C16941F40061C1612068C16921F48061AE
:1018B000C1612068C1692A6941EA0221C16184F8D5
:1018C0003960002084F8380070BD10B5040003D0E2
:1018D00094F8390010B107E0012010BD002084F811
:1018E0003800204600F00CF8022084F83900211D51
:1018F000206800F049FD012084F83900002010BD67
:1019000008B50068B0F1804F08D10548016841F082
:1019100001010160006800F00100009008BD0000B6
:10192000403802407047000010B5044600680122AC
:1019300000F08AFD08492068884202D007498842A1
:1019400003D1416C41F4004141642068016841F0D9
:1019500001010160002010BD0000014000040140B1
:101960000E4910B5884218D101F05CF80C4CA06CFF
:10197000401CA064322810D1B6EE000A002001F00D
:10198000F9F8606C0021401CC4E91101022804D15F
:101990006164BDE8104001F019B910BDA40E00202B
:1019A0002C0000207047704770B50268044610682C
:1019B000D168536910F00F0F50D003F0010501F406
:1019C000907635435DD0C20705D0CA0503D5E26BDA
:1019D00042F00102E263420705D5DA0703D0E26B69
:1019E00042F00202E263820705D5DA0703D0E26B18
:1019F00042F00402E263020705D5DA0703D0E26B86
:101A000042F00802E263E26B002A33D0800604D57C
:101A1000880602D5204600F00BFE20684069E16B85
:101A2000C0F38010090700D428B3204600F0F2FD6F
:101A30002068416949061AD5416921F04001416198
:101A4000606BA0B11B490165606BFFF734F900289A
:101A500010D0606B016DBDE870400847830610D55B
:101A60008B060ED52046BDE8704000F0E1BD204653
:101A7000FFF799FF70BD2046FFF795FF0020E06358
:101A800070BD030606D50B0604D52046BDE87040A0
:101A900000F06ABF4006F3D54806F1D5D16820466C
:101AA00021F04001D160202184F8391000F065F860
:101AB00070BD00000526000870B5040004D094F83D
:101AC0003900002510B106E0012070BD84F83850BF
:101AD000204600F023F8242084F839002068C168EB
:101AE00021F40051C160204600F0E8FD2068016942
:101AF00021F4904101612068416921F02A0141618E
:101B00002068C16841F40051C160E563202084F879
:101B1000390084F83A00002070BD000000B500686C
:101B2000124987B088421FD11148016841F0200155
:101B300001600068694600F0200005904FF4844081
:101B400000900220019001200290032003900820C1
:101B500004900848FFF7D4F8002211464720FFF709
:101B60003BFA4720FFF72CFA07B000BD00140140F4
:101B7000443802400018024070477047FEE7F0B555
:101B80000A68032492FAA2F2B2FA82F30F257EE0E9
:101B9000324601269E40324078D0D1F804E00668F3
:101BA00092FAA2F7B7FA87F74FEA470C04FA0CF754
:101BB000BE4392FAA2F7B7FA87F77F000EFA07FE44
:101BC00046EA0E0606604E68012E01D0022E15D19F
:101BD000D1F808E0866892FAA2F7B7FA87F74FEAD9
:101BE000470C04FA0CF7BE4392FAA2F7B7FA87F74C
:101BF0007F000EFA07FE46EA0E068660D1F810C096
:101C0000C66892FAA2F7B7FA87F77F0004FA07FED0
:101C100092FAA2F7B7FA87F77F0026EA0E060CFAC7
:101C200007FC46EA0C06C6604E68022E2ED192FAD8
:101C3000A2F6B6FA86F6082E4E6913D2076A92FA11
:101C4000A2FCBCFA8CFC4FEA8C0C05FA0CFC92FA54
:101C5000A2F2B2FA82F2920027EA0C0796403743CA
:101C6000076213E0476A120A92FAA2FCBCFA8CFCE3
:101C70004FEA8C0C05FA0CFC92FAA2F2B2FA82F24C
:101C8000920027EA0C079640374347625B1C0A68BC
:101C90001646DA407FF47CAF4A68012A01D0022A56
:101CA00007D1CB6841683246914306FB03F21143EA
:101CB00041600120F0BD10B5044600F09FFA20609D
:101CC00000F072FA606000F07DFAA060606800F0D9
:101CD00087FAE06010BD00007FB50446C0680D467D
:101CE0000026C0F34030E8BBE9686868AA69084389
:101CF000296911430843E16849F20C6291430843A2
:101D0000E060A868216921F44051014321616869BC
:101D1000616921F44071014361616846FFF7CBFFBF
:101D20001348844208D01348844213D01248844296
:101D300010D01248844201D103990CE0104884422B
:101D400008D01048844205D00F48844202D00F4882
:101D500084420AD1029929B12B681BB10126204681
:101D6000AA6900E001E000F013F804B0304670BD4D
:101D700000100140004400400048004000140140B1
:101D8000004C00400050004000780040007C0040C3
:101D9000F0B56424322501EBC10606EB0111B2F562
:101DA000004F2AD09A00B1FBF2F3B3FBF4F3B1FB7E
:101DB000F2F66FF018077B4306EB8303B1FBF2F6F4
:101DC00005EB0313B3FBF4F3B6FBF4F603F0F003F7
:101DD00003EB0613B1FBF2F6B1FBF2F1B1FBF4F148
:101DE000794306EB810105EB0111B1FBF4F101F040
:101DF0000F01194489B28160F0BD5A00B1FBF2F6BF
:101E0000B6FBF4F6B1FBF2F7B1FBF2F36FF0180C8E
:101E100006FB0CF607EB860605EBC606B3FBF4F3F0
:101E2000B6FBF4F61B0106F0F80603EB4603B1FB24
:101E3000F2F6B1FBF2F1B1FBF4F101FB0CF106EBB0
:101E4000810105EBC101B1FBF4F101F00701D0E71D
:101E50000F4810B50D4901600C21416000214FF47D
:101E600030228160C0E903124161017641768176BA
:101E7000C17601774177FEF7E7FD002805D0BDE880
:101E80001040452103A000F0A8BD10BD006800402F
:101E9000400E00202E2E2F5372632F63616E2E632F
:101EA000000000002DE9F0412B4886B000240168B5
:101EB00041F010010160016801F010010591016815
:101EC00041F040010160016801F0400105910168A5
:101ED00041F001010160016801F001010591016813
:101EE00041F080010160016801F080010591016805
:101EF00041F020010160016801F0200105910168B5
:101F000041F0020101600068144F00F0020044F249
:101F100040050590002229463846FEF7D7FFDFF836
:101F20004080FE14002231464046FEF7CFFF009568
:101F30000125CDE90154694638460394FEF7E0FED9
:101F40000096CDE90154694640460394FEF7D8FE59
:101F500006B0BDE8F08100003038024000140240B5
:101F60000010024010B529488AB04FF0804101604E
:101F700053210024C0E9011444F61F61C0E9031491
:101F8000FFF7A3FC18B1B42121A000F026FD0794AF
:101F900007A91E480894FFF7F6FA18B1BB211CA048
:101FA00000F01BFD6020009041F28830CDE9010473
:101FB0000022694615480494FFF71FFC18B1C4219C
:101FC00013A000F00AFD042269461048FFF715FC33
:101FD00018B1C9210EA000F000FD082269460B4887
:101FE000FFF70BFC18B1CE2109A000F0F6FC0C2283
:101FF00069460648FFF701FC18B1D32104A000F0A0
:10200000ECFC0248FFF7E0FB0AB010BD680E0020B0
:102010002E2E2F5372632F74696D2E630000000003
:102020000C4810B50A49016040F247314160002177
:10203000C722C0E902120161FFF7CDFA002805D0DE
:10204000BDE810403F2104A000F0C7BC10BD000057
:1020500000040040A40E00202E2E2F5372632F7414
:10206000696D2E630000000030B52D488FB0016807
:1020700041F0004101600068022100F000400D9035
:102080000320CDE907010025CDE909050124082039
:10209000CDE90B4007A92348FFF771FD22480068EE
:1020A000C0F30220C0F10701042900D90421021D58
:1020B000072A01D2002000E0C01E04FA01F1491EE7
:1020C00001F0010181408440641E04F001000143DD
:1020D0000801164981F8000414494FF400204B39D7
:1020E000C1F800014FF4E120CDE900050C20029574
:1020F000CDE903500E4C0595694620460695FFF73D
:10210000EBFD206920F490402061606920F02A00F6
:102110006061E06840F40050E0600FB030BD000046
:1021200040380240001002400CED00E053E000E0B7
:10213000007C00400D4810B50B4901604FF4E131BF
:102140004160002181600C22C160C0E904128161FC
:10215000C161FFF7B1FC002805D0BDE8104069213E
:1021600003A000F03ABC10BD00140140D00D0020C7
:102170002E2E2F5372632F75736172742E630000BD
:10218000FEE770470907090E002806DA00F00F0085
:1021900000F1E02080F8141D704700F1E02080F885
:1021A000001470477047000004490968044A01F0B0
:1021B000F0010909515CC84070470000083802402E
:1021C000542F000804490968044A01F4E05102EB65
:1021D00091210978C840704708380240642F0008F0
:1021E00004490968044A01F4604102EB513109785D
:1021F000C840704708380240642F0008074800684C
:1022000010F00C01064807D0042904D0082903D196
:10221000082000F009B80348704700000838024061
:102220000024F400001BB70010B5104A044600203B
:10223000116811F480030E4903D0B3F5800F00D16B
:102240000C49082C11D1106800F03F00B1FBF0F0F0
:102250001168C1F3881148431168012201F440312B
:1022600002EB11414900B0FBF1F010BD043802400F
:102270000024F400001BB700704710B5FEF732FED3
:10228000BDE81040FFF779B930B5254893B0002577
:10229000016841F080510160006800F080501190A9
:1022A0002048016841F4404101600068022400F4C4
:1022B0004040119001200090000401908001CDE980
:1022C000064006200890A820CDE9090404200B90C0
:1022D0006846FEF7A3FF00B1FEE70CA90F2081E8D6
:1022E00031004FF4A0500F904FF480501090052112
:1022F0000CA8FEF7A3FE00B1FEE7FEF737FF4FF490
:102300007A71B0FBF1F0FFF724F90420FFF714F91C
:1023100000221146501EFEF75FFE13B030BD0000D4
:1023200040380240007000401048016841F47001DC
:1023300001600F48016841F0010101600C4A002171
:102340000832116002680B4B1A400260031D0A4AF2
:102350001A60026822F48022026005480C30016095
:1023600002495806803908607047000088ED00E097
:1023700000380240FFFFF6FE103000240148FFF74E
:1023800070B90000A40E0020F0B50268234B244D64
:10239000244E254F254C4FF0804C984209D0604583
:1023A00007D0A84205D0B04203D0B84201D0A04225
:1023B00004D122F0700E4A6842EA0E0298421BD005
:1023C000604519D0A84217D0B04215D0B84213D0FA
:1023D000A04211D0164DA8420ED0164DA8420BD0E7
:1023E000154DA84208D0154DA84205D0144DA8425D
:1023F00002D0144DA84203D122F44075CA682A4382
:1024000002608A68C2620A688262984201D0A04271
:1024100001D10969016301214161F0BD0000014062
:102420000004004000080040000C0040000401408F
:1024300000400140004401400048014000180040B5
:10244000001C00400020004010B50123046A8B40AE
:102450009C430462036A8A401343036210BD000078
:1024600030B5026A22F001020262026A436884699E
:102470000D6824F07304254322F002048A68224385
:102480000B4CA04202D00B4CA0420BD122F008040E
:10249000CA6823F4407322434C6922F004021C43AF
:1024A0008B6923434360856149684163026230BDA3
:1024B000000001400004014030B5026A22F0100221
:1024C0000262026A436884690D6824F4E64444EABF
:1024D00005248D6822F0200242EA05120D4DA84223
:1024E00002D00D4DA8420ED1CD6822F0800242EA02
:1024F00005124D6923F4406343EA85038D6922F098
:10250000400243EA85034360846149688163026253
:1025100030BD0000000001400004014030B5026AF7
:1025200022F480720262036A4268C46923F4007371
:1025300024F073050C682C438D6843EA05230D4D88
:10254000A84202D00C4DA8420ED1CD6823F40063FE
:1025500043EA05234D6922F4405242EA05128D698F
:1025600023F4806342EA05124260C4614968C16392
:10257000036230BD000001400004014030B5026A32
:1025800022F480520262046A4268C3690D6823F42F
:10259000E64343EA05238D6824F4005444EA0534F5
:1025A000084DA84202D0084DA84204D14D6922F43A
:1025B000804242EA85124260C36149680164046254
:1025C00030BD0000000001400004014010B50B4C7C
:1025D0002068C0F3401000280ED0E068C0F340101F
:1025E000002809D060680649C0B2487000F026FC97
:1025F000E06840F02000E06010BD0000007C00407A
:102600000000002010B5806B0021C185C184FFF758
:10261000CAF910BD0168CA6822F49072CA600168E4
:102620004A6922F001024A61202180F83A1070477D
:1026300010B590F83A10222901D0022010BD81680F
:10264000B1F5805F11D00169002901681FD0496888
:1026500001F07F03816A4A1C82620B70C18D491EA2
:102660000904090CC18518D026E00269816A002A94
:102670000268526805D0D2B20A80816A491C816220
:10268000ECE7C2F308020A80816A891CF7E74A680E
:10269000816A4B1C83620A70E0E70168CA6822F411
:1026A0009072CA6001684A6922F001024A612021E1
:1026B00080F83A10FFF760FA002010BD2DE9F041D4
:1026C00004460068016921F44052E1681143016148
:1026D0002168C86849F20C6290432369A268E569E1
:1026E0001A4363692B431A430243CA60216848694D
:1026F00020F44072A06910434861E1696425B1F596
:10270000004F9748974A21684FF032083FD09142D6
:1027100001D081427CD1FEF73FFD00EBC00101EB0F
:10272000001061688900B0FBF1F6FEF735FD00EBA3
:10273000C00101EB001061688900B0FBF1F0B0FB53
:10274000F5F06FF01801484306EB800108EB01102B
:10275000B0FBF5F000F0F006FEF71EFD00EBC00147
:1027600001EB001061688900B0FBF1F0B0FBF5F0FF
:1027700006EB0016FEF710FD00EBC00101EB0010A8
:1027800061688900B0FBF1F7FEF706FDD2E09142E7
:1027900001D081423DD1FEF7FFFC00EBC00101EB0F
:1027A000001061684900B0FBF1F0B0FBF5F00601E4
:1027B000FEF7F2FC00EBC00101EB0010616849007C
:1027C000B0FBF1F7FEF7E8FC00EBC00101EB0010F5
:1027D00061684900B0FBF1F0B0FBF5F06FF0180153
:1027E000484307EB800108EBC100B0FBF5F000F0B7
:1027F000F80006EB4006FEF7CFFC00EBC00101EB52
:10280000001061684900B0FBF1F7FEF7C5FC3CE041
:1028100055E0FEF7B1FC00EBC00101EB0010616870
:102820004900B0FBF1F0B0FBF5F00601FEF7A4FCA7
:1028300000EBC00101EB001061684900B0FBF1F74B
:10284000FEF79AFC00EBC00101EB00106168490043
:10285000B0FBF1F0B0FBF5F06FF01801484307EB67
:10286000800108EBC100B0FBF5F000F0F80006EBCA
:102870004006FEF781FC00EBC00101EB001061682F
:102880004900B0FBF1F7FEF777FC00EBC00101EB6C
:10289000001061684900B0FBF1F0B0FBF5F06FF09B
:1028A0001801484307EB800108EBC100B0FBF5F0CD
:1028B00000F00700216830448860BDE8F081FEF731
:1028C0005BFC00EBC00101EB001061688900B0FB0C
:1028D000F1F6FEF751FC00EBC00101EB001061685E
:1028E0008900B0FBF1F0B0FBF5F06FF01801484340
:1028F00006EB800108EB0110B0FBF5F000F0F006EC
:10290000FEF73AFC00EBC00101EB001061688900A2
:10291000B0FBF1F0B0FBF5F006EB0016FEF72CFC77
:1029200000EBC00101EB001061688900B0FBF1F71A
:10293000FEF722FC00EBC00101EB0010616889008A
:10294000B0FBF1F0B0FBF5F06FF01801484307EB76
:10295000800108EB0110B0FBF5F000F00F00A9E7D3
:10296000001401400010014090F83910212901D0D5
:10297000022070478168B1F5805F016A0BD04A1C64
:102980000262026809785160C18C491E0904090C71
:10299000C1840ED017E009880268C1F308015160B4
:1029A00001690029016A02D0491C0162ECE7891C17
:1029B000FBE70168CA6822F08002CA600068C1684B
:1029C00041F04001C1600020704700000148FEF75F
:1029D000EBBF0000D00D0020FEE7FEE7F0B5038856
:1029E000002541F221070CE04C5D002683EA042318
:1029F0005C001B0400D57C40761C2346082EF7D3D0
:102A00006D1C9542F0D30380F0BD000010B5034962
:102A1000034800F075FA002010BD0000012C0008EA
:102A2000B4000020134900B5134A086BD061486B0D
:102A30009061886B00EE100A82ED080AB5EEC00ABC
:102A4000F1EE10FA07D200EE100ADFED0C0A30EEBC
:102A5000200A82ED080A886900EE100A82ED030A56
:102A6000C8691061086A506100F00CF882ED030A31
:102A700000BD0000C0080020900000200000B4430A
:102A8000FFF7C4BF0A48F0EE400A0178012903D1DC
:102A900000210170C0ED020A90ED020A90ED011ACA
:102AA00070EEC00A01EE200A80ED020A70470000B5
:102AB00000000020FEF71EFAFFF7E6FBFFF7F2F931
:102AC000FFF738FBFFF7C4F9FFF7AAFAFFF7CCFAD4
:102AD00000F022FA00F02EF8FFF7D2FF0548C16897
:102AE00041F02001C1600448FEF7AEFD6420FEF70E
:102AF000F5F8FBE7007C0040A40E002000B58BB089
:102B0000002001210190029008910590CDE9060175
:102B100004900090039069460548FDF793FD044832
:102B2000FEF796F802210248FDF709FD0BB000BD43
:102B3000400E00200E489FED0D0A002180ED000A96
:102B400080ED010A80ED080A80ED090A80ED020A95
:102B500080ED030A80ED040A80ED050A80ED060A87
:102B600080ED070A8162C162FFF7C8BF0000000064
:102B7000100E002000B589B0002210EE101A0823B4
:102B8000039204930292D8B101200D2343EA40102E
:102B9000CDE900028DF81810080A8DF81900080C0C
:102BA0008DF81A00080E8DF81B00079208AB06AAD4
:102BB00069460448FDF7D7FC0349087009B000BD19
:102BC0001020E2E7400E00202800002000B589B068
:102BD00000210220CDE9021040F20920CDE90001D8
:102BE000049108AB06AA69460348FDF7BCFC0349FB
:102BF000487009B000BD0000400E002028000020F1
:102C00002DE9F04F06462DED028B83B00020009099
:102C10000190029096F80818351D0446A52926D182
:102C2000DFF80882DFF808B2B2EE048A88F8000004
:102C30004FF07F090BF14C0A15E0285DB0284CD00D
:102C400008DC62287DD0902816D091287AD0A02860
:102C500008D11CE0C02864D0D02874D0D12873D00B
:102C6000F02872D0641CB6F80408A042E5DC03B07A
:102C7000BDEC028BBDE8F08F98F80010A41C41F069
:102C8000010188F8001069788BF80110EBE798F8DB
:102C90000010684641F0020188F800102919491C0B
:102CA00000F048F99DED000AF8EEC00A9FED610AB8
:102CB00080EE801A8BED031ADDED010AF8EEE00AD2
:102CC00080EE801A8BED041ADDED020AF8EEE00AC0
:102CD00080EE801A8BED051A72E098F800106846B5
:102CE00041F0040188F800102919491C00F022F96C
:102CF0009DED000AB8EEC00AC0EE080ACBED060A48
:102D00009DED010AB8EEC00AC0EE080ACBED070A35
:102D10009DED020AB8EEC00AC0EE080ACBED080A23
:102D20004EE098F80010684641F0080188F800105D
:102D30002919491C00F0FEF89DED000AF8EEC00AC2
:102D400004E059E04FE016E03CE04AE080EE880AFB
:102D50008BED090A9DED010AB8EEC00AC0EE080A23
:102D6000CBED0A0A9DED020AB8EEC00AC0EE080AD1
:102D7000CBED0B0A24E098F80010684641F01001F2
:102D800088F800102919491C00F0D4F89DED000ABC
:102D9000F8EEC00A9FED280A80EE801A8BED0D1A1E
:102DA000DDED010AF8EEE00A80EE801A8BED0C1AD8
:102DB0009DED020AB8EEC00AC0EE080ACBED0E0A7D
:102DC000E41D50E798F80010194841F0200188F8F8
:102DD0000010291910223C30491CFDF7CEFA11349D
:102DE00041E7641D3FE788F800904C2229461048CF
:102DF000FDF7C3FA4C3436E70D4829680C38002734
:102E0000816569680834C1650AE000BF88F80090F0
:102E100029194C220AF10300FDF7AFFA4C347F1C4C
:102E20009AF80210B942CCDDF0E700000C00002057
:102E3000C008002000007A440000C84270B52F4C42
:102E40000025A21D911F23784969072B53D2DFE883
:102E500003F004080F141D2028005A284CD101202B
:102E600004E081F80808A52846D10220207043E03C
:102E7000A1F8040890700320F8E7B1F8043843EA99
:102E80000023A1F80438D0700420EFE7608005200B
:102E9000ECE7628842EA002060800D60A580062091
:102EA000E4E70A680B1D561C0E60D0540868B0F5A4
:102EB000006F02D32570012070BDB1F80428904244
:102EC0001AD391F80808A52816D10C490422891DA7
:102ED000881EFFF783FD6169084804C9001DFFF7DC
:102EE0007DFDA0886188884205D1E068401CE060D3
:102EF000D4E9041088472570002070BD1000002020
:102F000070B5044D0446296140F60C01FDF77AFACC
:102F10006C6170BD1000002010B5FFF723F8002190
:102F20000248FEF701FD0249087010BD680E00203E
:102F300078000020B1F900200260B1F9022042605F
:102F4000B1F904108160002070474FF04070E1EE4D
:102F5000100A704700000000000000000102030496
:102F60000607080900000000010203048C2F000876
:102F70000000002090000000E80100081C3000085C
:102F800090000020B01400000402000801000000BE
:102F90008FC2F53C000000000000000000000000AF
:102FA00000005AA500000000000000000000000022
:102FB0000000000000000000000000000000000011
:102FC0000000000000000000000000000000000001
:102FD00000000000000000000000000000000000F1
:102FE00000000000000000000000000000000000E1
:102FF00000000000000000000000000000000000D1
:1030000000000000000000000000000001000000BF
:0C30100010000000000000000024F4008C
:04000005080001AD41
:00000001FF
