:020000040800F2
:1000000080160020910200080130000895270008A2
:10001000FD2F0008150F0008ED3300080000000058
:10002000000000000000000000000000093000088F
:10003000250F000800000000053000080D30000802
:10004000AB020008AB020008AB020008AB020008DC
:10005000AB020008AB020008AB020008AB020008CC
:10006000AB020008AB020008AB020008AB020008BC
:10007000AB020008AB020008AB020008AB020008AC
:10008000AB020008AB020008AB020008AB0200089C
:10009000AB020008AB020008AB020008AB0200088C
:1000A000AB020008AB020008AB020008AB0200087C
:1000B000AB0200082D31000839310008AB020008FE
:1000C000AB020008AB020008AB020008AB0200085C
:1000D000AB020008AB020008AB020008AB0200084C
:1000E000AB020008AB020008AB020008AB0200083C
:1000F000AB020008AB020008AB020008AB0200082C
:10010000AB020008AB020008AB020008AB0200081B
:10011000AB020008AB020008AB020008AB0200080B
:10012000AB020008AB020008AB020008AB020008FB
:10013000AB020008AB020008AB020008AB020008EB
:10014000190F0008AB020008AB020008AB02000860
:10015000AB020008AB020008AB0200089D320008A9
:10016000AB020008AB020008AB020008AB020008BB
:10017000AB020008AB020008AB0200080000000060
:10018000AB020008AB0200085D32000861320008D3
:10019000AB020008AB020008AB020008AB0200088B
:1001A0000000000000000000AB02000800F002F8B0
:1001B00000F05FF814A696E8000CB244B344DA45A8
:1001C00001D100F056F8BAE80F000FA696E830000B
:1001D000A5EB040504EB0607AAEB0704A7F101074A
:1001E0004FEA15154FEA3414A4F10104AC4201D3CF
:1001F00000F03FF813F0010F18BFFB1A43F00103A2
:1002000000F001F8DBE7184790490000B049000012
:10021000103A24BF78C878C1FAD8520724BF30C832
:1002200030C144BF04680C60704700007047000094
:100230000023002400250026103A28BF78C1FBD8EF
:10024000520728BF30C148BF0B607047662904F0D1
:100250004384002070471FB504F031FC00F018FC07
:1002600004000020002104F09DFBE0601FBD10B5DC
:1002700010BD00F00DFD1146FFF7EDFF03F076FA1B
:1002800000F02BFD03B4FFF7F2FF03BC00F06EFD9E
:100290000948804709480047FEE7FEE7FEE7FEE71A
:1002A000FEE7FEE7FEE7FEE7FEE7FEE70448054956
:1002B000054A064B70470000D5300008AD01000824
:1002C0008010002080160020801200208012002064
:1002D00053EA020C00F069802DE9F04B4FF0000664
:1002E000002B1FBFB3FA83F503FA05F424FA05F6D1
:1002F0005E4012BF1643B2FA82F502FA05F4C5F168
:1003000020051EBF22FA05FC44EA0C04203556EAFB
:10031000044C4FEA144418BF641C4FF000084FF01F
:100320000009904271EB030C39D3002919BFB1FACF
:1003300081F701FA07F6B0FA80F700FA07F6C7F17D
:1003400020071EBF20FA07FC46EA0C062037B6FB42
:10035000F4FCA7EB0507103F07F01F0BCBF12006BD
:100360002CFA06F60CFA0BFB44BFB3460026202FEE
:10037000A4BF5E464FF0000B5BEA060C08BF4FF0CF
:10038000010B19EB0B0948EB0608ABFB027C06FBE3
:1003900002CC0BFB03CCC01B71EB0C01C1E70B467D
:1003A000024641464846BDE8F08B13B5084318BFE6
:1003B0004FF0FF300146AFF30080BDE81C407047AE
:1003C0000FB41CB5074B06AA7B44694600900598FC
:1003D00000F013FB0020694600F022FB1CBC5DF816
:1003E00014FB0000550600002DE9F0474FF0000A0D
:1003F00089460446C0F820A02046E16888470028C6
:1004000076D0252806D0D4E901219047206A401CE7
:100410002062F1E7E168204600258847C4F81CA067
:1004200006460027C4F818A02A2E09D0304604F04A
:10043000B1FA38B304EB8708303EC8F8186019E009
:1004400059F8041B204604EB87029161E168884754
:10045000012F064618D1E069002820DA25F0200592
:100460001DE0D8F8180000EB800006EB40003038A3
:10047000C8F818002046E1688847064604F08AFA62
:100480000028EED1012F0AD02E2E08D12046E16897
:1004900088477F1C0646022F45F02005C4DBA06973
:1004A000002803DA404245F00105A061E80701D0C9
:1004B00025F01005B6B1A6F14100192802D8203662
:1004C00045F400654A463146204625604D46FFF713
:1004D000BDFE58B1012806D0ED1D25F0070000F142
:1004E000080989E704E005F1040985E730468AE751
:1004F000206ABDE8F087032A40F2308010F0030C38
:1005000000F0158011F8013BBCF1020F624498BF66
:1005100011F801CB00F8013B38BF11F8013BA2F103
:10052000040298BF00F801CB38BF00F8013B11F07E
:10053000030300F07A82083AC0F0088051F8043BC7
:10054000083A51F804CBA0E80810F5E7121D5CBF8B
:1005500051F8043B40F8043BAFF30080D20724BFBE
:1005600011F8013B11F801CB48BF11F8012B24BF52
:1005700000F8013B00F801CB48BF00F8012B7047A1
:100580004FF0000200B5134694469646203922BF2C
:10059000A0E80C50A0E80C50B1F12001BFF4F7AF77
:1005A000090728BFA0E80C5048BF0CC05DF804EB59
:1005B000890028BF40F8042B08BF704748BF20F8C7
:1005C000022B11F0804F18BF00F8012B70477047C5
:1005D000704770472DE9FF4F0C461E464FF0FF371E
:1005E0008BB0D2E90001DDF860800A908A46C1F341
:1005F0000A5505B93D46002108464FF00000BAF102
:10060000000F00F4400005DA00EB80004FF44001D9
:1006100001EA50004FEA9059B9F1010F00DDB946E7
:100620000A9850EA4A000ED044F61050A5F2FF3561
:1006300045432F14B8F1000F1ED07542291E1EDD50
:10064000C9F100021CE0B8F1010F4FF0000001D029
:10065000302103E0F24305E02154401CB042FBDBB3
:1006600030460022002121540B99C1F80880C1E9CD
:1006700000200FB0BDE8F08FBD1B6D1CDEE74A46C1
:1006800000DA694206A800F08DFA06AB93E807008D
:1006900003AB83E8070050460A9903F09BFD8DE801
:1006A0000700A0F500501F3800900398002D0ADDC8
:1006B00042F21F014A460844002303A903906846FA
:1006C00004F004F809E0A0F500504A461F38002362
:1006D00003A90390684604F00EF88DE807000004B3
:1006E000000C03D04FF0FF30410800E01046B8F195
:1006F000000F03D00022009215461EE0751E05D49F
:1007000000F0CAF9303262556D1EF9D5B3460122A8
:10071000084302D000227F1C04E02078302801D159
:1007200000227F1E002A099784D01DE0112D07DAD0
:1007300000F0B2F9303262556D1C50EA0102F5D179
:10074000084302D00098C8B10EE00021681E05E001
:10075000235C625C63542254401E491C8142F7DBD7
:10076000AB46A81B401E0990002004F80B000B9814
:10077000099AC0F80880C0E9002B7AE711264FF0EB
:10078000000857E72DE9F04F88460446D21D22F0B5
:10079000070191B0D1E90001CDE90A0104F0E2F8C6
:1007A00002460B98C00F01D02D2007E0206881077A
:1007B00001D52B2002E0202101EAC000032A099084
:1007C00001D0072A05DB03464146204600F0AAF97E
:1007D0000BE12078800601D5E06900E00620B8F141
:1007E000650F814606D0B8F1660F18D0B8F1670FD3
:1007F00070D131E00020B9F1110F009001DB11231D
:1008000001E009F101030AAA01A90CA8FFF7E2FE21
:10081000DDE90C70002609F10105834647E001205F
:100820004B4600904FF000470AAA01A90CA8FFF719
:10083000D1FEDDE90DB00C995D46002610B909F135
:1008400001000D18B9EB050003D4C0F1FF3609F122
:100850000105A5EB09002BE0B9F1010F01DA4FF01A
:1008600001090020B9F1110F0090484601DD112364
:1008700000E003460AAA01A90CA8FFF7ABFEDDE9D8
:100880000C704D4600268346207800070AD4AB45FD
:1008900000DA5D4601A8012D04DD411911F8011CA3
:1008A000302907D04F4502DA17F1040F04DA01208E
:1008B00082460FE06D1EEEE7002F02DCED1B3E448A
:1008C00003E0781CA84200DD7D1CB81B00F1010A82
:1008D0004FF000472078000703D4AA4501DB4FF012
:1008E000FF3A0021B7F1004F0DF143088DF8431096
:1008F00024D002202B23002F01DA7F422D230A214E
:10090000021EA0F1010000DC5FB197FBF1FC97FB38
:10091000F1F201FB1C7C17460CF1300C08F801CDFC
:10092000EEE7A8F1010003702188090501D54521F2
:1009300000E06521A0F1010800F8011C09980FA949
:10094000A1EB0807FF1D00B10120411901EBEA707E
:10095000A1693844081A401EA0612078C00602D45C
:100960002046AFF30080099828B1D4E901219047CF
:10097000206A401C20622078C00622D52046AFF3B2
:1009800000801EE0002E04DBB34502DD01A8805D7F
:1009900000E03020D4E901219047206A401C206209
:1009A000761CAAF101005FEA000A0AD100F070F893
:1009B000C0680168405CD4E901219047206A401C6E
:1009C0002062281EA5F10105DCDC07E0D4E9012145
:1009D00018F8010B9047206A401C2062381EA7F1CE
:1009E0000107F3DC2046AFF30080032011B041E69D
:1009F00001694A1C02610878704700B58FB0CDE9E3
:100A000001310021059105497944CDE903101146D2
:100A10006846FFF7E9FC0FB000BD0000E5FFFFFFEF
:100A20000A6802F8010B0A60704710B5203AC0F05E
:100A30000B80B1E81850A0E81850B1E81850A0E8B1
:100A40001850203ABFF4F5AF5FEA027C24BFB1E84A
:100A50001850A0E8185044BF18C918C0BDE810408D
:100A60005FEA827C24BF51F8043B40F8043B08BF96
:100A70007047D20728BF31F8023B48BF11F8012B5D
:100A800028BF20F8023B48BF00F8012B7047000048
:100A9000004870474000002030B5B0F10A0271F103
:100AA00000034FEA900E4EEA817EB0EB0E0061EB40
:100AB00091014FEA101E4EEA017E10EB0E0041EB51
:100AC00011114FEA102E4EEA016E10EB0E0041EBB1
:100AD00011214FEA104E4EEA014E10EB0E0041EB91
:100AE0001141401841F100014FEAD00040EA417045
:100AF0004FEAD1014FEA810444EA907410EB80057B
:100B000044EB01046D1944EB0404521BA3414FF064
:100B1000000348BF0A3200D530BD401C41F100013E
:100B200030BD00002DE9F0411F4604460326016850
:100B3000072A01F4006004DB08B116A505E016A53C
:100B400003E008B115A500E015A521F01000206014
:100B5000A069C01EA0610FB1401EA0612046AFF386
:100B600000804FB1D4E9012138469047206A401CEB
:100B70002062C01C206206E0206AFAE7D4E9012165
:100B800015F8010B9047761EF8D22046AFF300808F
:100B9000BDE8F0814E414E006E616E00494E460048
:100BA000696E66002DE9F047814616468AB03548E1
:100BB00078440DC88DE80D0032487844801C03ACA1
:100BC0000DC884E80D0041F69B300844372190FBA6
:100BD000F1F290FBF1F5A5F1800501FB12041B3C3D
:100BE00002D56442012000E00020DFF898A0804692
:100BF0000027FA44AAF1BE0A0EE0E0070AD0324606
:100C0000684607EB470101230AEB810103F073FDFE
:100C10008DE8070064107F1C002CEED1194F7F4433
:100C2000AE3F19E0E80715D007EB04100DF1180AE4
:100C300090E80E008AE80E00C068F04201D19819D1
:100C400008903246012306A903A803F054FD03AB24
:100C500083E807006D10641C002DE3D14FF0010301
:100C600032466946B8F1000F03A802D003F02EFD0A
:100C700001E003F040FDC9E90001C9F808200AB00D
:100C8000BDE8F087A43F0000004870472000002026
:100C90007546FFF7F9FFAE4605006946534620F05A
:100CA0000700854618B020B5FFF700FBBDE82040DF
:100CB0004FF000064FF000074FF000084FF0000B18
:100CC000AC46ACE8C009ACE8C009ACE8C009ACE887
:100CD000C00921F007018D46704710B50446AFF3F7
:100CE00000802046BDE81040FFF7CCBA00000000AD
:100CF00030B44FF0013C50F8042B51F8043BCCFACF
:100D000052F4D51A20D1FCB950F8042B51F8043B09
:100D1000CCFA52F4D51A17D1B4B950F8042B51F8C3
:100D2000043BCCFA52F4D51A0ED16CB950F8042B0E
:100D300051F8043BCCFA52F4D51A05D1002CDAD084
:100D400030BC4FF00000704729BAB1FA81F111F0C0
:100D50001801D1F120008440F2D1CA40CB4012F0FA
:100D6000FF0213F0FF0330BCD01A7047014918206E
:100D7000ABBEFEE7260002007047000040F6B070F0
:100D8000C2F2000090ED060AB1EE401AB5EE400A3C
:100D9000F1EE10FAB8BFB0EE410AB1EE001AB4EEAF
:100DA000410AF1EE10FA80F2A78041F21800C2F277
:100DB0000000C06B012818BF704780B540F6E07096
:100DC00040F28C0C40F2000EC2F20000C2F2000CA5
:100DD000C2F2000E90ED080A9CED001A9EED002A6A
:100DE00030EE011AB4EE420A40F20402F1EE10FABB
:100DF0008CED001AC8BF8EED000AC2F2000292ED1F
:100E0000002A40F28803B4EE420AF1EE10FAB8BFAD
:100E100082ED000AC2F200031868411C31281960F3
:100E200068DB9EED000A92ED002A9FED353A30EE28
:100E3000420AB4EE430A40F2A800F1EE10FAB0EE16
:100E4000080AC2F200002EDA9FED2C2A81EE021A67
:100E5000B4EE401AF1EE10FA02DD9FED2A1A1CE002
:100E6000B8EE082AB4EE421AF1EE10FA02DA9FED5B
:100E7000261A12E0B6EE002AB4EE421AF1EE10FA8B
:100E800002DD9FED221A08E0BEEE002AB4EE421AFF
:100E9000F1EE10FA07DA9FED1E1A90ED002A32EEFD
:100EA000011A80ED001A90ED001AB4EE401AF1EE2E
:100EB00010FAC2BF0021C4F24001016090ED000AA7
:100EC000B8EE081AB4EE410AF1EE10FABEBF0021E6
:100ED000CCF24001016044F20001CCF21C61CEF87A
:100EE000001044F200010020C4F21C61CCF80000A4
:100EF00011601860BDE88040704700BF00004842A4
:100F0000000016430AD7A3BB0AD7A33B6F1283BACC
:100F10006F12833AFEE7000040F66C10C2F2000048
:100F200000F082B97047000090F82020012A03D019
:100F300090F82020022A04D1006800F11402002059
:100F400004E000F1240201204FF4802113681943CA
:100F50001160704710B590F820C0BCF1010F04D0AB
:100F600090F820C0BCF1020F39D1D0F800C0DCF8F5
:100F700008E05FEA4E1E5CBFDCF808E05FEA0E1E88
:100F800033D5DCF80800C0F301640120A0401860EC
:100F90008B683BB1D1F804E0C86840EACE0040EA73
:100FA000030E03E00868CB6843EA405E0CF5C070AE
:100FB00000EB0413240140F804E00C69184640F8E3
:100FC000044F097D012903D1016841F4807101605A
:100FD00050680121D8601068986000200FE000F18F
:100FE000240301204FF4802109E0DCF808E05FEAE7
:100FF000CE0EC6D400F1240301204FF400111A686C
:101000001143196010BD000090F82020012A03D080
:1010100090F82020022A61D1B0B546F20060C4F2F7
:101020000000026842F001020260026822F47C5271
:101030000260D1F814E0CC694A6A0368012C43EAE3
:10104000022202604FF00102C36902FA0EF26FEA57
:10105000020C23EA0203C3610DD0FCB9C36803EAA2
:101060000C03C360CB688C8844EA034300EBCE04D6
:1010700023640B460BE0C3681343C3600B688C8882
:1010800044EA034300EBCE04236401F10C038C68B3
:101090001B8843EA044300EBCE04636443688D6914
:1010A00043EA0204D1F810E0096A002D08BF03EA00
:1010B0000C0444604369BEF1000F43EA020408BF18
:1010C00003EA0C040129446102D1C1691143C161E1
:1010D000016821F0010101600020B0BD416A41F4C6
:1010E00080214162012070477047000010B590F8E0
:1010F00020C0BCF1010F05D090F820C0BCF1020F58
:1011000040F0838071B1012913D1D0F800C0DCF820
:1011100010C05FEA8C7C0CD100F1240101204FF457
:1011200000127DE0D0F800C0DCF80CC05FEA8C7CD7
:10113000F2D0D0F800C04FEA011E0CF5D87C5CF864
:101140000E4014F0040494605CF80EE00CEB011CFB
:1011500019BF4FEADE0454604FEA5E541460DCF8B5
:101160000040C4F34004D460DCF8044004F00F04F1
:101170001461DCF80440C4F307249461DCF80440F3
:101180004FEA14445461DCF808201A70026802EB3C
:101190000112D2F8B8214FEA12225A70026802EB0B
:1011A0000112D2F8B8214FEA12429A70026802EB9B
:1011B0000112D2F8B8214FEA1262DA70026802EB2B
:1011C0000112D2F8BC211A71026802EB0112D2F8A6
:1011D000BC214FEA12225A71026802EB0112D2F8C6
:1011E000BC214FEA12429A71026802EB0112D2F856
:1011F000BC214FEA1262DA7169B101291CBF0020DB
:1012000010BD006800F1100108E000F12401012088
:101210004FF4802204E0006800F10C01002020223D
:101220000B681A430A6010BD2DE9F04F81B00446E7
:1012300000684669D0F804908768D0F80CB0D0F800
:1012400010A0D0F81880F10703D1002530071CD476
:1012500023E0F90710D00121BA07816009D478078B
:1012600000F1AA80380700F1B080204600F078FA3B
:1012700002E0204600F076FA0025F80500F18480AF
:10128000F80300F1AA80300707D51BF0100004D046
:10129000206845F400751021C160700708D51BF067
:1012A000080005D020680821C160204600F096F9AA
:1012B000B00706D52068C068800702D0204600F03D
:1012C0008FF9700607D51AF0100004D0206845F495
:1012D000806510210161B00608D51AF0080005D01C
:1012E000206808210161204600F006FAF00606D5C4
:1012F00020680069800702D0204600F0FFF9B003A3
:1013000008D519F0100005D0206810214160204652
:1013100000F0F6F9F00308D519F0080005D02068B0
:1013200008214160204600F027FA300440F18F8008
:101330005FEA497040F1888006F4807008EA102066
:1013400028435FEA8871014648BF41F00201B205B7
:1013500058BF01465FEA48700D4648BF45F0040596
:10136000700558BF0D4630056ED518F070006BD073
:1013700010380009052862D8DFE800F0035C5659F0
:10138000535F45F008055AE020684FF48071BA05B4
:1013900081600AD4780512D4380519D4204600F0AB
:1013A000E3F9F8037FF56FAF17E0204600F0DEF9B0
:1013B000F8037FF568AF10E04FF400655DE705F5D1
:1013C0000055F8037FF55FAF07E04FF4805554E711
:1013D00005F58045F8037FF556AF20684FF480315E
:1013E000BA0381600AD478030FD4380313D420469B
:1013F00000F0BEF930073FF548AF4EE7204600F059
:10140000B9F930073FF541AF47E705F5004530072B
:101410003FF53BAF41E705F5803530073FF535AF88
:101420003BE745F080050AE045F0200507E045F080
:10143000400504E045F0100501E045F480752068A2
:10144000816921F0700181612068042141604DB102
:10145000606A40EA05012046616201B0BDE8F04FD4
:10146000FFF742BE01B0BDE8F08F0000002804BFC6
:1014700001207047B0B5044690F8200010B920460E
:1014800000F06EF82068016821F00201016000F0B0
:1014900057FA054620684168890705D500F050FADB
:1014A000401B0B28F6D310E0016841F001010160F8
:1014B00000F046FA054600BF20684168C9070DD113
:1014C00000F03EFA401B0B28F6D3606A052140F479
:1014D00000306062012084F82010B0BD217E0268D7
:1014E000012922F0800208BF80320260617E02681A
:1014F000012922F0400208BF40320260A17E02684A
:10150000012922F0200208BF20320260E17E026839
:10151000012922F0100218BF10320260217F0268F8
:10152000012922F0080208BF08320260617F0268C8
:10153000012922F0040208BF04320260D4E901C28A
:10154000D4E9033561691A432A431143ACF101021E
:101550001143C16100200121606284F82010B0BDF8
:10156000016846F60000C4F20000814218BF7047CF
:1015700080B586B0002143F640020191C4F2020218
:10158000136800F5CE3043F080631360136803F0F6
:1015900080630193019B0191136843F00073136012
:1015A000126802F000720192019A4FF440520192C7
:1015B0000222CDE90221032104910921059101A90B
:1015C00000F0F0F840200121012200F0FBFA402059
:1015D00000F0EAFA06B0BDE88040704770470000AE
:1015E000016846F60002C4F20002914218BF70473B
:1015F00080B58AB003AA01AB0021FFF777FD002870
:1016000073D141F26801C2F2000103980A6800F048
:101610001F030132092B0A6067D10299C0F34710FA
:10162000102800EE101A2ED018285ED140F6E07077
:10163000C2F20000816A45F256520131C5F255529C
:1016400051FB02F202EBD27202EB4202891A00F164
:10165000080202EB810282ED000A90ED020A90ED91
:10166000031A90ED042A30EE010A30EE020AB0EEC1
:10167000081A80EE010A816280ED080A41F27400C6
:10168000C2F200002BE040F6E070C2F20000C16A36
:1016900045F256520131C5F2555251FB02F202EBAE
:1016A000D27202EB4202891A00F1140202EB8102AB
:1016B00082ED000A90ED050A90ED061A90ED072ADA
:1016C00030EE010A30EE020AB0EE081A80EE010A8E
:1016D000C16280ED090A41F27800C2F200009FED7C
:1016E000051A20EE010A80ED000A0AB0BDE880402C
:1016F000704700BF00007042704700007047000054
:1017000070470000B0B5044690F8200001281DD1B4
:10171000022084F820002068016821F001010160A6
:1017200000F00EF9054600BF20684068C00713D0DE
:1017300000F006F9401B0B28F6D3606A40F4003035
:101740006062052084F820000120B0BD606A40F48A
:10175000002060620120B0BD00206062B0BD0000CA
:10176000704700007047000070470000704700009D
:10177000704700007047000070470000B0B5044695
:1017800000F0DEF8054640F21800C2F200000078D2
:10179000611C18BF044400BF00F0D2F8401BA042F7
:1017A000FAD3B0BD2DE9F04F83B000F1200200F173
:1017B0003E4742F20045019207F1FF77C4F202056D
:1017C0000A224FEAB726A84208BF0922092E38BFCD
:1017D0004FEAB7224FF0010E00274FF000084FF0FC
:1017E000000900920AE000BF09F1010908F10408AC
:1017F000B9F1100F07F1020700F099800D680EFA99
:1018000009FA15EA0A0CEFD04D6845F01005122DC3
:1018100014D16FF00302019E02EA590508F01C0280
:101820000F2356F805B003FA02F40B692BEA0404FF
:1018300003FA02F222434FF0010E725102680323B1
:10184000D1F804B0BB40DD439A430BF00303BB4027
:101850001A43BBF1120F026013D80EFA0BF212F00A
:10186000061F0ED08268CB682A40BB401A438260B4
:101870004268CBF3001322EA0A0203FA09F31A437F
:101880004260C2688B682A40BB401A435FEACB03C0
:10189000C260A9D5002243F644030292C4F20203B7
:1018A0001A6843F6004642F480421A601A68C4F28D
:1018B000010602F480420292029A29F003024FF6D6
:1018C000084A3244CFF6FF7A52F80A3008F00C0486
:1018D0000F25A540AB43009D05FA04F4234342F8CD
:1018E0000A3032684B6842EA0C04DD0358BF22EA32
:1018F0000C04346072689D0342EA0C0458BF22EA6B
:101900000C047460B268DD0242EA0C0443F60C4534
:1019100058BF22EA0C04B460C4F201052A689B0295
:1019200042EA0C0458BF22EA0C042C605CE703B0C6
:10193000BDE8F08F002A08BF0904816170470000EC
:1019400041F27000C2F2000000687047002804BF36
:101950000120704710B5044690F83D0028B90020DA
:1019600084F83C00204600F071F8242084F83D0003
:101970002068016821F00101016000F011FA4DF6C4
:101980008361C4F21B31A0FB011E4FEA9E424FF45B
:10199000967102FB01FC48F63811C0F24101ACFB24
:1019A0000113D4E9001C4A6048F2A162C0F20102AE
:1019B000944538BF4FEA9E435A1C48F2A063C0F2D8
:1019C00001039C450A6209D84FEA4C02B0FBF2F0D1
:1019D00040F6FC72104208BF04201BE0A3681922E5
:1019E000002B08BF03220CFB02F2B0FBF2F212053F
:1019F00008D04BB119220CFB02F2B0FBF2F040F41C
:101A0000804005E0012005E00CEB4C02B0FBF2F059
:101A100040F40040C861D4E9070210430860D4E9EB
:101A200003C2D4E9053042EA0C0218438A60C86058
:101A3000086840F00100086000202021206484F83C
:101A40003D10206384F83E0010BD0000016845F69B
:101A50000000C4F20000814218BF704780B586B014
:101A600012220321029201220191CDE903210421D6
:101A7000059100F5DE3001A9FFF794FE00200090EB
:101A800043F64000C4F20200016841F480010160A5
:101A9000006800F480000090009806B0BDE8804027
:101AA0007047000040F2180041F27001C2F20000DD
:101AB000C2F2000100780A68104408607047000014
:101AC00080B543F60040C4F20200016841F40071A1
:101AD0000160016841F480610160016841F4807136
:101AE0000160032000F09AF8002000F005F800F0F3
:101AF0002BF8002080BD0000B0B540F21802C2F201
:101B0000000240F20C011278C2F200014FF47A7325
:101B10000968B3FBF2F20446B1FBF2F1084600F0AB
:101B200019FB0F2C4FF001050CD858B94FF0FF30BE
:101B300021460022002500F045F840F21C00C2F2C8
:101B4000000004602846B0BD80B5032000F066F8B0
:101B50006FF00B000021002200F034F86FF00A0053
:101B60000021002200F02EF86FF009000021002271
:101B700000F028F86FF004000021002200F022F8A5
:101B80006FF003000021002200F01CF86FF001004C
:101B90000021002200F016F84FF0FF300021002253
:101BA000BDE8804000F00EB800F01F01012202FAEB
:101BB00001F14EF200124009CEF2000242F820106C
:101BC0007047000010B54EF60C5CCEF2000CDCF84D
:101BD0000030C3F3022E8EF00704042C28BF042427
:101BE000BEF103034FF0FF3E0EFA04F438BF0023AA
:101BF000A14399400EFA03F39A43114300F00F02F8
:101C000000F160430901043A03F56443624400288B
:101C100048BF02F10C03197010BD00004EF60C51C4
:101C2000CEF200010A684FF6FF031A4060F30A2261
:101C300042F0806040F0FD7008607047002804BFEB
:101C4000012070472DE9F04143F60808C4F202086C
:101C50000446D8F8F8030D4600F00F00884207D27A
:101C600088F8F853D8F8F80300F00F00A84271D1B3
:101C70002068810717D5410705D5D8F8001041F431
:101C8000E051C8F80010010705D5D8F8001041F45C
:101C90006041C8F80010D8F80010A26821F0F001E7
:101CA0001143C8F80010C0073AD1D8F8F80300F083
:101CB0000F00A84207D988F8F853D8F8F80300F0C5
:101CC0000F00A84246D12068410707D5D8F8001078
:101CD000E26821F4E0511143C8F80010000708D56C
:101CE000D8F80000216920F4604040EAC100C8F83B
:101CF000000000F069F8D8F8001044F67032C1F323
:101D00000311C0F60002515CC84040F20C01C2F25F
:101D1000000108600020FFF7EFFE0020BDE8F08121
:101D20006068811E022907D258F8081C89015CBF2F
:101D30000120BDE8F08110E0012807D158F8081C07
:101D400089035CBF0120BDE8F08106E058F8081C5B
:101D5000890702D40120BDE8F081D8F8001021F0F5
:101D600003010843C8F80000FFF7EAFD064641F208
:101D7000883700BFD8F80000616800F00C00B0EBB5
:101D8000810F92D0FFF7DCFD801BB842F2D903200F
:101D9000BDE8F08140F20C00C2F20000006870471C
:101DA00040F20C0043F60801C2F20000C4F2020146
:101DB0000068096844F68032C1F38221C0F600024F
:101DC000515CC8407047000010B543F60404C4F2EB
:101DD0000204606800F00C0008280AD0042819BF2B
:101DE00042F20040C0F2F40047F64000C0F27D101D
:101DF00010BD206821682368490247F64001C0F2FF
:101E00007D1100F03F02C3F388105CBF42F2004135
:101E1000C0F2F401A1FB00010023FEF759FA21688A
:101E20000222C1F3014102EB4101B0FBF1F010BD10
:101E3000002804BF012070472DE9F04182B004461C
:101E4000007843F60006C007C4F2020649D0B06825
:101E500000F00C00042809D13068800341D5606887
:101E600000283ED1012002B0BDE8F081B06800F04A
:101E70000C00082802D170684002EDD46568306813
:101E8000B5F5A02F05D0B5F5803F09D140F48030DD
:101E90000CE040F480203060306840F4803005E091
:101EA00020F480303060306820F480203060FFF70C
:101EB00047FD002D054611D03068800311D4FFF78F
:101EC0003FFD401B6428F7D9FAE000BFFFF738FD5B
:101ED000401B64284FF0030000F2B4803068800398
:101EE000F4D42078800718D5B06810F00C0F07D014
:101EF000B06800F00C0008285DD1706840025AD428
:101F00003068800702D5E068012815D13068216962
:101F100020F0F80040EAC1003060207800070FD4BC
:101F20002078400721D4A569002D00F00081B06819
:101F300000F00C00082871D1012002B0BDE8F0814A
:101F40006069002856D00020C4F247200121C0F863
:101F5000801EFFF7F5FC0546706F8007E0D4FFF7A1
:101F6000EFFC401B0228F7D9AAE0306C5FEAC008FA
:101F70000AD400200190306C40F080503064306C06
:101F800000F080500190019847F20007C4F200076A
:101F90003868C00525D4386840F480703860FFF791
:101FA000CFFC05463868C0051BD4FFF7C9FC401BB1
:101FB0000228F7D984E0E068002840F20000C4F26B
:101FC00047204ED001210160FFF7BAFC054600BF53
:101FD000306880079AD4FFF7B3FC401B0228F7D97A
:101FE0006EE0A568306F052D4CD0012D51D140F029
:101FF000010054E00020C4F247200021C0F8801EF8
:10200000FFF79EFC054600BF706F80077FF588AF25
:10201000FFF796FC401B0228F6D951E00027C4F2D6
:10202000472700203866FFF78BFC022D05460DD1AF
:10203000306880015BD5FFF783FC401B02284FF01E
:102040000300F5D902B0BDE8F08100BF306880011F
:102050006DD5FFF775FC401B03284FF00300F5D347
:10206000F0E700210160FFF76BFC05463068800750
:102070007FF553AFFFF764FC401B02284FF00300CD
:10208000F4D9DFE740F004003067306F40F0010022
:1020900005E020F001003067306F20F00400306769
:1020A000FFF74EFC002D054641F2883713D000BFE4
:1020B000306F800712D4FFF743FC401BB842F7D9BA
:1020C000032002B0BDE8F081FFF73AFC401BB842A4
:1020D0004FF00300B6D8306F8007F5D4B8F1000F89
:1020E0003FF521AF306C20F0805030641BE704F1E5
:1020F0001C052FCD084340EA8210D9034FF6FF722A
:102100009143A1F5803140EA0560084370600120E9
:102110003866FFF715FC04463068800107D4FFF7E6
:102120000FFC001B02284FF00300F5D98AE70020BE
:1021300002B0BDE8F08100004EF21001CEF20001C5
:102140000A68042822F0040208BF04320A607047BB
:1021500070470000411E0020B0EB116F1CBF012032
:1021600070474EF21002CEF2000251604EF623513B
:10217000CEF20001F0230B700721906011607047D0
:10218000FFF7E6BF704700007047000090F8382066
:10219000012A4FF0020219D080F8392002685368F2
:1021A00023F0700353605368D1E9001C1943516058
:1021B000916821F080019160916841EA0C01916081
:1021C0000121002280F8391080F83820104670472D
:1021D000002804BF0120704710B5044690F839006C
:1021E00028B9002084F83800204600F00DF80220BD
:1021F00084F839002068211D00F0A4FF012084F834
:102200003900002010BD000010B582B0006840F613
:102210000001C4F20001884219D040F20041C4F22A
:10222000000188422ED10020019043F64000C4F204
:1022300002000168032241F00201016000680121EF
:1022400000F00200019001981D201D2412E00020E2
:10225000009043F64000C4F202000168042241F0FD
:10226000040101600068012100F004000090009862
:102270001E201E24FFF7A6FC204602B0BDE8104039
:10228000FFF792BC02B010BD0168C86840F00100C1
:10229000C860086840F0010200200A607047000032
:1022A0007047000010B5044600680169890744BF03
:1022B000C1685FEA81713FD420680169490744BF62
:1022C000C1685FEA417143D420680169090744BFCE
:1022D000C1685FEA017148D420680169C90644BF3A
:1022E000C1685FEAC1614CD420680169C9071CBF9D
:1022F000C1685FEAC17151D120680169090644BF14
:10230000C1685FEA016150D420680169490644BF91
:10231000C1685FEA41614FD421680869800646BF01
:10232000C8685FEA806010BD6FF0200220460A6135
:10233000BDE81040FFF728BF6FF0020101610121E5
:102340002176806980073ED02046FFF7A9FF40E054
:102350006FF00401016102212176806910F4407F51
:102360003AD02046FFF79CFF3CE06FF00801016186
:1023700004212176C069800737D02046FFF790FFFF
:1023800039E06FF01001016108212176C06910F475
:10239000407F33D02046FFF783FF35E06FF0010127
:1023A0000161204600F098F9A6E76FF08001016115
:1023B0002046FFF7E7FEA7E76FF0400101612046E6
:1023C00000F0E6F9A8E7204600F022F8204600F0E9
:1023D00063F9002020766FE7204600F019F82046C8
:1023E00000F05AF9002020766EE7204600F010F841
:1023F000204600F051F9002020766DE7204600F0DD
:1024000007F8204600F048F9002020766CE700002D
:102410007047000090F83830012B4FF0020300F0B5
:1024200005814FEAB2024FF0010C032A80F838C050
:1024300080F8393000F2F5802DE9F047DFE802F04E
:1024400002AD3B7B036840F200441A6A43F48067A4
:1024500022F001021A621E6A1A46C4F201045D6883
:1024600052F8188FA7428C68D1F800E026F00206D7
:1024700046EA04060CD126F00C04CE68D1E90579B1
:1024800026F00406264325F440743C4344EA09053B
:1024900028F0730444EA0E075D609F614F68096984
:1024A0005F631E629F6947F008079F619F6927F07D
:1024B00004079F61B0E0036840F200441A6A43F4E5
:1024C000806722F480721A621E6A1A46C4F20104FE
:1024D000D3F804E052F81C8FA7428C68D1F8009022
:1024E00026F4007646EA042611D126F44064CE682C
:1024F000D1E9057A360240F2FF4526EA050545EAAC
:1025000004062EF4405547EA0A0745EA071E28F05C
:10251000730444EA0904C3F804E0DC614F68096904
:10252000DF631E62DF6947F00807DF61DF6927F0BC
:102530000407DF6170E0036840F200451A6A43F463
:10254000806422F480521A621A46D3F820E05E6852
:1025500052F81C8FD1F800908F68C4F20105AC428C
:1025600004D14C6926F4804545EA84162EF40055C2
:1025700045EA073728F4E64545EA09255E60DD614E
:102580004E6809691E641F62DF6947F40067DF61F6
:10259000DF6927F48067DF613DE0036840F20044B3
:1025A0001A6A43F4806722F010021A621E6A1A4601
:1025B000C4F20104D3F804E052F8188FA7428C68E3
:1025C000D1F8009026F0200646EA041610D126F035
:1025D000C004CE68D1E9057A6FF0400505EA06151A
:1025E00045EA04062EF4406547EA0A0745EA870EE5
:1025F00028F4E64444EA0924C3F804E09C614F68E7
:1026000009699F631E629F6947F400679F619F6924
:1026100027F480679F610902136819431160BDE8C0
:10262000F047002380F839C080F8383018467047EA
:10263000002804BF0120704710B5044690F8390007
:1026400028B9002084F83800204600F00DF8022058
:1026500084F839002068211D00F074FD012084F801
:102660003900002010BD00000068B0F1804F18BF95
:10267000704781B00020009043F64000C4F2020091
:10268000016841F001010160006800F00100009064
:10269000009801B0704700007047000002680120F8
:1026A000136A884023EA00011162D2F820C040F288
:1026B000004142F48063C4F201018B4240EA0C0005
:1026C000106203D1506C40F400405064106840F038
:1026D0000101002011607047F0B581B040F624215F
:1026E000C2F20001884201D001B0F0BD00F0E2FF6B
:1026F00040F66014C2F20004206840F65415013020
:10270000C2F20005206040F658102968C2F20000AD
:10271000026801312960511C092A016003DB002194
:10272000016001F0F1FB41F21800C2F20000006C00
:10273000012803D100F05EFE0020286020680128F7
:10274000D2DB40F65C15C2F20005286840F6E07660
:10275000C2F20006013096ED000A28600020002732
:1027600001F0DEF8002001F0FBF82868276005285A
:10277000BADB96ED010A0120B1EE400A2F6001F0AC
:10278000CFF8012001B0BDE8F04001F0E9B8000049
:1027900070470000FEE700002DE9F0430A6892FA56
:1027A000A2F20E68B2FA82F236FA02F300F07C80EE
:1027B00000F1240C00F1200E4FF0010903244FF02A
:1027C0000F081BE04F69DCF80030360A96FAA6F5D0
:1027D000B5FA85F5AD0008FA05F523EA0505634667
:1027E00096FAA6F6B6FA86F6B60007FA06F6354366
:1027F0001D600E68013236FA02F355D009FA02F371
:102800001E40F6D04B68056896FAA6F7B7FA87F728
:102810007F0004FA07F7BD4396FAA6F7B7FA87F7E1
:102820007F00BB402B4303604B68013B012B11D859
:102830008B68856896FAA6F7B7FA87F77F0004FADF
:1028400007F7BD4396FAA6F7B7FA87F77F00BB40B4
:102850002B4383600B69C56896FAA6F7B7FA87F72A
:102860007F0004FA07F7BD4396FAA6F7B7FA87F791
:102870007F00BB402B43C3604B68022BB9D196FA53
:10288000A6F3B3F1807F9DD34F69DEF8003096FA4E
:10289000A6F5B5FA85F5AD0008FA05F523EA0505B4
:1028A00096FAA6F673469DE74A68013A012A05D8CA
:1028B000C96842687143B243114341600120BDE8D9
:1028C000F083000080B543F6040EC4F2020EDEF879
:1028D000042002F00C0342F20042082BC0F2F40282
:1028E00006D0042B22D141F60032C0F2B7021DE01F
:1028F000DEF80030DEF800C05B0241F60033C0F2C3
:10290000B70358BF13460CF03F0CDEF80020B3FBB2
:10291000FCFCDEF80030C2F3881202FB0CFCC3F3AF
:102920000143022202EB4302BCFBF2F20260DEF83A
:10293000043044F67031C3F30313C0F60001C95CE0
:1029400044F6803322FA01F14160DEF80420C0F63B
:102950000003C2F382229A5C21FA02F28260DEF85E
:102960000420C2F342329A5CD140C16080BD0000B5
:1029700070B584B00446C068800400F19180E068BE
:102980000D4649F20C618843D5E9011CD5E90332B3
:102990000843D5E905E6184310433043E060206959
:1029A00020F4405040EA0C002061606920F440703F
:1029B00040EA0E0060616846FFF784FF47F2FF704F
:1029C000C4F2000084424FF000000EDC44F6FF31F8
:1029D000C4F200018C4217DC44F20041C4F2000151
:1029E0008C4220D044F6000116E040F6FF71C4F29C
:1029F00001018C421ADC47F60001C4F200018C424E
:102A000011D047F6004107E044F60041C4F200014E
:102A10008C4208D045F20001C4F200018C4208BF8C
:102A20000298A0B93CE0029888B939E041F200412F
:102A3000C4F201018C4208D041F20001C4F201014C
:102A40008C4208BF039810B92AE0039840B32A6863
:102A500032B3AB694FF69C711926C0F6FF71B3F51E
:102A6000004F06FB00F01ED15200B0FBF2F048F21E
:102A70001F52C5F2EB12A0FB0236730901F180511F
:102A800003FB0100322101EBC000A0FB02014FF467
:102A9000F87000EA111000EB0310C1F342111AE0C4
:102AA000002004B070BD9200B0FBF2F048F21F525B
:102AB000C5F2EB12A0FB0236730903FB01003221C1
:102AC00001EB0010A0FB0201F02000EA511000EB26
:102AD0000310C1F343114FF6F07210400844A06098
:102AE000012004B070BD000080B540F66C1046F6C1
:102AF0000001C2F20000C4F2000100234FF4302CA8
:102B00000C2280E80E00C0E9033CC0E90533838352
:102B1000FEF7ACFC002808BF80BD03A04521BDE83E
:102B2000804000F065BC00BF2E2E2F5372632F63D0
:102B3000616E2E63000000002DE9F04385B0002790
:102B400043F630000097C4F20200016841F2000928
:102B500041F0100101600168C4F2020901F01001A6
:102B6000009100990097016809F5806541F04001E6
:102B700001600168002201F0400100910099009776
:102B8000016844F2400641F001010160016801F072
:102B90000101009100990097016841F080010160F6
:102BA000016801F08001009100990097016841F0EF
:102BB00020010160016801F0200100910099009757
:102BC000016841F002010160006844F2400100F038
:102BD0000200009000982846FEF7ACFE48464FF4ED
:102BE000006100224FF40068FEF7A4FE00966E46D6
:102BF000012428463146CDE901470397FEF7D2FD6F
:102C000048463146CDE90084CDE90277FEF7CAFD9A
:102C100005B0BDE8F083000080B540F6941045F69D
:102C20000001C2F20000C4F2000148F2A0620023D9
:102C30004FF4804CC0F2010280E80E00C0E9033C72
:102C4000C0E90533C0E90733FEF780FE002808BF5E
:102C500080BD03A04221BDE8804000F0C9BB00BF99
:102C60002E2E2F5372632F6932632E6300000000F3
:102C700010B58EB040F6E810C2F200004FF080416F
:102C8000002444F61F63532280E81600C0E9033491
:102C9000FFF7CEFC30B144F68830C0F60000E921E1
:102CA00000F0A6FB40F6E810C2F2000007A9CDE94B
:102CB0000744FFF76BFA30B144F68830C0F60000E5
:102CC000F02100F095FB602040F6E8140090002011
:102CD000C2F20004CDE901000490694620460822B2
:102CE000FFF798FB38B144F68830C0F6000040F298
:102CF000031100F07DFB2068B0F1804F01D00EB0D1
:102D000010BD0420099002200A900020CDE90B009C
:102D100001200D900020C4F2020009A9FEF742FD37
:102D20000EB010BD80B540F6242040F20041C2F242
:102D30000000C4F20001002340F247324FF0C70CFC
:102D400080E80E100361FFF743FA002808BF80BD3A
:102D500044F68830C0F600005E21BDE8804000F0F7
:102D600047BB000070B58EB043F64000C4F20200CD
:102D7000016847F60C0441F0804101600068C4F22C
:102D8000000400F08040079007984FF4C070019055
:102D900003200390012005900820069004F5CA3016
:102DA0000226002500F57D7001A902960495FFF723
:102DB000F3FC4EF60C50CEF2000000684FF0FF32EC
:102DC000C0F3022080F00701042928BF0421033842
:102DD00002FA01F138BF284626EA0101814002FAD1
:102DE00000F026EA000008434EF252410001CEF204
:102DF000000108704EF20810CEF200004FF480215E
:102E000001604FF4E130CDE907050C20CDE90B0559
:102E1000A4F10C0007A9CDE909550D95FFF7A8FD10
:102E2000606820F490406060A06820F02A00A060F4
:102E3000206840F4005020600EB070BDB0B58EB078
:102E400043F64000C4F20200016847F60C4441F02A
:102E5000004101600068022100F0004007900798DF
:102E600003200190CDE90210012005900820C4F252
:102E70000004069004F5C830002500F57D7001A916
:102E80000495FFF789FC4EF60C50CEF20000006866
:102E9000C0F30220C11E38BF2946C21F18BF01223D
:102EA00002FA01F1032888BF41F0010108014EF246
:102EB0005341CEF2000108704EF20810CEF200002D
:102EC0004FF4002101604FF4E120CDE907050C200B
:102ED000CDE90B05A4F10C0007A9CDE909550D9525
:102EE000FFF746FD606820F490406060A06820F025
:102EF0002A00A060206840F4005020600EB0B0BDF1
:102F000070B58EB0002443F630000C94CDE90A442D
:102F1000CDE90844CDE90644CDE90444CDE90244B5
:102F2000CDE90044C4F20200416941F20C4541F090
:102F3000200141614169C4F2010501F020010D91B8
:102F40000D990168032641F040010160006869465F
:102F500000F040000D900D984FF484400090022046
:102F60000190012004900820059005F5803000F5BF
:102F70007D70CDE90264FFF70FFC4EF60C50CEF2E7
:102F8000000000684FF0FF32C0F3022080F007011C
:102F9000042928BF0421033802FA01F138BF204672
:102FA00026EA010101FA00F04EF247410001CEF29B
:102FB000000108704EF20810CEF20000802101607E
:102FC0004FF4E130CDE906040C20CDE90A04A5F167
:102FD0000C0006A9CDE908440C94FFF7C9FC686809
:102FE00020F490406860A86820F02A00A860286853
:102FF00040F4005028600EB070BD0000FEE70000F5
:1030000070470000704700007047000080B5FEF771
:1030100049FDBDE88040FFF7B3B80000B0B592B0FD
:10302000002443F640000694C4F202000168022521
:1030300041F080510160006800F0805006900698D1
:1030400047F200000694C4F20000016841F44041D8
:103050000160006800F44040069006980120069048
:103060004FF4803007904FF480000D9006200E90B2
:10307000A820CDE90F050420119006A80C95FEF7B5
:10308000D7FE00B1FEE70F20CDE901054FF4A050B7
:1030900004904FF48050059001A805210394FEF799
:1030A000CDFD00B1FEE7FEF775FE44F6D351C1F247
:1030B0006201A0FB01018809FFF74CF80420FFF72B
:1030C0003BF84FF0FF3000210022FEF77BFD12B0ED
:1030D000B0BD00004EF68850CEF2000001684FF0FF
:1030E000000C41F47001016043F60001C4F20201DA
:1030F0000A6842F001020A60C1F808C00B684FF686
:10310000FF72CFF6F6621A400A6043F21002C2F272
:1031100000424A600A6822F480220A60C1F80CC0AA
:103120004FF0006140F8801C7047000040F62420FA
:10313000C2F20000FFF7B6B840F66020C2F200000D
:10314000FFF7B0B880B540F6FF3E0368C4F2000E4A
:1031500040F2004C7045C4F2010C0FDCB0F1804F1E
:1031600019D040F20042C4F20002904213D040F65F
:103170000002C4F2000290420DD010E040F600427E
:10318000C4F20002904206D0604504D00022C4F28E
:103190000102904203D14A6823F07003134341F6C1
:1031A000FF72C4F2000290420FDC704521DCB0F1E6
:1031B000804F41D040F20042C4F2000290423BD026
:1031C00040F60002C4F2000234E043F6FF72C4F29B
:1031D000010290421EDC42F20002C4F20002904260
:1031E0002AD00022C4F20102904225D0604523D0AB
:1031F00026E040F60042C4F2000290421CD041F6A4
:103200000002C4F20002904216D041F60042C4F21D
:1032100000020FE044F20002C4F2010290420BD01F
:1032200044F60002C4F20102904205D044F200428A
:10323000C4F20102904203D1CA6823F440731343DD
:1032400003608A680B68C26240F4806283626245F0
:1032500004BF096901630121416180BD704700001D
:1032600010B547F60C44C4F2000454F80C0C800668
:1032700044BF20685FEA806000D410BD54F8080C99
:1032800041F26C01C2F200010870087800F012FDF2
:10329000206840F02000206010BD000041F2004096
:1032A000C4F201000168890644BFC1685FEA816118
:1032B0000CD40168090758BF704781B001680091BC
:1032C000009940680090009801B07047416840F252
:1032D0009002C9B22B29C2F2000204D02D2902D0DB
:1032E00013788B42F1D0A1F12B03282B1170E0D879
:1032F000DFE803F0161533151515151515151515F9
:10330000151515151515151515151F525C291540A0
:1033100015151515154A15151515156F6300C8E710
:1033200040F2A801C2F2000191ED000A9FED2E1AB1
:103330001BE040F2A40140F20C22C2F20001CBF6E5
:103340002B620A60B5E740F2A40140F20C22C2F2FF
:103350000001C3F62B620A60ABE740F2A801C2F29B
:10336000000191ED000A9FED1F1A30EE010A81ED78
:10337000000A9EE740F2A00143F23332C2F200019C
:10338000CBF633720A6094E740F2A401C2F2000166
:103390004FF03F420A608CE740F2A00143F2333223
:1033A000C2F20001C3F633720A6082E740F2A40160
:1033B000C2F2000100220A607BE740F2A001C2F2E3
:1033C000000100220A6040F2A401C2F200010A607A
:1033D0006FE740F2A401C2F200014FF07C520A6094
:1033E00067E700BFCDCC4CBDCDCC4C3DFEE7000027
:1033F000FEE70000F0B581B040F6B076C2F20006FC
:1034000096ED060AB1EE401AB5EE400AF1EE10FA5A
:10341000B8BFB0EE410AB2EE001AB4EE410AF1EEC6
:1034200010FA1CDD40F6E070C2F200000021C0E995
:10343000001140F29C00C2F20000016040F648100A
:10344000C2F20000016040F28000C2F200000160A0
:1034500040F64410C2F20000016001B0F0BD40F639
:103460005010C2F20000016840F6E07441F2180505
:1034700040F29C074A1C1329C2F20004C2F2000564
:10348000C2F20007026054DB40F64411C2F20001B0
:1034900094ED080A91ED001A9FED662A30EE011AAC
:1034A0009FED653AB4EE421AF1EE10FAC8BFB0EEE5
:1034B000421AB4EE431AF1EE10FAB8BFB0EE431A56
:1034C00095ED072A9FED5D3A22EE012A82EE032A4E
:1034D00095ED063A81ED001A20EE030A97ED001AE9
:1034E0009FED583A002121EE031A016030EE020AE6
:1034F0009FED532A20EE020A31EE000AB7EE081AB9
:10350000B4EE410A87ED000AF1EE10FAC4BF4FF0A5
:103510007F50386097ED000ABFEE081AB4EE410AFA
:10352000F1EE10FABEBF0020CBF6C0703860FDF798
:1035300025FC95ED0C1A97ED002A40F6481096ED03
:10354000063AC2F2000031EE021A90ED002A33EE84
:10355000411A31EE022AB3EE0E3AB4EE432A96ED4A
:10356000030AF1EE10FAC8BFB0EE432ABBEE0E3AE2
:10357000B4EE432AF1EE10FAB8BFB0EE432A95ED4F
:10358000036A95ED047AD5ED050A80ED002A27EE51
:10359000022A26EE011A31EE021A20EE202A40F20B
:1035A000980032EE011AC2F2000080ED001A40F2DB
:1035B0008000C2F2000031EE400A90ED001A9FED4B
:1035C000222A31EE001A9FED216AB4EE421A95EDDF
:1035D000003A95ED014A95ED025AF1EE10FAC8BF96
:1035E000B0EE421AB4EE461AF1EE10FAB8BFB0EEE1
:1035F000461A80ED001A40F28400C2F2000023EE69
:10360000002A90ED003A24EE011A32EE011A30EE53
:10361000432A25EE022A80ED000A40F2940032EEA1
:10362000011AC2F2000080ED001A84ED001A01B008
:10363000F0BD00BF00004843000048C300007A44CA
:10364000CDCCCCBD6666663F00401C4600401CC623
:1036500041F2100CC2F2000CBCF80030C1B170B5E0
:103660004FF0000E41F2210210F80E4083EA0423CD
:10367000082400BF82EA43051E0458BF5D00013CD8
:103680002B46F7D10EF1010E8E45EDD1BDE870400D
:10369000ACF800307047000080B540F2AC0043F653
:1036A0009D11C2F20000C0F6000100F0C7FB00202F
:1036B00080BD000040F66471C2F2000191ED0E1A67
:1036C000D1E90CC240F6B0709FED1D2AC2F2000095
:1036D000B5EE401A91ED060A31EE022AF1EE10FA2B
:1036E000B8BFB0EE421AD1E90713826140F6D47236
:1036F000C2F20002C0E90413117880ED081A002913
:1037000040F6D87180ED030AC0F81CC0C2F2000177
:1037100002BF0123137081ED000A40F2100291ED07
:10372000001AC2F2000292ED002A30EE410A22EEA7
:10373000000A30EE010A81ED000A80ED030A7047AD
:103740000000B443FFF7A8BF80B586B010200190F9
:10375000002001210290CDE9031041F20000C4F2E3
:10376000020001A9FEF71EF806B080BD86B041F246
:103770000C45C4F20105FEF7A3F9FFF74FFCFFF774
:10378000DBF9FFF7B1F9FFF7CDFAFFF771FAFFF7B1
:1037900043FAFFF753FBFFF7E5FAFFF7B1FB00F041
:1037A00089F8FFF7CFFF00F05BFB47F60C00C4F28F
:1037B0000000D0F8001441F02001C0F800140168A6
:1037C00041F020010160286840F02000286000F0EE
:1037D000AFFC40F62420C2F20000FEF755FD4FF486
:1037E0007A70FDF7CBFFFFF7AFFF40F6DC7441F2D4
:1037F000740A41F2780B40F6C409C2F20004C2F226
:10380000000AC2F2000BC2F200090FF2880800BFE2
:10381000FEF796F82168401A3328F9D3FEF790F89E
:10382000206040F6B070C2F20000806901F0D6F866
:10383000064641F21800C2F20000006B0F4601F08C
:10384000CDF841EC180BDAF8000001F0C7F841ECB4
:10385000190BDBF8000001F0C1F841EC100B4846F1
:10386000414632463B468DEC048B8DED040BFCF754
:10387000A7FD99F800000028CAD0494655F80C2C3D
:103880001206FBD545F8080C11F8010F0028F5D1F8
:10389000BEE700BF523A252E32662C5A3A252E3208
:1038A000662C4D3A252E30662C573A252E30660D63
:1038B0000A00000010B58AB040F6E070C2F20000C5
:1038C0003021FCF75DFE002043F640010090C4F279
:1038D00002010A6840F66C1442F000720A6009683E
:1038E0000E2201F00071009100990121C2F2000442
:1038F0000891CDE90000CDE90200CDE90402CDE94F
:103900000601694620460992FDF77EFB2046FDF739
:10391000F9FE20460221FDF707FB0AB010BD0000AA
:1039200080B58AB008220021089240F20D22CDE92C
:103930000611002808BF40F20D3240F66C10CDE9A8
:1039400004218DF824100391C2F2000004A902AAF8
:1039500001AB8DED020AFDF7FDFA0AB080BD000053
:1039600080B58AB000210222CDE9061240F2092278
:10397000CDE902110891002808BF40F2093240F653
:103980006C10CDE904218DF82410C2F2000004A9C6
:1039900002AA01ABFDF7DEFA0AB080BD2DE9F04FB7
:1039A00081B02DED068B82B0814690F80808A528DD
:1039B00040F07681B9F804A840F64C16C2F2000631
:1039C0000020BAF1000F307000F06A8196F8008094
:1039D00040F664749FEDB68A9FEDB49A09F1040530
:1039E00009F10C074FF0000BC2F20004B2EE04AA7A
:1039F000CDF8049003E000BFD34580F2518115F863
:103A00000B00A0F19001412900F2548005EB0B005E
:103A1000DFE811F04500A2004200420042004200EF
:103A20004200420042004200420042004200420086
:103A3000420042007D00420042004200420042003B
:103A40004200420042004200420042004200420066
:103A50004200420058004200420042004200420040
:103A60004200420042004200420042004200420046
:103A700042004200E7004200420042004200420091
:103A80004200420042004200420042004200420026
:103A900042004200C200AE000BF1010BACE799F806
:103AA000050048F0010886F8008060700BF1020BF9
:103AB000A2E700BF622800F0B980F028ECD10BF13A
:103AC000050B99E7B0F90110B0F90320B0F9050032
:103AD00000EE101A01EE102A02EE100AB8EEC00A2B
:103AE000B8EEC11AB8EEC22A80EE0A0A81EE0A1AAE
:103AF00082EE0A2A48F0040886F800800BF1070BD2
:103B000084ED060A84ED071A84ED082A74E7B0F9FB
:103B10000110B0F90320B0F9050000EE101A01EE13
:103B2000102A02EE100AB8EEC00AB8EEC11AB8EEBA
:103B3000C22A80EE080A81EE081A82EE082A48F0AE
:103B4000020886F800800BF1070B84ED030A84ED70
:103B5000041A84ED052A4FE74FF07F0820462946D6
:103B60004C2286F80080FCF7C6FC0BF14C0B43E7B7
:103B7000D0F80110D0F80520D0F80930D0F80D00A9
:103B800048F0200804F13C0C86F800808CE80E0018
:103B9000A0640BF1110B2FE7B0F90110B0F903206D
:103BA000B0F9050000EE101A01EE102A02EE100A1C
:103BB000B8EEC00AB8EEC11AB8EEC22A80EE090A01
:103BC00081EE091A82EE0A2A48F0100886F8008071
:103BD0000BF1070B84ED0D0A84ED0C1A84ED0E2A0F
:103BE0000AE7B0F90110B0F90320B0F9050000EEC2
:103BF000101A01EE102A02EE100AB8EEC00AB8EE52
:103C0000C11AB8EEC22A80EE0A0A81EE0A1A82EEC2
:103C10000A2A48F0080886F800800BF1070B84EDAB
:103C2000090A84ED0A1A84ED0B2AE5E6286869681A
:103C300040F6A022C2F20002C2E900014B4692F80F
:103C40000290B9F1000F23D040F64C1040F6A024AA
:103C5000C2F200007F21ABF14C06C2F200040170F9
:103C60004C36F119201D4C22FCF745FCB9F1010935
:103C7000F6D106F1540BDDF8049040F64C1640F6F0
:103C800064744FF07F08C2F20006C2F20004B3E68B
:103C900040F64C160BF1080BC2F200069946ABE653
:103CA00002B0BDEC068B01B0BDE8F08F0000C84249
:103CB00000007A442DE9F04741F21409C2F20009EC
:103CC00099F80010DFE801F0043412210A4359008A
:103CD0005A284FF0000068D1012264E041F212013D
:103CE000C2F200010880002005225CE040F6B80125
:103CF000C2F2000109680322A1F8040840F214018D
:103D0000C2F20001887000204DE040F6B801C2F216
:103D100000010968B1F8042842EA0022A1F8042849
:103D200040F21401C2F20001C870002004223AE0FF
:103D300040F6B801C2F200010968A52881F8080818
:103D40004FF0000018BFBDE8F08702222BE041F2DF
:103D50001201C2F200010A8842EA0020088040F6FF
:103D6000B800C2F2000001680020086041F21001B2
:103D7000C2F200010880062215E040F6B801C2F246
:103D80000001D1F800A00246DAF800100AF10400A0
:103D90004B1CCAF800304254DAF800100022B2EB93
:103DA000D12F04D0012089F80020BDE8F087BAF8AF
:103DB000042891423FD39AF80828A52A3BD141F222
:103DC0001008C2F20008B8F8002040F2140C0023DA
:103DD000C2F2000C41F221071CF8036082EA0622BD
:103DE000082600BF154687EA42022C0458BF6A0025
:103DF000013EF7D10133042BEED1A8F80020FFF7E4
:103E000027FC41F21201C2F20001B8F80000098853
:103E100088420DD140F66810C2F20000016840F6F9
:103E20006412C2F2000201311268016050469047EC
:103E300000220020B7E70020BDE8F08710B5044657
:103E400040F66410C2F200000160204640F60C010A
:103E5000FCF796FB40F6B800C2F20000046010BD0B
:103E6000B0B541F218010022C2F2000140F2000C8C
:103E700040F2000ECCF2A01241F26F234DF20A750F
:103E8000CCF2A00C0020CBF6C07ECBF683234FF003
:103E90004044C3F6235581E81C1040F2A802C1E952
:103EA000040EC1E90650C1E90800C1E90A00C2F2E6
:103EB000000292ED000A9FED131A4CF6CD4530EE4C
:103EC000010A01224FF07F53C3F64C6581ED0C0AC5
:103ED000C1E90F22C1E91135C86440F28001C2F284
:103EE0000001086040F28401C2F20001086040F65F
:103EF0004811C2F20001086040F64411C2F200010C
:103F00000860B0BD666616C0F0B581B041F2180514
:103F1000C2F200050120E86340F2A000C2F20000F6
:103F200090ED000A9FED762AB1EE401AB5EE400AF8
:103F3000F1EE10FAB8BFB0EE410AB4EE420A9FEDBE
:103F4000711AF1EE10FAACBF90ED000A9FED6B0A0A
:103F5000B5EE400AB0EE403AB1EE402AF1EE10FA6A
:103F6000B8BFB0EE423AB4EE413A40F6BC00F1EED2
:103F700010FAC2F200002ADA90ED002AB5EE402ACB
:103F8000B0EE424AB1EE423AF1EE10FAB8BFB0EEEE
:103F9000434AB4EE414AF1EE10FA18DD9FED5B1A88
:103FA00023EE010A30EE020AB5EE400AB0EE403AC6
:103FB000B1EE402AF1EE10FAB8BFB0EE423AB4EEDC
:103FC000413AF1EE10FAB8BF9FED4C0A09E090EDCE
:103FD000001A9FED4D2A30EE410A20EE020A30EE23
:103FE000010A80ED000A40F6E070C2F2000080EDA8
:103FF000010A40F2A400C2F2000090ED000A90ED28
:10400000002A40F6C000B1EE421AB5EE402AC2F2D4
:104010000000F1EE10FAB8BFB0EE412A90ED001AA0
:104020009FED3D3A3AA1B4EE431AF1EE10FAB4EE28
:10403000432AC8BF043191ED004AF1EE10FAB8BF2F
:10404000B0EE440A30EE412A9FED343AB5EE402AF4
:10405000B0EE425AB1EE424AF1EE10FAB8BFB0EEFD
:10406000445AB4EE435AF1EE10FA0ADBB5EE402A98
:10407000F1EE10FADABF9FED2A0A31EE000A31EEB6
:10408000030A9FED281A4FF6D46620EE011ABDEE02
:10409000C11A11EE101A40F20807B1F5967FA8BFB9
:1040A0004FF49671CFF6FF76C2F2000711F5967FB6
:1040B000C8BF0E46396806F2DC548C4280ED000A17
:1040C00003D0204600F072F83C6000EE106A9FEDCD
:1040D000161AB8EEC00A40F2A80020EE010A9FEDC1
:1040E000131AC2F2000090ED002A30EE010A30EE01
:1040F000020A85ED0C0A01B0F0BD00BF000000000F
:10410000CDCCCC3D0AD7233C0AD7A33CCDCC4C3DEB
:1041100000000000CDCCCCBD6F12833A0AD7A33B80
:104120000AD7A3BB000016C46F1283BB666616C015
:1041300010B586B0002043F630010190C4F20201B0
:104140000A6842F001020A60096801F00101019168
:10415000019903900F200190022002900320049007
:10416000012005900020C4F2020001A9FDF71AFB0E
:1041700040F6E814C2F2000420460021FEF78EFA51
:1041800020460421FEF78AFA20460821FEF786FA27
:1041900020460C21FEF782FA206840F2DC51416390
:1041A0008163C163016406B010BD000040F6C41114
:1041B0008842B8BF014640F6E810C2F2000000682D
:1041C000B1F5FA7FD8BF4FF4FA7141638163C163DF
:1041D000016470475FEA400C08BF91F0000F4FEA9E
:1041E0008C234FEAC12243EA51514FEA1C5018BFB9
:1041F00000F5F0404FEA300018BF41F000415FEA9F
:104200006C5C00F02980BCF1FF3F08BF40F08040AB
:104210007047130C06BF12044FF0100C4FF0000C47
:10422000130E04BF12020CF1080C130F04BF12018D
:104230000CF1040C930F04BF92000CF1020CD30F8D
:1042400004BF52000CF1010C11464FF00002A0F126
:104250001F00A0EB0C00704711F0004F08BF704723
:1042600031F000413FF4D5AF0B0C06BF09044FF00D
:10427000100C4FF0000C0B0E04BF09020CF1080CDF
:104280000B0F04BF09010CF1040C8B0F04BF890054
:104290000CF1020CCB0F04BF49000CF1010CCCF166
:1042A000200322FA03F341EA030102FA0CF2A0EB25
:1042B0000C0000F10100704723F07F4720F07F4C95
:1042C00080EA030000F00040ACEB070303F57C53E9
:1042D00003F1FF032DE9804909B44FEA144324EAAE
:1042E00003484FEA154B25EA0B4E0FF2042606EB66
:1042F00013273E7803FB0667C7F5000707FB06F6A2
:104300004FEAD64606F102064FEA543707FB066C21
:10431000CCF1005C4FEA1C472CEA074C0CFB06F57D
:1043200007FB06F404EB15464FEA961649085FEAC8
:10433000320234BF00204FF000404FEAD13706FB75
:1043400007FC4FEA1C4C0CFB0BF7D21B03FB0CF7D2
:1043500061EB07010CFB0EF7B0EB074072EB174265
:104360000CFB08F734BFA2EB0742B2EB074261EB4C
:1043700017414FEA0C444FEA910706FB07FC4FEA4E
:104380001C4C0CFB0BF7B0EBC74072EB573203FB36
:104390000CF734BFA2EBC742B2EBC74261EB573117
:1043A0000CFB0EF7B0EBC70072EB57720CFB08F773
:1043B00034BFA2EBC702B2EBC70261EB57714FEA01
:1043C000816141EA92114FEA826242EA90124FEA19
:1043D000806004EBCC04039F4FEAD13706FB07FC57
:1043E0004FEA1C4C0CFB0BF7D21B03FB0CF761EBE9
:1043F00007010CFB0EF7B0EB074072EB17420CFB0A
:1044000008F734BFA2EB0742B2EB074261EB17415A
:104410004FEA8C5504EB9C244FEA910706FB07FCFE
:104420004FEA1C4C0CFB0BF7B0EBC74072EB57325A
:1044300003FB0CF734BFA2EBC742B2EBC74261EB00
:1044400057310CFB0EF7B0EBC70072EB57720CFB49
:1044500008F734BFA2EBC702B2EBC70261EB57719A
:104460004FEA816141EA92114FEA826242EA901278
:104470004FEA806015EB4C2544F100044FEAD13738
:1044800006FB07FC4FEA1C4C0CFB0BF7D21B03FB93
:104490000CF761EB07010CFB0EF7B0EB074072EB7A
:1044A00017420CFB08F734BFA2EB0742B2EB0742FE
:1044B00061EB17414FEA813141EA92414FEA823282
:1044C00042EA90424FEA80304FEA0C7615EB1C1519
:1044D00044F1000448EA03434EEA0B484FF0000E53
:1044E000B2EB080C71EB030724BF624639464EEB72
:1044F0000E0E4FF0000B0018524149414BEB0B0BD5
:10450000B2EB080C71EB03077BF1000B24BF624692
:1045100039464EEB0E0E4FF0000B00185241494148
:104520004BEB0B0BB2EB080C71EB03077BF1000BB1
:1045300024BF624639464EEB0E0E51EA020718BF01
:1045400046F0010616EB0E7655F1000254F100011B
:1045500003D5BDE88901BDE80088BDE88901BDE853
:104560000048B619524141EB0101A3F10103704724
:1045700080807F7E7D7C7B7A7978777676757473A0
:10458000727171706F6E6E6D6C6C6B6A6A6968685F
:10459000676666656464636362616160605F5F5EF5
:1045A0005E5D5D5C5C5B5B5A5A595958585757566B
:1045B00056555555545453535252525151505050D0
:1045C0004F4F4F4E4E4D4D4D4C4C4C4B4B4B4A4A22
:1045D0004A49494948484847474747464646454566
:1045E000454444444443434343424242424141419F
:1045F0009C46002B30D477002BD04FEA37071CB5F0
:1046000003B44FF010004FF01001BAF1000F06D0C4
:10461000BCF1000FDCBF40F0080040F008014FF093
:1046200000000FBCBDE810400BF1010BBBF1010F06
:1046300008BF5FEA170722BF12F1010211F1010161
:104640004FF0004143F1000300F0004043EA000056
:104650007047F9D35708D0E746EA06464FEA1646B0
:1046600013F1400F1FDD13F1200FDFBF16430A4681
:10467000002120335B42BED0C3F1200746EA064644
:104680004FEA164602FA07F746EA070622FA03F24D
:10469000C3F1200701FA07F742EA070221FA03F102
:1046A0004FF00003A7E746EA020646EA06464FEA4D
:1046B000164646EA0106BCBF46EA0646360C4FF0EF
:1046C00000034FF000024FF0000194E72DE9804C09
:1046D00070B49A46934691E8380007C831EA400C16
:1046E00048BF34EA430C03D5FFF7E6FDFFF780FF30
:1046F000F0BCBDE8008C2DE9804C70B49A4693461E
:1047000091E8380007C810F0804F08BF13F0804FC1
:1047100003D100F005F8FFF76BFFF0BCBDE8008C9B
:1047200020F07F4723F07F4C80EA030000F0004038
:1047300007EB0C03A3F57C53A3F1FE0392F0000FEB
:1047400000F0B38095F0000F00F077802DE901496B
:104750004FEA114021EA00484FEA144624EA06478E
:1047600000FB06FC08FB06F607FB08F818EB0648FA
:104770004CEB164C00FB07F718EB07484CEB1740C7
:104780004FEA124B22EA0B4E4FEA154625EA06473E
:104790000BFB06FC0EFB06F607FB0EFE1EEB064EA1
:1047A0004CEB164C0BFB07F71EEB074E4CEB174B75
:1047B00018EB0B0840F1000018EB0E0B58EB00084B
:1047C00040F100008F1A4FF000014FF000063CBF8F
:1047D000C943661B14BFB5EB040C00213CBFC943A1
:1047E000F61B4FEA174427EA04454FEA1C472CEA18
:1047F000074C04FB076205FB07F70CFB05F616EBFD
:10480000074642EB174204FB0CFC16EB0C4642EB4E
:104810001C421BEB060658EB020241414EEA8E0E8B
:1048200046EA9E0601D5BDE80189B619524141EB21
:104830000101A3F10103BDE801894FEA144524EA0F
:1048400005464FEA114721EA074C05FB07F406FB32
:1048500007F70CFB06F111EB074144EB174405FB8E
:104860000CFC11EB0C4144EB1C444FEA124722EACA
:10487000074C05FB07F206FB07F70CFB06F616EBE9
:10488000074642EB174205FB0CFC16EB0C4642EBCD
:104890001C456A1854F1000148BF7047B6195241CF
:1048A00041EB0101A3F10103704795F0000F37D0F0
:1048B0004FEA114221EA02464FEA144724EA074C24
:1048C00002FB07F106FB07F70CFB06F414EB0744A9
:1048D00041EB174102FB0CFC14EB0C4441EB1C4177
:1048E0004FEA154725EA074C02FB07F506FB07F7D9
:1048F0000CFB06F616EB074645EB174502FB0CFCD6
:1049000016EB0C4645EB1C42121951F1000148BF51
:104910007047B619524141EB0101A3F10103704701
:104920004FEA144524EA05464FEA114721EA074CAD
:1049300005FB07F106FB07F70CFB06F212EB07423B
:1049400041EB174105FB0CFC12EB0C4251EB1C41F7
:104950004FF0000648BF7047921841EB0101A3F1E8
:104960000103704703B401984100009850EAC12048
:1049700018BF04204A0D18BF40F0010040F2FF723A
:10498000B2EB515F08BF40F00200012808BF0520CC
:1049900002B0704730380A2801D201207047002049
:1049A0007047000010B500290AD00878002807D009
:1049B00005487844FCF79CF9002801D0002010BD80
:1049C0000248784410BD000006020000FE0100000D
:1049D0000808A0F500114FEA3101704743004FEA83
:1049E000D30C4FEA3C0C43401FBF40070CF1605111
:1049F00013F0FE4F70471CF0006F03D10CF0004124
:104A0000002070470CF0004343EA507040EACC00AD
:104A100010B500F00EF800BF000000924FEA000150
:104A2000FFF7D6BF4FF00041A1F500214FF0000085
:104A300070470EF1020E2EF0030E5EF8044B244276
:104A400004D44FEA4102B2F17F4F11D84FEA40033C
:104A5000B3F17F4F0CD80ED14FEAD07C0CEB4C0C4D
:104A60000CF1020CB2F17F4F08BF4CEBD17C04E09B
:104A70004FF0080C01E04FEAD17C0CEB4C0324FA18
:104A800003F404F00704B4F1040C06D20EEB840C1A
:104A9000BDE810404CF0010C6047DFE80CF007085F
:104AA00002024FF00040A0F5800010BD0846420011
:104AB00018BFD2F1807288BF00F0004010BDF1EE47
:104AC000100A4FF6FF71C0F2C03120EA010040F039
:104AD0004070E1EE100A7047FBF754BE0240000040
:104AE000000000A00000000005400000000000C819
:104AF000000000000C4000000000409C000000008E
:104B0000194000000020BCBE00000000344000003E
:104B1000BFC91B8E00000004B5400000504BCFD031
:104B20006607E2CF010000006C4100003E8251AAFE
:104B3000DFEEA73401000000D9420000DCB5A0E29E
:104B40003A301F97FFFFFFFFB4450000FD25A0C8C6
:104B5000E9A3C14FFFFFFFFFFF3F000000000080FF
:104B600000000000FF3F0000000000800000000087
:104B7000000000000000000001020304060708090D
:104B800000000000010203042E2E2F5372632F74C5
:104B9000696D2E6300000000D84B00080000002063
:104BA0002000000010020008F84B00082000002040
:104BB00060160000300200081C00000043000000E6
:104BC000F8FFFFFF0C0000000E0000000F000000C7
:104BD0002E0000000000000000401CC600401C46E3
:104BE000FFFFFFFF0024F4000000003F5AA5000073
:084BF0000100000010000000AC
:04000005080001AD41
:00000001FF
