:020000040800F2
:10000000F01500204D0200087D2900084F2200084D
:1000100079290008F10500082532000800000000D9
:10002000000000000000000000000000E52B0008B8
:100030000506000800000000C52A0008B92C0008C9
:1000400067020008670200086702000867020008EC
:1000500067020008670200086702000867020008DC
:1000600067020008670200086702000867020008CC
:1000700067020008670200086702000867020008BC
:1000800067020008670200086702000867020008AC
:10009000670200086702000867020008670200089C
:1000A000670200086702000867020008670200088C
:1000B00067020008052E0008152E000867020008D8
:1000C000670200086702000867020008670200086C
:1000D000670200086702000867020008670200085C
:1000E000670200086702000867020008670200084C
:1000F000670200086702000867020008670200083C
:10010000670200086702000867020008670200082B
:10011000670200086702000867020008670200081B
:10012000670200086702000867020008670200080B
:1001300067020008670200086702000867020008FB
:10014000F50500086702000867020008670200085A
:1001500067020008670200086702000867020008DB
:1001600067020008670200086702000867020008CB
:10017000670200086702000867020008000000002C
:100180006702000867020008E5300008D93100085E
:10019000670200086702000867020008670200089B
:1001A00000000000000000006702000800F002F8F4
:1001B00000F03CF80AA090E8000C82448344AAF1C5
:1001C0000107DA4501D100F031F8AFF2090EBAE8C3
:1001D0000F0013F0010F18BFFB1A43F0010318477B
:1001E0000845000028450000103A24BF78C878C1AF
:1001F000FAD8520724BF30C830C144BF04680C602D
:10020000704700000023002400250026103A28BF74
:1002100078C1FBD8520728BF30C148BF0B60704778
:100220001FB504F03AFA1FBD10B510BD00F05AF921
:100230001146FFF7F5FF03F0EBFC00F078F903B48B
:10024000FFF7F2FF03BC00F07BF90000094880478C
:1002500009480047FEE7FEE7FEE7FEE7FEE7FEE7A8
:10026000FEE7FEE7FEE7FEE704480549054A064BC0
:1002700070470000A12D0008AD010008F00F00201C
:10028000F0150020F0110020F011002053EA020CBC
:1002900000F069802DE9F04B4FF00006002B1FBFE6
:1002A000B3FA83F503FA05F424FA05F65E4012BFAB
:1002B0001643B2FA82F502FA05F4C5F120051EBF15
:1002C00022FA05FC44EA0C04203556EA044C4FEAB5
:1002D000144418BF641C4FF000084FF0000990420E
:1002E00071EB030C39D3002919BFB1FA81F701FA78
:1002F00007F6B0FA80F700FA07F6C7F120071EBF2D
:1003000020FA07FC46EA0C062037B6FBF4FCA7EB04
:100310000507103F07F01F0BCBF120060CFA0BFB73
:100320002CFA06F644BFB3460026202FA4BF5E4633
:100330004FF0000B5BEA060C08BF4FF0010B19EB06
:100340000B09ABFB027C48EB0608C01B06FB02CC8A
:100350000BFB03CC71EB0C01C1E70B460246414697
:100360004846BDE8F08B13B54FF000004FF0000198
:10037000AFF30080BDE81C407047032A40F2308094
:1003800010F0030C00F0158011F8013BBCF1020FD6
:10039000624498BF11F801CB00F8013B38BF11F857
:1003A000013BA2F1040298BF00F801CB38BF00F86E
:1003B000013B11F0030300F05A80083AC0F00880B6
:1003C00051F8043B083A51F804CBA0E80810F5E7CF
:1003D000121D5CBF51F8043B40F8043BAFF30080B2
:1003E000D20724BF11F8013B11F801CB48BF11F827
:1003F000012B24BF00F8013B00F801CB48BF00F8F7
:10040000012B70474FF0000200B513469446964604
:10041000203922BFA0E80C50A0E80C50B1F1200117
:10042000BFF4F7AF090728BFA0E80C5048BF0CC0C5
:100430005DF804EB890028BF40F8042B08BF704723
:1004400048BF20F8022B11F0804F18BF00F8012B95
:10045000704770477047704710B500F03BF8006870
:1004600010BD10B5044600F035F8046010BD10B59D
:10047000203AC0F00B80B1E81850203AA0E818509C
:10048000B1E81850A0E81850BFF4F5AF5FEA027C5D
:1004900024BFB1E81850A0E8185044BF18C918C0CC
:1004A000BDE810405FEA827C24BF51F8043B40F86D
:1004B000043B08BF7047D20728BF31F8023B48BF52
:1004C00011F8012B28BF20F8023B48BF00F8012B90
:1004D00070470000004870478C0F002000487047AC
:1004E0008C0F00207546FFF7F9FFAE460500694600
:1004F000534620F00700854618B020B5FFF7B4FE3C
:10050000BDE820404FF000064FF000074FF0000814
:100510004FF0000B21F00701AC46ACE8C009ACE895
:10052000C009ACE8C009ACE8C0098D46704710B5F9
:100530000446AFF300802046BDE81040FFF77FBEC1
:1005400001491820ABBEFEE72600020070470000FC
:10055000B0EE401AF0EE601A31EE612AF0EE420A77
:100560001E4890ED002A32EE202A80ED002A90ED00
:10057000002ADFED1B2AB4EEE22AF1EE10FA03DDC9
:100580009FED172A80ED002A144890ED002ADFED38
:10059000152AB4EEE22AF1EE10FA03D29FED112AE9
:1005A00080ED002A104890ED002A22EE202AD0ED9E
:1005B000012A0A4890ED003A02EE832A0A48D0ED5B
:1005C000022A0A4890ED003A30EEC33AB0EE420AF1
:1005D00002EE830AC0ED000A70470000A40000206C
:1005E00000401C4600401CC6500E0020A000002009
:1005F00000BFFEE710B5024800F095FA10BD0000FC
:10060000B00E00207047000010B52DED028B394868
:10061000006810B1012869D109E0374890ED080A57
:10062000364880ED000A0120324908605FE0324818
:1006300090ED080A3148D0ED000A30EE600A9FEDD7
:10064000301AC0EE010A9FED2F0A20EE800AB0EEAC
:10065000408A02F0E9FF2C48D0ED090A9FED2B1AE1
:1006600060EE810A2A4890ED001A20EE811A29488E
:10067000D0ED000A41EE000AC0ED000A1E4890EDE0
:10068000080A1E48D0ED000A30EE600ADFED1C0AB1
:1006900080EE201A9FED200A21EE000AB0EE408A7B
:1006A00002F01AFF1848D0ED090A9FED181A60EE03
:1006B000810A174890ED001A20EE811A1748D0EDF4
:1006C000000A41EE000AC0ED000A90ED000AF0EECB
:1006D000080AB4EEE00AF1EE10FA06DB0020054944
:1006E00008600120BDEC028B10BD00E000BF00BF20
:1006F0000020F7E79C000020E000002080000020A0
:1007000000003443560E4940200E00206F12833AF9
:100710008400002088000020D00F49408C00002079
:10072000024692F82000012803D092F82000022807
:1007300006D110684069084313685861002070476B
:10074000506A40F4802050620120F8E770B50446FA
:100750000D46A86800B900E000BF94F82000012809
:1007600003D094F8200002287FD12068806800F030
:10077000806050B92068806800F0006028B9206867
:10078000806800F08050002869D020688068C0F33D
:100790000161012088401860A86850B92E88E86877
:1007A00040EA4656206800F5C07000EB0110066074
:1007B0000BE0D5E9016040EAC600EE6830432668E8
:1007C00006F5C07606EB011630602E69206800F54C
:1007D000C07000EB01104660287D01280DD1206813
:1007E00000F5C07000EB0110406840F4807620688E
:1007F00000F5C07000EB01104660D07900069679D4
:1008000040EA0640567940EA0626107906432068F9
:1008100000F5C07000EB0110C660D0780006967835
:1008200040EA0640567840EA0620167830432668AB
:1008300006F5C07606EB0116B060206800F5C070C2
:1008400000EB0110006840F00106206800F5C07060
:1008500000EB01100660002070BD06E0FFE7606A53
:1008600040F4001060620120F6E7606A40F48020E6
:1008700060620120F0E7000070B504460A460023DC
:10088000216894F82000012803D094F82000022861
:100890007CD1414901F50071086840F00100086011
:1008A000086820F47C5008600868556A40EA052012
:1008B0000860157D012000FA05F3C8699843C861F6
:1008C000A1F50071D069C8B9D1F80C029843C1F8FC
:1008D0000C02908880B2958940EA054501F51070B8
:1008E000566940F83650108880B2158940EA0545AF
:1008F00001F51070566900EBC6004560D06901280B
:1009000019D1D1F80C021843C1F80C02908880B2BA
:10091000158840EA054501F51070566940F83650D3
:10092000908980B2158940EA054501F51070566935
:1009300000EBC6004560906928B9D1F804029843DD
:10094000C1F8040204E0D1F804021843C1F804021B
:10095000106928B9D1F814029843C1F8140204E0D0
:10096000D1F814021843C1F81402106A012804D106
:10097000D1F81C021843C1F81C02D1F8000220F083
:100980000100C1F80002002070BDFFE7606A40F47A
:10099000802060620120F7E700640040704730B5B6
:1009A000044694F82000012803D094F8200002287F
:1009B0007DD151B92068C06800F0030090B9606A29
:1009C00040F400106062012030BD01290AD1206886
:1009D000006900F0030028B9606A40F4001060620A
:1009E0000120F1E7206800F5D87000EB01100068E5
:1009F00000F004009060906840B9206800F5D8705D
:100A000000EB01100068400D106007E0206800F561
:100A1000D87000EB01100068C0085060206800F535
:100A2000D87000EB0110006800F002004008D060B0
:100A3000206800F5D87000EB0110406800F00F004E
:100A40001061206800F5D87000EB0110406800F4D8
:100A50007F40000A9061206800F5D87000EB01101B
:100A60004068000C5061206800F5D87000EB011060
:100A700080681870206800F5D87000EB011080685D
:100A800000F47F40000A5870206800F5D87000EB31
:100A90000110806800F47F00000C9870206800F559
:100AA000D87000EB01108068000ED87000E034E0D0
:100AB000206800F5D87000EB0110C068187120683C
:100AC00000F5D87000EB0110C06800F47F40000A08
:100AD0005871206800F5D87000EB0110C06800F470
:100AE0007F00000C9871206800F5D87000EB0110B1
:100AF000C068000ED87131B92068C06840F020008D
:100B00002568E86007E0012905D12068006940F008
:100B1000200025682861002056E7606A40F48020A4
:100B20006062012050E72DE9F05F0446002520684F
:100B300046692068D0F80490206887682068D0F85B
:100B40000CA02068D0F810B02068D0F8188006F00B
:100B50000100002855D007F00100C0B10120216834
:100B6000886007F0020018B1204600F0ABFA0EE0F2
:100B700007F0040010B145F4006508E007F0080034
:100B800010B145F4805502E0204600F09AFA07F4CF
:100B90008070C8B14FF480702168886007F40070DD
:100BA00018B1204600F090FA0EE007F4806010B112
:100BB00045F4005508E007F4006010B145F48045A5
:100BC00002E0204600F07FFA07F48030C8B14FF40D
:100BD00080302168886007F4003018B1204600F0AA
:100BE00075FA0EE007F4802010B145F4004508E0E6
:100BF00007F4002010B145F4803502E0204600F0F3
:100C000064FA06F0080038B10AF0100020B145F48B
:100C1000007510202168C86006F0040040B10AF099
:100C2000080028B108202168C860204600F0A4F917
:100C300006F0020038B12068C06800F0030010B16F
:100C4000204600F09BF906F0400038B10BF0100090
:100C500020B145F4806510202168086106F020006D
:100C600040B10BF0080028B1082021680861204637
:100C700000F0F4F906F0100038B12068006900F0C7
:100C8000030010B1204600F0EAF906F4003040B14C
:100C900009F0100028B1102021684860204600F0BB
:100CA000DFF906F4803040B109F0080028B10820CF
:100CB00021684860204600F00AFA06F4004088B334
:100CC00009F0040078B306F4807020B108F0010048
:100CD00008B145F0010506F4007020B108F00200EB
:100CE00008B145F0020506F4806020B108F0040068
:100CF00008B145F0040506F40060A0B108F07000EA
:100D000088B108F07000402817D006DC10280BD0FE
:100D100020280CD0302819D10CE0502810D06028A1
:100D200014D110E01DE019E045F008050FE045F092
:100D300010050CE045F0200509E045F0400506E00F
:100D400045F0800503E045F4807500E000BF00BF7A
:100D50002068806920F07000216888610420216883
:100D600048602DB1606A284360622046FFF716FE96
:100D7000BDE8F09F70B5044600250CB9012070BD98
:100D800094F8200010B9204600F0B0F82068006800
:100D900020F002002168086000F0C2FA05460DE06C
:100DA00000F0BEFA401B0A2808D9606A40F40030FF
:100DB0006062052084F820000120E0E72068406898
:100DC00000F002000028EBD12068006840F001002C
:100DD0002168086000F0A4FA05460DE000F0A0FAD2
:100DE000401B0A2808D9606A40F400306062052080
:100DF00084F820000120C2E72068406800F001006C
:100E00000028EBD0207E012806D12068006840F041
:100E100080002168086005E02068006820F08000FC
:100E200021680860607E012806D12068006840F0D3
:100E300040002168086005E02068006820F040005C
:100E400021680860A07E012806D12068006840F073
:100E500020002168086005E02068006820F020007C
:100E600021680860E07E012806D12068006820F033
:100E700010002168086005E02068006840F010005C
:100E800021680860207F012806D12068006840F0B2
:100E900008002168086005E02068006820F008006C
:100EA00021680860607F012806D12068006840F052
:100EB00004002168086005E02068006820F0040054
:100EC00021680860D4E90201084321690843616987
:100ED00008436168491E08432168C86100206062B8
:100EE000012084F82000002049E7000010B586B0FA
:100EF00004461E492068884235D100BF002000907A
:100F00001B48006840F08060194908600846006886
:100F100000F08060009000BF00BF00BF0020009084
:100F20000846006840F0007008600846006800F05D
:100F30000070009000BF00BF4FF4405001900220AD
:100F4000029000200390032004900920059001A93D
:100F5000084800F0D1F801221146402000F06EFA56
:100F6000402000F05EFA06B010BD000000680040AE
:100F700040380240000402407047000010B58AB0BB
:100F800004463448844263D101AB03AA0021FFF731
:100F900006FD039800F01F00092857D1102103987F
:100FA000B1EB501F26D12C48806A401C2A49886228
:100FB000032190FBF1F201FB1200274988629DEDAD
:100FC000020A0846816A083000EB810080ED000AC1
:100FD000214890ED020AD0ED030A30EE200AD0ED50
:100FE000040A30EE200AF0EE080A80EE201A80EDA6
:100FF000081A2AE018210398B1EB501F25D1164892
:10100000C06A401C1449C862032190FBF1F201FB45
:1010100012001149C8629DED020A0846C16A1430E7
:1010200000EB810080ED000A0B4890ED050AD0ED41
:10103000060A30EE200AD0ED070A30EE200AF0EE64
:10104000080A80EE201A80ED091A00E000BF00BFF8
:101050000AB010BDB00E0020200E0020704770476F
:10106000704770B50446002594F82000012822D16D
:10107000022084F820002068006820F00100216828
:10108000086000F04DF905460DE000F049F9401BFD
:101090000A2808D9606A40F400306062052084F8AC
:1010A0002000012070BD2068406800F00100002889
:1010B000EBD16062F6E7606A40F4002060620120D4
:1010C000F0E7704770477047704770477047704748
:1010D00070B5044600F024F906462546681C10B198
:1010E00004480078054400BF00F01AF9801BA842AC
:1010F000FAD370BDD8000020F8B502460B46002593
:10110000002400200021E6E0012606FA01F51E6811
:1011100006EA0504AC4273D15E68022E02D05E6816
:10112000122E13D1CF0802F1200656F827004E07E1
:10113000F70E0F26BE40B0434F07FF0E1E69BE409C
:101140003043CF0802F1200646F8270010684F0010
:101150000326BE40B0431E7906F003064F00BE4092
:10116000304310605E68012E08D05E68022E05D004
:101170005E68112E02D05E68122E13D190684F0067
:101180000326BE40B0434F00DE68BE40304390604F
:10119000506801268E40B0431E79C6F300168E407B
:1011A00030435060D0684F000326BE40B0434F002C
:1011B0009E68BE403043D0605E6806F08056B6F14F
:1011C000805FA8D100BF00260096454E366846F4E1
:1011D0008046434F3E603E46366806F480460096A1
:1011E00000BF00BF3F4E8F0856F827008E07370F0D
:1011F0000F26BE40B0433C4EB24202D100262EE044
:1012000068E03A4EB24201D1012628E0384EB2429F
:1012100001D1022623E0374EB24201D103261EE05F
:10122000354EB24201D1042619E0344EB24201D10A
:10123000052614E0324EB24201D106260FE0314EAF
:10124000B24201D107260AE02F4EB24201D1082650
:1012500005E02E4EB24201D1092600E00A268F0792
:101260003F0FBE4030431F4E8F0846F82700284EE0
:101270003068A0435E6806F48036B6F5803F00D142
:101280002043234E3060361D3068A0435E6806F46C
:101290000036B6F5003F00D120431D4E361D3060AC
:1012A000361D3068A0435E6806F48016B6F5801FD0
:1012B00000D12043164E08363060361D3068A043FA
:1012C0005E6806F40016B6F5001F00D12043104EEC
:1012D0000C363060491C1029FFF416AFF8BD000031
:1012E0004438024008380140000002400004024037
:1012F00000080240000C02400010024000140240AE
:1013000000180240001C024000200240002402405D
:10131000003C01400AB1816101E00B048361704728
:101320000148006870470000D000002003480068B2
:10133000034909780844014908607047D00000203B
:10134000D800002010B50D48006840F400700B492B
:1013500008600846006840F480600860084600683D
:1013600040F480700860032000F0A6F8002000F030
:1013700007F800F02BF8002010BD0000003C0240F0
:1013800070B504460E4800784FF47A71B1FBF0F066
:101390000C490968B1FBF0F5284600F0F8FB08B1EC
:1013A000012070BD102C07D200222146501E00F0F3
:1013B00045F80548046001E00120F2E70020F0E76D
:1013C000D8000020DC000020D400002010B503204D
:1013D00000F072F8002211466FF00B0000F02EF8BA
:1013E000002211466FF00A0000F028F80022114692
:1013F0006FF0090000F022F800221146501F00F0A3
:101400001DF800221146101F00F018F800221146A6
:10141000901E00F013F800221146501E00F00EF846
:1014200010BD00BF00F01F0201219140420992004F
:1014300002F1E022C2F8001100BF70472DE9F05F11
:1014400080460D461646002701F0CCFA074639467D
:101450002A46334601F00700C0F1070ABAF1040F2B
:1014600002D94FF0040A01E0C0F1070AD14600F1A9
:10147000040ABAF1070F02D24FF0000A01E0A0F10E
:10148000030AD4464FF0010A0AFA09FAAAF1010A3E
:101490000AEA020A0AFA0CFA4FF0010B0BFA0CFBEB
:1014A000ABF1010B0BEA030B4AEA0B042146404661
:1014B00001F0B4FABDE8F09F00BF00F00702064B50
:1014C00019684FF6FF031940044B0B4343EA02210E
:1014D000014B196000BF70470CED00E00000FA05F9
:1014E00070B504460D460CB9012070BD584800681F
:1014F00000F00F00A84209D255490D700846006857
:1015000000F00F00A84201D00120EEE7207800F0A3
:10151000020002281DD1207800F00400042805D123
:101520004C48006840F4E0504A490860207800F0D8
:101530000800082805D14748006840F46040454944
:1015400008604448006820F0F000A1680843414961
:101550000860207800F00100A8B36068012807D176
:101560003C4808380068C0F34040B8B90120BCE7E7
:101570006068022802D06068032807D1354808381F
:101580000068C0F3406048B90120AEE73148083830
:101590000068C0F3400008B90120A6E72D480068A4
:1015A00020F00300616808432A490860FFF7B8FE8D
:1015B000064609E0FFF7B4FE801B41F288318842FD
:1015C00002D9032091E707E02248006800F00C00F0
:1015D0006168B0EB810FEDD11D48006800F00F008D
:1015E000A84209D91A490D700846006800F00F009A
:1015F000A84201D0012078E7207800F004000428F8
:1016000007D11448006820F4E050E168084311490C
:101610000860207800F00800082808D10D4800680C
:1016200020F46040216940EAC1000A49086000F0E6
:101630001DF808490968C1F30311074A515CC84005
:10164000064908600020FFF79BFE00204DE70000E0
:10165000003C024008380240B0460008DC00002090
:101660000148006870470000DC0000202DE9F047C9
:10167000002400250026A1462548006800F00C0043
:1016800020B1042805D008283AD105E0DFF884907D
:1016900039E0DFF8849036E01D48001F006800F054
:1016A0003F041B48001F006800F4800078B11A480E
:1016B0001749091F0968C1F38811A0FB0170014691
:1016C000224600233846FEF7E1FD05460EE01148AC
:1016D0000F49091F0968C1F38811A0FB0170014679
:1016E000224600233846FEF7D1FD05460848001F74
:1016F0000068C0F30140401C4600B5FBF6F902E06B
:10170000DFF8109000BF00BF4846BDE8F08700003A
:10171000083802400024F40040787D01F8B5044602
:101720000CB90120F8BD207800F00100002874D029
:10173000F948006800F00C0004280DD0F648006855
:1017400000F00C00082813D1F348001F006800F4D3
:101750008000B0F5800F0BD1EF4808380068C0F367
:101760004040002859D06068002856D10120D9E7B0
:1017700000BF6068B0F5803F08D1E74808380068CE
:1017800040F48030E449083908601EE06068B0F534
:10179000A02F0DD1E0480838006840F48020DE49D1
:1017A000083908600846006840F4803008600CE0A2
:1017B000D9480838006820F48030D74908390860D3
:1017C0000846006820F48020086000BF606890B17F
:1017D000FFF7A6FD054606E0FFF7A2FD401B6428C3
:1017E00001D903209EE7CC4808380068C0F3404088
:1017F0000028F1D011E0FFF793FD054606E0FFF762
:101800008FFD401B642801D903208BE7C2480838AC
:101810000068C0F340400028F1D1207800F00200B9
:1018200002285FD1BC48006800F00C0058B1BA48EB
:10183000006800F00C0008281CD1B748001F0068A1
:1018400000F48000B0B9B44808380068C0F3400024
:1018500020B1E068012801D0012063E7AE480838D4
:10186000006820F0F800216940EAC100AA4908395F
:10187000086037E0E06800B30120A8490860FFF77E
:101880004FFD054606E0FFF74BFD401B022801D93E
:10189000032047E7A04808380068C0F3400000284C
:1018A000F1D09D480838006820F0F800216940EA2E
:1018B000C10099490839086014E000209749086080
:1018C000FFF72EFD054606E0FFF72AFD401B022824
:1018D00001D9032026E7904808380068C0F340008B
:1018E0000028F1D1207800F0080008282CD1606988
:1018F000A8B101208A490860FFF712FD054606E0FD
:10190000FFF70EFD401B022801D903200AE7824899
:101910006C300068C0F340000028F1D014E00020D3
:101920007F490860FFF7FCFC054606E0FFF7F8FC7E
:10193000401B022801D90320F4E677486C30006888
:10194000C0F340000028F1D1207800F00400042802
:1019500070D1002670483830006800F0805090B98F
:1019600000BF002000906C483830006840F0805084
:101970006949383108600846006800F080500090DE
:1019800000BF00BF01266748006800F48070B0B94E
:101990006448006840F4807062490860FFF7C0FC4A
:1019A000054606E0FFF7BCFC401B022801D90320D6
:1019B000B8E65C48006800F480700028F2D000BFF0
:1019C000A068012808D154486830006840F0010040
:1019D0005149683108601DE0A06805280DD14E48C6
:1019E0006830006840F004004B49683108600846E0
:1019F000006840F0010008600CE04748683000686B
:101A000020F001004449683108600846006820F071
:101A10000400086000BFA068A8B1FFF781FC05467C
:101A200009E0FFF77DFC401B41F28831884202D972
:101A3000032077E626E0384868300068C0F34000AD
:101A40000028EED013E0FFF76BFC054608E0FFF737
:101A500067FC401B41F28831884201D9032061E6CE
:101A60002D4868300068C0F340000028EFD1012EF7
:101A700007D129483830006820F080502649383195
:101A8000086000BFA069B8B32348006800F00C00EC
:101A900008285ED0A069022846D100201F490866A8
:101AA000FFF73EFC054606E0FFF73AFC401B022824
:101AB00001D9032036E6184808380068C0F34060B2
:101AC0000028F1D1D4E907010843616A40EA811195
:101AD0000122A06AC2EB500041EA00412C20005DC7
:101AE00041EA00600C49091F086001200B490866A3
:101AF000FFF716FC054607E02DE0FFF711FC401B41
:101B0000022801D903200DE6034808380068C0F315
:101B100040600028F1D01EE0083802400000474233
:101B2000800E47420070004000200C490866FFF715
:101B3000F7FB054606E0FFF7F3FB401B022801D93F
:101B40000320EFE506480068C0F340600028F2D1AA
:101B500001E00120E6E50020E4E500000000474246
:101B600000380240042808D14FF0E021096941F013
:101B700004014FF0E022116107E04FF0E021096914
:101B800021F004014FF0E02211617047704770B5F9
:101B900004462546681EB0F1807F01D301200FE086
:101BA000681E4FF0E02148610F214FF0FF3000F038
:101BB00035FF00204FF0E0218861072008610020F8
:101BC00070BD10B5FFF7E2FF10BD704770470246C9
:101BD00000BF92F83800012801D10220704701208F
:101BE00082F8380000BF022082F83900106840688F
:101BF00020F0700013685860106840680B68184344
:101C0000136858601068806820F08000136898603E
:101C1000106880684B68184313689860012082F848
:101C2000390000BF002082F8380000BF00BFD5E7B0
:101C300010B504460CB9012010BD94F8390028B93C
:101C4000002084F83800204600F00CF8022084F8C8
:101C50003900211D206801F0E5F8012084F83900E1
:101C60000020E9E738B504461C492068884218D1AD
:101C700000BF002000901A48006840F00200184998
:101C800008600846006800F00200009000BF00BF36
:101C9000032201211D20FFF7D1FB1D20FFF7C1FB0F
:101CA0001BE010492068884217D100BF0020009037
:101CB0000B48006840F004000949086008460068C5
:101CC00000F00400009000BF00BF042201211E208C
:101CD000FFF7B4FB1E20FFF7A4FB38BD0004004053
:101CE000403802400008004001460868C06840F0E3
:101CF00001000A68D0600868006840F001000A68C6
:101D0000106000207047704710B5044620680069D5
:101D1000C0F34000D8B12068C068C0F34000B0B143
:101D20006FF0020021680861012020762068806938
:101D300000F0030018B12046FFF7E5FF05E020465C
:101D400000F0C6F8204600F07BF9002020762068DD
:101D50000069C0F38000D8B12068C068C0F380007B
:101D6000B0B16FF00400216808610220207620687D
:101D7000806900F4407018B12046FFF7C4FF05E009
:101D8000204600F0A5F8204600F05AF90020207601
:101D900020680069C0F3C000D8B12068C068C0F3F3
:101DA000C000B0B16FF008002168086104202076FF
:101DB0002068C06900F0030018B12046FFF7A3FFB8
:101DC00005E0204600F084F8204600F039F90020B4
:101DD000207620680069C0F30010D8B12068C06880
:101DE000C0F30010B0B16FF0100021680861082046
:101DF00020762068C06900F4407018B12046FFF7D3
:101E000082FF05E0204600F063F8204600F018F954
:101E1000002020762068006900F0010058B1206899
:101E2000C06800F0010030B16FF001002168086166
:101E3000204600F02DF920680069C0F3C01058B1A9
:101E40002068C068C0F3C01030B16FF08000216816
:101E500008612046FFF7B9FE20680069C0F38010D2
:101E600058B12068C068C0F3801030B16FF04000F6
:101E700021680861204600F0E9F920680069C0F394
:101E8000401058B12068C068C0F3401030B16FF006
:101E90002000216808612046FFF798FE10BD000071
:101EA00010B586B004462068B0F1804F0CD10420F4
:101EB00001900220029000200390049001200590E0
:101EC00001A90248FFF718F906B010BD0000024052
:101ED000704770B504460D46164600BF94F83800AA
:101EE000012801D1022070BD012084F8380000BF14
:101EF000022084F8390036B1042E1BD0082E31D0D0
:101F00000C2E5ED145E02946206801F00BF82068D0
:101F1000806940F00800216888612068806920F0AD
:101F20000400216888612068806929690843216864
:101F3000886147E02946206801F02CF82068806914
:101F400040F40060216888612068806920F4806026
:101F50002168886120688069296940EA0120216838
:101F600088612FE02946206801F050F82068C06998
:101F700040F008002168C8612068C06920F00400B2
:101F80002168C8612068C069296908432168C8615F
:101F900018E02946206801F075F82068C06940F40F
:101FA00000602168C8612068C06920F480602168F1
:101FB000C8612068C069296940EA01202168C861B8
:101FC00000E000BF00BF012084F8390000BF0020FE
:101FD00084F8380000BF00BF85E710B504460CB98F
:101FE000012010BD94F8390028B9002084F8380089
:101FF000204600F00DF8022084F83900211D2068E9
:1020000000F010FF012084F839000020E9E700000B
:1020100008B50168B1F1804F0FD100BF00210091D8
:102020000649096841F00101044A11601146096836
:1020300001F00101009100BF00BF08BD403802401F
:102040007047000030B504460D460122294620683D
:1020500000F05AFF0C492068884203D00B492068E1
:10206000884201D1012000E0002028B12068406CA6
:1020700040F40040216848642068006840F0010096
:1020800021680860002030BD0000014000040140CC
:1020900010B504465B4884427DD101F057FD5A4893
:1020A0000068401C5849086058480068401C57495F
:1020B000086057480068401C55490860554800684A
:1020C000401C5449086054480068401C524908604C
:1020D00050480068052829DB5048B0F9000000EEA0
:1020E000100AB8EEC00A00F07FFD00EE100AB8EE4C
:1020F000C00A4B4880ED000ABDEEC00A494880ED99
:10210000000A05230122484801684648006800F09B
:10211000B5FD444908600846006802F0D3F841481C
:1021200000684149086000203A4908603A48006860
:10213000642824DB3D48006801281DD101F034FEED
:10214000FEF762FA012817D139480068401C384967
:10215000086001F0EFFB3648006805280CDB002022
:1021600032490860324908609FED320A324880EDFA
:10217000000A324880ED000A002027490860234801
:102180000068012810DB2E4890ED140AF7EE000AD3
:10219000B4EE600A00E033E0F1EE10FA04D101F091
:1021A000EDFB0020194908601748006801281EDB74
:1021B00024480068401C234908602348D0ED000AE9
:1021C000B0EE600A002001F0B7FD00200E49086063
:1021D0001C48006814280AD100201A4908601A48CF
:1021E000D0ED010AB0EE600A012001F0A5FD08481B
:1021F0000068962804DB02F0C3F800200449086058
:1022000010BD0000500F0020540000205800002096
:10221000600000205C00002064000020C00000205E
:1022200074000020380000203C0000207C000020CA
:1022300068000020000000008C00002088000020C2
:10224000500E002050000020200E0020704700BFDC
:10225000FEE7000008B5054909680143034A11601B
:10226000114609680140009100BF08BD4038024096
:10227000F0B503460A4600240021106890FAA0F049
:10228000B0FA80F47FE00125A540106800EA05015E
:10229000002977D050681D6891FAA1F6B6FA86F643
:1022A00077000326BE40B54391FAA1F6B6FA86F64A
:1022B000760000FA06F635431D6000BF506801281D
:1022C00002D05068022814D190689D6891FAA1F656
:1022D000B6FA86F677000326BE40B54391FAA1F61A
:1022E000B6FA86F6760000FA06F635439D6000BF22
:1022F00000BF1069DD6891FAA1F6B6FA86F677009C
:102300000326BE40B54391FAA1F6B6FA86F67600EA
:1023100000FA06F63543DD6000BF5068022831D16F
:1023200091FAA1F0B0FA80F0082814D250691D6A21
:1023300091FAA1F6B6FA86F6B7000F26BE40B5436D
:1023400091FAA1F6B6FA86F6B60000FA06F635431B
:102350001D6200BF16E050695D6A0E0A96FAA6F685
:10236000B6FA86F6B7000F26BE40B5430E0A96FAB7
:10237000A6F6B6FA86F6B60000FA06F635435D62B2
:1023800000BF00BF641C1068E04000287FF47BAFF2
:102390005068012802D05068022809D1D568106819
:1023A0005E68864300FB05F73E435E6000BF00BFEA
:1023B0000120F0BD10B5044600F0BAFB2060206893
:1023C00000F082FB6060606800F08EFBA0606068D7
:1023D00000F09CFBE06010BD02480068C0F388106C
:1023E0007047000004380240016921F49041016106
:1023F000416921F02A0141617047C16841F40051EF
:10240000C1607047C16841F02001C16070470000A1
:102410002DE9FF4104460D4600270026204600F026
:1024200067F800284FD1E9686868084329690843BC
:10243000A9690843E16849F20C6291430843E060EE
:10244000A868216921F440510143216100BF6869F6
:10245000616921F440710143616100BF6846FFF783
:10246000A9FF1B48844201D1039E21E01948844200
:1024700001D1029E1CE01848844201D1029E17E05F
:102480001648844201D1039E12E01548844201D1CE
:10249000029E0DE01348844201D1029E08E01248DA
:1024A000844201D1029E03E01048844200D1029E82
:1024B0004EB1286838B10127314620462B68AA69F9
:1024C00000F01BF800BF384604B0BDE8F081000002
:1024D000001001400044004000480040001401404A
:1024E000004C00400050004000780040007C00405C
:1024F0000146C868C0F340307047F0B5B2F5004FF0
:102500004ED101EBC10404EB01145D00B4FBF5F402
:102510006425B4FBF5F4250101EBC10404EB0114BF
:102520005E00B4FBF6F401EBC10606EB01165F009A
:10253000B6FBF7F66427B6FBF7F606EBC60707EB24
:102540000616A4EB8604322606EBC4046426B4FB0C
:10255000F6F404F0F80405EB440501EBC10404EBC8
:1025600001145E00B4FBF6F401EBC10606EB0116A4
:102570005F00B6FBF7F66427B6FBF7F606EBC60777
:1025800007EB0616A4EB8604322606EBC404642689
:10259000B4FBF6F404F007042C44A4B284604CE0CD
:1025A00001EBC10404EB01149D00B4FBF5F401EB55
:1025B000C10505EB01159E00B5FBF6F56426B5FBDC
:1025C000F6F505EBC50606EB0515A4EB85043225EB
:1025D00005EB04146425B4FBF5F404F0F00401EBFE
:1025E000C10505EB01159E00B5FBF6F56426B5FBAC
:1025F000F6F504EB051501EBC10404EB01149E0094
:10260000B4FBF6F401EBC10606EB01169F00B6FB26
:10261000F7F66427B6FBF7F606EBC60707EB0616D8
:10262000A4EB8604322606EB04146426B4FBF6F40D
:1026300004F00F042C44A4B28460F0BD10B50E4821
:102640000E4908600620486000210C488160C16086
:102650004FF430210161002141610176417681769C
:10266000C17601774177FEF785FB18B1452104A0BB
:1026700000F01CFF10BD000000680040B00E0020FC
:102680002E2E2F5372632F63616E2E6300000000A5
:1026900000B587B000BF002001903F48006840F0BF
:1026A00010003D4908600846006800F010000190E5
:1026B00000BF00BF00BF002001900846006840F046
:1026C000400008600846006800F04000019000BF2C
:1026D00000BF00BF002001900846006840F00100E4
:1026E00008600846006800F00100019000BF00BFCC
:1026F00000BF002001900846006840F0800008609C
:102700000846006800F08000019000BF00BF00BFD5
:10271000002001900846006840F02000086008464C
:10272000006800F02000019000BF00BF00BF002043
:1027300001900846006840F0020008600846006802
:1027400000F00200019000BF00BF002244F24001EF
:102750001248FEF7DFFD00224FF400611048FEF73B
:10276000D9FD44F240000290012003900020049023
:10277000059002A90948FEF7BFFC4FF400600290E3
:102780000120039000200490059002A90448FEF760
:10279000B3FC07B000BD0000303802400014024016
:1027A0000010024000B589B04FF080401A4908601F
:1027B0005320486000211848816044F61F61C160C1
:1027C00000210161FFF709FC18B1E92113A000F015
:1027D0006DFE00200790089007A90F48FFF7F7F952
:1027E00018B1F0210DA000F061FE602000900020E3
:1027F000019002900490082269460748FFF769FBA0
:1028000020B140F2031105A000F050FE0248FFF78E
:1028100047FB09B000BD0000D80E00202E2E5C53EF
:1028200072635C74696D2E630000000010B50A4885
:102830000A49086040F2473048600021074881603B
:10284000C721C16000210161FFF7F2F918B15E21D3
:1028500003A000F02BFE10BD00040040500F00202C
:102860002E2E5C5372635C74696D2E630000000051
:1028700030B58DB04FF08040FFF7ECFC4FF4C070E6
:10288000009002200190032002900020039001207C
:1028900004900820059069461448FFF7E9FC00F011
:1028A00099F805460222114600F074F804462146C4
:1028B000522000F09FF8522000F061F84FF4E13010
:1028C000069000200790089009900C200A900020A4
:1028D0000B900C9006A90648FFF79AFD0448FFF7F5
:1028E00083FD0348FFF789FD0DB030BD00100240A5
:1028F0000078004030B58DB04FF00040FFF7AAFCE3
:1029000003200090022001900320029000200390F9
:10291000012004900820059069461548FFF7A8FC9F
:1029200000F058F805460122114600F033F804463D
:102930002146532000F05EF8532000F020F84FF4B9
:10294000E120069000200790089009900C200A9042
:1029500000200B900C9006A90648FFF759FD05488A
:10296000FFF742FD0348FFF748FD0DB030BD000002
:1029700000100240007C004000BFFEE7704700F0FE
:102980001F02012191404209920002F1E022C2F8A7
:1029900000117047F0B503460C4603F00701C1F182
:1029A0000700042801D9042001E0C1F10700064610
:1029B000081D072801D2002000E0C81E054601209E
:1029C000B040401E2040A8400127AF407F1E174066
:1029D0003843F0BD02480068C0F302207047000091
:1029E0000CED00E002480068C0F3022070470000D0
:1029F0000CED00E010B5002807DA0A07140E054AAE
:102A000000F00F031B1FD45403E00A07130E024A01
:102A1000135410BD18ED00E000E400E010B50028EC
:102A200007DA0A07140E054A00F00F031B1FD454DF
:102A300003E00A07130E024A135410BD18ED00E01C
:102A400000E400E031B1042911D008291CD00C2980
:102A500034D126E09FED1A1AF7EE000A51EE000A73
:102A6000FCEEE00A10EE902A03685A6326E09FED20
:102A7000141AF7EE000A51EE000AFCEEE00A10EE1E
:102A8000902A03689A6319E09FED0D1AF7EE000A89
:102A900051EE000AFCEEE00A10EE902A0368DA63B9
:102AA0000CE09FED071AF7EE000A51EE000AFCEE6B
:102AB000E00A10EE902A03681A6400BF00BF704756
:102AC00000401C4670470000014600BF04480068F3
:102AD00000F0F0000009034A125C21FA02F070478E
:102AE00008380240B0460008014600BF05480068AB
:102AF00000F4E050044A02EB9020027821FA02F040
:102B00007047000008380240C0460008014600BF78
:102B10000548006800F46040044A02EB5030027837
:102B200021FA02F07047000008380240C046000851
:102B300010B5002400BF0C48006800F00C0020B164
:102B4000042804D0082809D103E0084C08E0084C08
:102B500006E0082000F00EF8044601E0034C00BF38
:102B600000BF204610BD0000083802400024F400D9
:102B7000001BB7002DE9F041044600250026002780
:102B800000BF1548006800F4800006461EB1B6F587
:102B9000800F04D101E0114D03E0114D01E00F4D14
:102BA00000BF00BF082C14D100BF0B48006800F024
:102BB0003F00B5FBF0F8FFF70FFC08FB00F80648F4
:102BC000006800F44030012101EB10404000B8FBE8
:102BD000F0F73846BDE8F081043802400024F400E4
:102BE000001BB700704700001F49D1ED000A70EECE
:102BF000800AC1ED000AD1ED000A9FED1C1AF4EE27
:102C0000C10AF1EE10FA03DBDFED180AC1ED000A8C
:102C10001549D1ED000A9FED161AF4EEC10AF1EE46
:102C200010FA03D8DFED120AC1ED000A1149D1ED07
:102C3000150A60EE800A91ED161A0B49D1ED001AC3
:102C400041EE210A0B4991ED171A0B49D1ED001AFB
:102C500070EE611A41EE210AFDEEE00A10EE900AD4
:102C600081ED000A70470000B400002000004842D7
:102C7000000048C2500E0020B000002030B50446CD
:102C80000C480068401C0B4D28602846006898429C
:102C90000EDB00202860601A904201DB881830BDEE
:102CA000601A5542A84201DC881AF8E72046F6E788
:102CB0000846F4E7BC00002010B5FEF737FBFEF72E
:102CC00080FF10BD10B592B000BF002000902E48CC
:102CD000006840F080502C4908600846006800F009
:102CE0008050009000BF00BF00BF00200090274828
:102CF000006840F44040254908600846006800F438
:102D00004040009000BF00BF0120069000040790E3
:102D100002200C9041050D9106210E91A8210F91E2
:102D2000022110910421119106A8FEF7F7FC18B1B9
:102D3000AB2117A000F0BAFB0F20019002200290F7
:102D4000002003904FF4A05004904FF48050059061
:102D5000052101A8FEF7C4FB18B1B9210CA000F0B1
:102D6000A5FBFEF77DFC4FF47A71B0FBF1F4204631
:102D7000FEF70DFF0420FEF7F5FE00221146501E5F
:102D8000FEF75CFB12B010BD4038024000700040FE
:102D90002E2E2F5372632F6D61696E2E630000001B
:102DA0001448006840F47000124908601248006836
:102DB00040F001001049086000200F490831086008
:102DC0000D4800680D4908400B4908600C48091D72
:102DD0000860081F006820F48020091F0860002098
:102DE00005490C3108604FF00060024980390860E5
:102DF0007047000088ED00E000380240FFFFF6FE5B
:102E00001030002410B50248FEF77EFF10BD000010
:102E1000500F002010B50248FEF776FF10BD0000ED
:102E2000140F0020002202682C4B98420ED0B0F103
:102E3000804F0BD02A4B984208D02A4B984205D09D
:102E4000294B984202D0294B984201D1012300E03E
:102E500000231BB122F070024B681A431F4B9842AB
:102E600020D0B0F1804F1DD01D4B98421AD01D4B81
:102E7000984217D01C4B984214D01C4B984211D04A
:102E80001B4B98420ED01B4B98420BD01A4B9842CA
:102E900008D01A4B984205D0194B984202D0194BD2
:102EA000984201D1012300E000231BB122F44072BB
:102EB000CB681A4302608B68C3620B688362074B5E
:102EC000984202D0094B984201D1012300E000232F
:102ED0000BB10B690363012343617047000001409C
:102EE0000004004000080040000C004000040140C5
:102EF00000400140004401400048014000180040EB
:102F0000001C00400020004030B50023012404FADA
:102F100001F3046A9C430462046A02FA01F52C433B
:102F2000046230BD30B5002400220023056A25F07C
:102F300001050562026A4368846924F0700424F084
:102F400003040D682C4322F002028D682A430F4DC2
:102F5000A84202D00E4DA84201D1012500E0002573
:102F60006DB122F00802CD682A4322F0040223F456
:102F7000807323F400734D692B438D692B434360A9
:102F800084614D684563026230BD0000000001406D
:102F90000004014030B5002400220023056A25F01A
:102FA00010050562026A4368846924F4E04424F44D
:102FB00040740D6844EA052422F020028D6842EA3C
:102FC0000512104DA84202D00F4DA84201D1012593
:102FD00000E0002585B122F08002CD6842EA0512AA
:102FE00022F0400223F4806323F400634D6943EA36
:102FF00085038D6943EA8503436084614D68856379
:10300000026230BD000001400004014030B50024E0
:1030100000220023056A25F480750562026A436870
:10302000C46924F0700424F003040D682C4322F4D6
:1030300000728D6842EA0522104DA84202D0104D60
:10304000A84201D1012500E0002585B122F40062EB
:10305000CD6842EA052222F4806223F4805323F4EF
:1030600000534D6943EA05138D6943EA0513436034
:10307000C4614D68C563026230BD000000000140BC
:103080000004014030B5002200230024056A25F425
:1030900080550562036A4468C26922F4E04222F462
:1030A00040720D6842EA052223F400538D6843EA1A
:1030B00005330A4DA84202D0094DA84201D101258D
:1030C00000E0002525B124F480444D6944EA8514CC
:1030D0004460C2614D680564036230BD0000014078
:1030E0000004014000BF34480068C0F340100028CD
:1030F00061D000BF3048C068C0F3401000285AD0EB
:1031000000BF2D484068C0B22C49087008460178BD
:103110002B4802780078401C294B187029488154AC
:1031200018460078042802D1002019460870264865
:10313000007830B101280CD002281CD003282FD1F0
:1031400021E01E480078A52802D101201E49087000
:1031500027E01A48007818B902201B49087009E0D6
:1031600016480078012802D11849086002E00020C2
:103170001549087015E011480078154908700320BA
:10318000114908700DE00D4800781149097840EAAE
:10319000012000B20F49088000200B49087000E0B0
:1031A00000BF00BF00BF0448C06840F020000249D3
:1031B000C86000BF00BF704700780040C200002018
:1031C000C9000020C5000020C40000207C000020B1
:1031D000C3000020C000002010B500BF0F480068E9
:1031E000C0F34010C0B100BF0C48C068C0F340102D
:1031F00090B100BF09484068C0B20949087008464C
:10320000007800F021FF00BF0448C06840F02000B3
:103210000249C86000BF00BF10BD0000007C004034
:103220000000002000BFFEE7421A01EE102AB8EEAF
:10323000C11AF0EE410A1C4A92ED001A31EE201A32
:1032400082ED001A92ED001ADFED181AB4EEE11AC1
:10325000F1EE10FA03DD9FED151A82ED001A124A05
:1032600092ED001ADFED121AB4EEE11AF1EE10FA47
:1032700003D29FED0F1A82ED001A0E4A92ED061A44
:1032800061EE201AB2EE042A81EE821AD2ED071AFC
:10329000054A92ED002A61EE821A9FED072AC1EEDF
:1032A000822A31EE220A7047AC0000200000484319
:1032B000000048C3500E002000007A44F0EE401A8F
:1032C00071EEE02AB0EE622A1A48D0ED002A72EEC2
:1032D000822AC0ED002AD0ED002AB3EE0E3AF4EEB9
:1032E000C32AF1EE10FA03DDF3EE0E2AC0ED002A38
:1032F0001048D0ED002ABBEE0E3AF4EEC32AF1EEF0
:1033000010FA03D2FBEE0E2AC0ED002A0A48D0EDD7
:10331000032A62EE822A90ED043A0648D0ED003A84
:1033200043EE232A044890ED053AB0EE620A01EE1E
:10333000030A7047A8000020500E002070B52DED44
:10334000068B04460D464E48006800F08BFC0A28A8
:1033500002DCB7EE008A34E04948006800F082FCE5
:103360000A2808DD4648006800F07CFC322802DCB0
:10337000B2EE008A25E04248006800F073FC322873
:1033800008DD3F48006800F06DFC642802DCB3EE05
:10339000008A16E03A48006800F064FC642808DD02
:1033A0003748006800F05EFC962802DCB3EE048A21
:1033B00007E03348006800F055FC962801DDB3EEC5
:1033C000088A601B00EE100AF8EEC08A2D48C0ED96
:1033D000008A2D4890ED000A30EE280A80ED000AA0
:1033E000006801F0E9F841EC1A0B9FED280B53EC53
:1033F000102B01F0ABF804D29FED260A224880ED95
:10340000000A2148006801F0D7F841EC1A0B9FED43
:10341000220B53EC102B01F009F804D29FED200A87
:10342000194880ED000A1F48D0ED090AB2EE041ACF
:1034300080EE810A68EE880A20EE200AD0ED0A0AA2
:10344000114890ED001A01EE200A1648D0ED0B0A43
:103450000C4890ED001A1448D0ED001A31EE611AB4
:10346000B0EE409A00EE819A064890ED000A0E48B0
:1034700080ED000AB0EE490ABDEC068B70BD00007D
:103480003800002094000020900000207B14AE47FC
:10349000E17A843F0AD7233C7B14AE47E17A84BFAC
:1034A0000AD723BC500E00209800002000BFFEE782
:1034B0004100080218BF04200A0E18BF40F00100A6
:1034C0004FF07F4232EA010108BF40F002000128BC
:1034D00008BF05207047000010EE101A08B5444AD6
:1034E0006846B2EB410F28D94FF0E640B0EB410FF0
:1034F00094BF00204FF0FF3000900098002861DB5F
:1035000060EE000A10F0010F45D010F0020FDFED61
:10351000391A9FED391A00EEE11ADFED381A40EE44
:10352000811A21EEA01AF0EE400A40EE010A08BF0F
:10353000F1EE600AB0EE600A08BD314B21F00042A6
:1035400093423CD911F0004FDFED2E0A20EE201AF5
:10355000DFED2D0A19BF31EE601A71EE200A31EE4F
:10356000201A71EE600ABDEEE01A11EE100A9FED0E
:10357000271A00F0030000EEC10A9FED251A009003
:1035800000EEC10A9FED231A00EEC10A9FED221A38
:1035900000EEC10AB1E79FED211A9FED210A10F05C
:1035A000020F00EE810A9FED1F1A00EE801AB7EE9F
:1035B000000A00EE810A18BFB1EE400A08BD00F013
:1035C0000FF99AE710EE100A4000B0F17F4F3CBFB0
:1035D000B7EE000A08BD07D14FF00100FCF741FF2C
:1035E000BDE8084000F0ECB8BDE8084000F0E4B8E1
:1035F000B61F927E336D4C39DA82083CA0AA2ABEEF
:10360000490E494683F9223F0000004B0000C93FA4
:1036100000A0FD390020A2331A61342CB93AB2BAA5
:10362000CA9F2A3DDDFFFFBE00B510EE101A2DED3A
:10363000028B81B0524A6846B2EB410F2ED94FF04F
:10364000E640B0EB410F94BF00204FF0FF300090F8
:103650000098B0EE408A00286ADB10F0010F4BD0D2
:1036600068EE080A9FED471A9FED470A00EE810AAF
:103670009FED461A10F0020F00EE801AB7EE000A16
:1036800000EE810A02BF01B0BDEC028B00BD00BF9D
:1036900001B0B1EE400ABDEC028B00BD3C4B21F005
:1036A0000042934241D911F0004FDFED3A0A20EE7B
:1036B000201ADFED390A19BF31EE601A71EE200AC7
:1036C00031EE201A71EE600ABDEEE01A11EE100A1A
:1036D0009FED321A00F0030000EEC10A9FED301A90
:1036E000009000EEC10A9FED2F1A00EEC10A9FED77
:1036F0002E1A00EEC10AABE728EE080A9FED2B1A3E
:10370000DFED2B0A10F0020F40EE410A9FED291A5F
:1037100000EE201A61EE000AB0EE480A08EE200A18
:10372000B6D101B0BDEC028B00BD00F059F88FE7B7
:1037300018EE100A4000B0F17F4F0DD218EE100ABB
:10374000FFF7B6FE042808BF00F042F8B0EE480AC2
:1037500001B0BDEC028B00BD09D10120FCF781FE58
:1037600001B0BDEC028B5DF804EB00F029B801B0AC
:10377000B0EE480ABDEC028B5DF804EB00F01CB81B
:10378000B61F927EB93AB2BACA9F2A3DDDFFFFBE8C
:10379000490E494683F9223F0000004B0000C93F13
:1037A00000A0FD390020A2331A61342C336D4C394E
:1037B000DA82083CA0AA2ABE30EE000A7047000058
:1037C000DFED020A80EEA00A704700000000000052
:1037D0009FED020A20EE000A704700000000001072
:1037E0002DE9F0014FF07F42B2EB410F9FBF4FF048
:1037F000FF310160BDE8F00170474FF0004242EA3E
:103800000123C1F3C752783A551112F01F0C434CF3
:10381000CCF120067C44C1F3C752A2F178024FEAF2
:10382000621204EB820254F8254008BFD2E9015627
:1038300012D0556804FA0CF425FA06F73C43976851
:1038400005FA0CF527FA06F8D26807FA0CFCF240E4
:1038500045EA08054CEA0206A4FB034CA5FB03520B
:10386000A6FB03631D449D4234BF012600261319A5
:10387000334416B1934202D903E0934201D20122AC
:1038800000E00022624402F1200C9206DC0C42EAC5
:10389000443200EE102A5B03DFED210AF8EEC01A75
:1038A00000EE103A4FEA9C1C11F0004FB8EE400AAF
:1038B000C0F800C020EE201A00EE105ADFED190A01
:1038C000B8EE400A20EE200A71EE810A70EE800AFE
:1038D00010EE902A02F500626FF30B0200EE902AC0
:1038E00070EEE11A31EEC11ADFED101A30EE411A16
:1038F0009FED0D0A20EE800A01EE210A9FED0C1AC1
:1039000000EE810A04BFBDE8F0017047CCF18051A0
:103910000160BDE8F001B1EE400A7047B00E000052
:10392000000000360000802C22AAFD29DB0FC92FE1
:103930000000C92F0E490F4A1278885C0E49486072
:1039400000BF00BF0C48006800F040000028F9D01C
:1039500008480078401C074908700846007805218F
:1039600090FBF1F201FB1200024908707047000061
:10397000CA000020CF0000200078004000B5524867
:103980000068401C5049086050480068401C4F497E
:103990000860084600683C280FDB4D4991ED080A95
:1039A000BDEEC00A10EE100A0021FFF73DFC4948A9
:1039B00080ED000A002045490860434800680F2850
:1039C0001BDB4548D0ED031AB0EE611A4348D0ED39
:1039D000121A404890ED002A71EE821AF0EE610A48
:1039E0003D48D0ED061AB0EE610AFFF767FC3C488F
:1039F00080ED000A0020344908603748D0ED030A02
:103A0000B0EE600A3648D0ED000AFCF7A1FD35485B
:103A100080ED000A90ED000A2D4880ED000A90ED3F
:103A2000000ADFED310AB4EEE00AF1EE10FA04DD2F
:103A30009FED2D0A80ED000A0DE0254890ED000A6B
:103A4000DFED2A0AB4EEE00AF1EE10FA03D29FEDA0
:103A5000270A80ED000A26480078052820D01E4855
:103A600090ED060A1D48D0ED120A30EE600AF0EE25
:103A7000080AB4EEE00AF1EE10FA0EDC164890EDFA
:103A8000060A1648D0ED120A30EE600AF8EE080A6F
:103A9000B4EEE00AF1EE10FA02D2042014490870E4
:103AA0001348007838B112480078042803D0104831
:103AB0000078052806D19FED0F0A054880ED000A21
:103AC00080ED010A00BD0000480000204C000020ED
:103AD000200E002030000020E0000020500E0020CA
:103AE0002C0000203400002000005C4200005CC27A
:103AF0002800002000000000F0B503460C4618889E
:103B0000002113E0675C80EA072000250BE04600F7
:103B100000F4004CBCF1000F03D041F2210C86EA06
:103B20000C0630466D1C082DF1D3491C9142E9D397
:103B30001880F0BD10B50349034800F037FB0020A2
:103B400010BD0000E93D00080401002000B519483F
:103B5000006B1949C8611748406B88611548806B34
:103B60000862084690ED080AB5EEC00AF1EE10FAB8
:103B70000AD21048806B00EE100ADFED100A30EE1A
:103B8000200A084680ED080A0A4880690A49C86088
:103B90000848C06908610748006A48610846D0EDD6
:103BA000030AB0EE600A00F00FF8034880ED030A44
:103BB00000BD000010090020E00000200000B44318
:103BC00010B5FFF7B7FF10BDF0EE400A0D480078C2
:103BD000012805D100200B4908700B48C0ED000AF0
:103BE000094890ED001A70EEC11A90ED001A0748CE
:103BF00090ED002AB0EE410A02EE210A024880ED63
:103C0000000A70470C00002008000020040000207B
:103C1000FDF798FBFFF756F8FEF73AFDFEF70EFDAD
:103C2000FEF704FEFEF766FEFEF722FE00F04EF8F9
:103C3000FFF7C6FF00F0CCFA0748FEF7E3FB0748A2
:103C4000FEF7E0FB00F034FB0548FEF74DF802E01C
:103C50006420FDF73DFAFBE7007C0040007800405F
:103C6000500F00200146002904DB00EE901AB8EE48
:103C7000E00A06E0002904DA484200EE900AB8EEB5
:103C8000E00AFDEEC00A10EE900A704710B58AB047
:103C9000012008900020059004900090019002906F
:103CA000039006900120079069460748FCF7E4FD61
:103CB00004460548FDF7D5F9044602210248FCF701
:103CC0002FFD0AB010BD0000B00E002010B59FED12
:103CD000180A184880ED000A9FED150A80ED010AC8
:103CE0009FED130A80ED080A9FED110A80ED090A85
:103CF0009FED0F0A80ED020A9FED0D0A80ED030A89
:103D00009FED0B0A80ED040A9FED090A80ED050A7C
:103D10009FED070A80ED060A9FED050A80ED070A70
:103D2000002004498862C862FFF7B0FF10BD0000A0
:103D300000000000200E002031B52DED020B8AB0EE
:103D40000546002007900690082008900DB9102025
:103D500000E018200D2141EA401004900020059059
:103D60000AAC20788DF8080060788DF80900A078FA
:103D70008DF80A00E0788DF80B0000208DF80C001B
:103D80008DF80D008DF80E008DF80F0001AB02AA22
:103D900004A90348FCF7DAFC024908700DB030BDF5
:103DA000B00E00202500002010B58AB00446022085
:103DB00007900020069008900CB9102000E0182011
:103DC000092141EA401004900020059001AB02AAAD
:103DD00004A90348FCF7BAFC024908700AB010BDF8
:103DE000B00E002026000020FEB506460020009000
:103DF0000190029000270024351D96F80808A52898
:103E000000D0FEBD00208B4908700CE1285DB02871
:103E100049D008DC622872D090280DD091286FD04C
:103E2000A0286ED113E0C0286FD0D0286BD0D12845
:103E30006AD0F028F5D1CFE07E48007840F001004C
:103E40007C49087068787C494870A41CEAE079488D
:103E5000007840F00200774908702819411C684634
:103E600000F078FA9DED000AB8EEC00ADFED730AA3
:103E700080EE201A704880ED031A9DED010AB8EE1D
:103E8000C00ADFED6E0A80EE201A80ED041A9DED67
:103E9000020AB8EEC00ADFED690A80EE201A80ED52
:103EA000051AE41DBEE06348007840F00400614953
:103EB00008702819411C684600F04CFA9DED000A74
:103EC000B8EEC00AF2EE040A80EE201A5A4880EDDD
:103ED000061A9DED010AB8EEC00AF2EE040A80EE61
:103EE000201A80ED071A9DED020AB8EEC00AF2EE24
:103EF000040A80EE201A80ED081AE41D92E077E0B3
:103F00006CE08DE001E02CE057E04A48007840F09A
:103F10000800484908702819411C684600F01AFA40
:103F20009DED000AB8EEC00AF2EE040A80EE201AF7
:103F3000414880ED091A9DED010AB8EEC00AF2EE83
:103F4000040A80EE201A80ED0A1A9DED020AB8EEEE
:103F5000C00AF2EE040A80EE201A80ED0B1AE41D6E
:103F600060E03448007840F01000324908702819A9
:103F7000411C684600F0EEF99DED000AB8EEC00A5B
:103F8000DFED2F0A80EE201A2B4880ED0D1A9DEDF3
:103F9000010AB8EEC00ADFED2A0A80EE201A80ED91
:103FA0000C1A9DED020AB8EEC00AF2EE040A80EE89
:103FB000201A80ED0E1AE41D34E01E48007840F00F
:103FC00020001C4908702819411C10221A483C3056
:103FD000FCF7D3F9113425E0641D23E07F20154957
:103FE00008704C2229461448FCF7C7F94C3419E0F4
:103FF00014482968016069684160083400270AE0B4
:104000007F200C49087029194C220E48C01CFCF76F
:10401000B4F94C347F1C0B488078B842F0DC01E0E6
:10402000641C00BF00BFB6F80408A0423FF7EEAE24
:1040300000BFE6E60D0000201009002000007A44D1
:104040000000C8425C09002010B5044650480078C2
:1040500007287DD2DFE800F0040A18223238480031
:104060005A2C02D101204A4908708DE04948006865
:1040700080F808484748006890F80808A52802D149
:104080000220434908707FE042480068A0F80448D5
:104090004148847003203E49087075E03D4800683F
:1040A000B0F8040840EA04203A490968A1F8040875
:1040B0003948C47004203649087065E037480480E8
:1040C0000520334908705FE03448008840EA042046
:1040D0003249088000202F4909680860304908806B
:1040E00006202B4908704FE02A48006801682948DB
:1040F00000680068401C274A126810602548006864
:10410000001D4454234800680068B0F5006F04D3D4
:1041100000201F490870012010BD1E48006800687B
:104120001C490968B1F80418884228D31948006866
:1041300090F80808A52822D1042217491848FFF74B
:10414000DBFC14480068026812480168091D00E0A1
:1041500016E01348FFF7D0FC114800880F49098882
:10416000884209D10F480068401C0E490860094880
:1041700000680D490968884700200549087003E078
:1041800000200349087000BF00BF0020C4E7000002
:104190002000002018000020210000201C0000202A
:1041A0001E000020100000201400002070B50446FE
:1041B0000D460548056040F60C012046FCF722F943
:1041C0000248046070BD00001400002018000020A8
:1041D0009FED2E0A2E4880ED030A9FED2E0A80EDFA
:1041E000040A9FED2D0A80ED050AB8EE000A80ED65
:1041F000000A9FED280A80ED010A9FED280A80ED54
:10420000020A9FED270A80ED060A9FED220A80ED43
:10421000070A9FED200A80ED080A9FED220A80ED33
:10422000090A9FED210A80ED0B0A9FED1A0A80ED25
:104230000A0A9FED180A80ED0C0A9FED160A80ED20
:104240000D0A9FED140A80ED0E0A9FED120A80ED13
:104250000F0A9FED100A80ED100A9FED0E0A80ED07
:10426000110A9FED120A80ED120A9FED0A0A80EDF5
:10427000140AB0EE000A80ED150A9FED060A80EDE3
:10428000160A9FED040A80ED170A7047333327C1E1
:10429000500E0020000000009A99B9C0F6285CBFBB
:1042A0007B142E3F4260653B6F12833A6666A6BF61
:1042B00010B5FEF777FA08210148FDF7C3FE10BDDF
:1042C000D80E002070B52DED028B054605F5437420
:1042D000B4F5757F02DD4FF4757000E020460446AA
:1042E000B4F5117F02DA4FF4117000E02046044665
:1042F00000EE104AB8EEC00ADFED130AC0EE208AC5
:10430000B0EE688AB7EE000AB4EEC08AF1EE10FA99
:1043100004DD9FED0D0AB0EE408A00E000BFB5EE6F
:10432000C08AF1EE10FA04D29FED080AB0EE408A7E
:1043300000E000BFB0EE480A08210548FEF782FB06
:1043400000BFBDEC028B70BD00401C4600000000A9
:10435000D80E0020024608784B7840EA032000B2CD
:1043600010608878CB7840EA032000B2506008796A
:104370004B7940EA032000B29060002070470000B3
:1043800010B5204890ED000AF0EE000AB4EEE00A05
:10439000F1EE10FA09DD90ED000AF0EE000A30EEC1
:1043A000600A194880ED000A12E0164890ED000AF4
:1043B000F8EE000AB4EEE00AF1EE10FA08D290ED41
:1043C000000AF0EE000A30EE200A0F4880ED000AE5
:1043D00000210D4890ED000ABDEEC00A10EE100A53
:1043E000FEF7ACFF094880ED000A094890ED120A7B
:1043F0000648D0ED000A30EE200A054880ED120A8A
:1044000010BD0000200E0020700000206C00002075
:10441000500E0020491058BFC1F140415B1058BFF9
:10442000C3F140438B42EFF30080704751EA030C25
:1044300017D41CF5801F58BFBCF5801F00F1068003
:10444000994218BF704708BF9042704707D711F5CF
:10445000801F58BF13F5801F19D4994270478942B5
:1044600070471CF5801F08D5BCF5801FF7D58B421F
:1044700018BF704708BF824270474FF4001C1CEB06
:10448000410F38BF1CEB430F01D28B42704770B510
:1044900000F008F8922449004FF000514FF080538B
:1044A000FFF7B8BF0EF1020E2EF0030E5EF8046B9C
:1044B000364205D4012A43EB030515F5001F12D837
:1044C000012841EB010C1CF5001F0CD80ED14FEA5E
:1044D000D17C15F5001F0CEB4C0C0CF1020C08BF45
:1044E0004CEBD37C04E04FF0080C01E04FEAD37CA6
:1044F0000CEB4C0526FA05F606F00706B6F1040C9F
:1045000006D20EEB860CBDE870404CF0010C604703
:10451000DFE80CF0090B02024FF000414FF0000001
:10452000A1F5002170BD19461046012851EB010488
:1045300018BFD4F5001484BF002001F0004170BD05
:104540000808A0F500114FEA3101704753EA010C49
:1045500017D41CF5801F58BFBCF5801F00F10680E2
:104560008B4218BF704708BF8242704707D713F5C8
:10457000801F58BF11F5801F19D48B4270479B4292
:1045800070471CF5801F08D5BCF5801FF7D59942F0
:1045900018BF704708BF904270474FF4001C1CEBD7
:1045A000430F38BF1CEB410F01D2994270470FB443
:1045B0000CBC03BCFFF76BBF43004FEAD30C4FEAC0
:1045C0003C0C43401FBF40070CF1605113F0FE4FFD
:1045D00070471CF0006F03D100200CF000417047C1
:1045E0000CF0004343EA507010B540EACC0000F0F4
:1045F0000EF800BF000000924FEA0001FFF7A0BFD5
:104600004FF000414FF00000A1F5002170470EF17E
:10461000020E2EF0030E5EF8044B244204D44FEA3F
:104620004102B2F17F4F11D84FEA4003B3F17F4FFF
:104630000CD80ED14FEAD07CB2F17F4F0CEB4C0C72
:104640000CF1020C08BF4CEBD17C04E04FF0080CDD
:1046500001E04FEAD17C0CEB4C0324FA03F404F0A4
:104660000704B4F1040C06D20EEB840CBDE8104034
:104670004CF0010C6047DFE80CF0070802024FF035
:104680000040A0F5800010BD0846420018BFD2F1DE
:10469000807288BF00F0004010BD4FF04070E1EE26
:1046A000100A704702040810102840587088A0B8FB
:1046B00000000000000000000102030406070809D2
:1046C0000000000001020304000000006E83F9A254
:1046D0002915444ED15727FCC0DD34F5999562DB8E
:1046E0004190433CAB6351FE0847000800000020A6
:1046F000E0000000E8010008E8470008E0000020B2
:104700001015000004020008000000008FC2F53CF4
:104710000000000001000000000000000000000098
:104720000000000000000000005AA500000000008A
:104730000100000000000000000000000000000078
:104740000000000000000000000000000000000069
:104750000000000000000000000000000000000059
:104760000000000000000000000000000000000049
:104770000000000000000000000000000000000039
:1047800000000000000000000000000000006C427B
:104790000000000000000000000000000000000019
:1047A0000000000000000000000000000000000009
:1047B00000000000000000000000000000000000F9
:1047C00000000000000000000000000000000000E9
:1047D0000000A50101000000000000001000000022
:0847E000010000000024F400B8
:04000005080001AD41
:00000001FF
