:020000040800F2
:10000000801A002085020008ED4100083F370008F3
:10001000E941000805160008BD4A0008000000007C
:10002000000000000000000000000000554400082F
:100030001916000800000000354300082945000893
:100040009F0200089F0200089F0200089F0200080C
:100050009F0200089F0200089F0200089F020008FC
:100060009F0200089F0200089F0200089F020008EC
:100070009F0200089F0200089F0200089F020008DC
:100080009F0200089F0200089F0200089F020008CC
:100090009F0200089F0200089F0200089F020008BC
:1000A0009F0200089F0200089F0200089F020008AC
:1000B0009F02000875460008854600089F02000858
:1000C0009F0200089F0200089F0200089F0200088C
:1000D0009F0200089F0200089F0200089F0200087C
:1000E0009F0200089F0200089F0200089F0200086C
:1000F0009F0200089F0200089F0200089F0200085C
:100100009F0200089F0200089F0200089F0200084B
:100110009F0200089F0200089F0200089F0200083B
:100120009F0200089F0200089F0200089F0200082B
:100130009F0200089F0200089F0200089F0200081B
:10014000091600089F0200089F0200089F0200088D
:100150009F0200089F0200089F0200089F020008FB
:100160009F0200089F0200089F0200089F020008EB
:100170009F0200089F0200089F0200080000000084
:100180009F0200089F02000855490008714A0008B4
:100190009F0200089F0200089F0200089F020008BB
:1001A00000000000000000009F02000800F002F8BC
:1001B00000F059F80AA090E8000C82448344AAF1A8
:1001C0000107DA4501D100F04EF8AFF2090EBAE8A6
:1001D0000F0013F0010F18BFFB1A43F0010318477B
:1001E000906A0000B06A00000A4410F8014B14F055
:1001F0000F0508BF10F8015B240908BF10F8014B78
:100200006D1E05D010F8013B6D1E01F8013BF9D1C0
:10021000641E03D0641E01F8015BFBD19142E4D35C
:10022000704700000023002400250026103A28BF54
:1002300078C1FBD8520728BF30C148BF0B60704758
:10024000662906F0F180002070471FB506F0E7F838
:1002500000F046FC04000020002106F053F8E060A6
:100260001FBD10B510BD00F03FFD1146FFF7EDFFBB
:1002700005F000F900F05DFD03B4FFF7F2FF03BCE9
:1002800000F0A0FD0948804709480047FEE7FEE767
:10029000FEE7FEE7FEE7FEE7FEE7FEE7FEE7FEE736
:1002A00004480549054A064B7047000011460008FE
:1002B000AD01000880140020801A00208016002064
:1002C0008016002053EA020C00F069802DE9F04B03
:1002D0004FF00006002B1FBFB3FA83F503FA05F4B5
:1002E00024FA05F65E4012BF1643B2FA82F502FA0E
:1002F00005F4C5F120051EBF22FA05FC44EA0C04F2
:10030000203556EA044C4FEA144418BF641C4FF0E1
:1003100000084FF00009904271EB030C39D300291B
:1003200019BFB1FA81F701FA07F6B0FA80F700FABF
:1003300007F6C7F120071EBF20FA07FC46EA0C06A5
:100340002037B6FBF4FCA7EB0507103F07F01F0BA7
:10035000CBF120060CFA0BFB2CFA06F644BFB34691
:100360000026202FA4BF5E464FF0000B5BEA060C70
:1003700008BF4FF0010B19EB0B09ABFB027C48EBFC
:100380000608C01B06FB02CC0BFB03CC71EB0C0177
:10039000C1E70B46024641464846BDE8F08B13B51F
:1003A0004FF000004FF00001AFF30080BDE81C40AB
:1003B000704700000FB41CB5074B06AA7B44694682
:1003C0000090059800F041FB0020694600F050FBCA
:1003D0001CBC5DF814FB0000B10600002DE9F047DD
:1003E0004FF0000A89460446C0F820A02046E16884
:1003F0008847002876D0252806D0D4E901219047E7
:10040000206A401C2062F1E7E16820460025884709
:10041000C4F81CA006460027C4F818A02A2E09D04C
:10042000304604F09DFE38B304EB8708303EC8F830
:10043000186019E059F8041B204604EB870291610B
:10044000E1688847012F064618D1E069002820DAC4
:1004500025F020051DE0D8F8180000EB800006EB21
:1004600040003038C8F818002046E1688847064642
:1004700004F076FE0028EED1012F0AD02E2E08D1EE
:100480002046E16888477F1C0646022F45F020057C
:10049000C4DBA069002803DA404245F00105A061F1
:1004A000E80701D025F01005B6B1A6F141001928E2
:1004B00002D8203645F400654A463146204625607C
:1004C0004D46FFF7BDFE58B1012806D0ED1D25F0C1
:1004D000070000F1080989E704E005F1040985E750
:1004E00030468AE7206ABDE8F087032A40F2308070
:1004F00010F0030C00F0158011F8013BBCF1020F65
:10050000624498BF11F801CB00F8013B38BF11F8E5
:10051000013BA2F1040298BF00F801CB38BF00F8FC
:10052000013B11F0030300F0A882083AC0F00880F4
:1005300051F8043B083A51F804CBA0E80810F5E75D
:10054000121D5CBF51F8043B40F8043BAFF3008040
:10055000D20724BF11F8013B11F801CB48BF11F8B5
:10056000012B24BF00F8013B00F801CB48BF00F885
:10057000012B70474FF000020429C0F0128010F0E8
:10058000030C00F01B80CCF1040CBCF1020F18BF6F
:1005900000F8012BA8BF20F8022BA1EB0C0100F002
:1005A0000DB85FEAC17C24BF00F8012B00F8012BD5
:1005B00048BF00F8012B70474FF0000200B513460A
:1005C00094469646203922BFA0E80C50A0E80C5073
:1005D000B1F12001BFF4F7AF090728BFA0E80C5024
:1005E00048BF0CC05DF804EB890028BF40F8042B1D
:1005F00008BF704748BF20F8022B11F0804F18BF8A
:1006000000F8012B704770477047704710B500F035
:100610006BFA006810BD10B5044600F065FA04607E
:1006200010BD70472DE9FF4F0C461E464FF0FF37B7
:100630008BB0D2E90001DDF860800A908A46C1F3F0
:100640000A5505B93D46002108464FF00000BAF1B1
:10065000000F00F4400005DA00EB80004FF4400189
:1006600001EA50004FEA9059B9F1010F00DDB94697
:100670000A9850EA4A000ED044F61050A5F2FF3511
:1006800045432F14B8F1000F1ED07542291E1EDD00
:10069000C9F100021CE0B8F1010F4FF0000001D0D9
:1006A000302103E0F24305E02154401CB042FBDB63
:1006B00030460022002121540B99C1F80880C1E97D
:1006C00000200FB0BDE8F08FBD1B6D1CDEE74A4671
:1006D00000DA694206A800F091FA06AB93E8070039
:1006E00003AB83E8070050460A9900F072FB8DE8DF
:1006F0000700A0F500501F3800900398002D0ADD78
:1007000042F21F014A460844002303A903906846A9
:1007100000F0DBFD09E0A0F500504A461F38002339
:1007200003A90390684600F0E5FD8DE8070000048A
:10073000000C03D04FF0FF30410800E01046B8F144
:10074000000F03D00022009215461EE0751E05D44E
:1007500000F0CEF9303262556D1EF9D5B346012254
:10076000084302D000227F1C04E02078302801D109
:1007700000227F1E002A099784D01DE0112D07DA80
:1007800000F0B6F9303262556D1C50EA0102F5D125
:10079000084302D00098C8B10EE00021681E05E0B1
:1007A000235C625C63542254401E491C8142F7DB87
:1007B000AB46A81B401E0990002004F80B000B98C4
:1007C000099AC0F80880C0E9002B7AE711264FF09B
:1007D000000857E72DE9F04F88460446D21D22F065
:1007E000070191B0D1E90001CDE90A0104F05EFAF8
:1007F00002460B98C00F01D02D2007E0206881072A
:1008000001D52B2002E0202101EAC000032A099033
:1008100001D0072A05DB03464146204600F0AEF929
:100820000BE12078800601D5E06900E00620B8F1F0
:10083000650F814606D0B8F1660F18D0B8F1670F82
:1008400070D131E00020B9F1110F009001DB1123CC
:1008500001E009F101030AAA01A90CA8FFF7E2FED1
:10086000DDE90C70002609F10105834647E001200F
:100870004B4600904FF000470AAA01A90CA8FFF7C9
:10088000D1FEDDE90DB00C995D46002610B909F1E5
:1008900001000D18B9EB050003D4C0F1FF3609F1D2
:1008A0000105A5EB09002BE0B9F1010F01DA4FF0CA
:1008B00001090020B9F1110F0090484601DD112314
:1008C00000E003460AAA01A90CA8FFF7ABFEDDE988
:1008D0000C704D4600268346207800070AD4AB45AD
:1008E00000DA5D4601A8012D04DD411911F8011C53
:1008F000302907D04F4502DA17F1040F04DA01203E
:1009000082460FE06D1EEEE7002F02DCED1B3E4439
:1009100003E0781CA84200DD7D1CB81B00F1010A31
:100920004FF000472078000703D4AA4501DB4FF0C1
:10093000FF3A0021B7F1004F0DF143088DF8431045
:1009400024D002202B23002F01DA7F422D230A21FD
:10095000021EA0F1010000DC5FB197FBF1FC97FBE8
:10096000F1F201FB1C7C17460CF1300C08F801CDAC
:10097000EEE7A8F1010003702188090501D54521A2
:1009800000E06521A0F1010800F8011C09980FA9F9
:10099000A1EB0807FF1D00B10120411901EBEA702E
:1009A000A1693844081A401EA0612078C00602D40C
:1009B0002046AFF30080099828B1D4E9012190477F
:1009C000206A401C20622078C00622D52046AFF362
:1009D00000801EE0002E04DBB34502DD01A8805D2F
:1009E00000E03020D4E901219047206A401C2062B9
:1009F000761CAAF101005FEA000A0AD100F070F843
:100A0000C0680168405CD4E901219047206A401C1D
:100A10002062281EA5F10105DCDC07E0D4E90121F4
:100A200018F8010B9047206A401C2062381EA7F17D
:100A30000107F3DC2046AFF30080032011B041E64C
:100A400001694A1C02610878704700B58FB0CDE992
:100A500001310021059105497944CDE90310114682
:100A60006846FFF7BBFC0FB000BD0000E5FFFFFFCD
:100A70000A6802F8010B0A60704710B5203AC0F00E
:100A80000B80B1E81850203AA0E81850B1E818508F
:100A9000A0E81850BFF4F5AF5FEA027C24BFB1E8CC
:100AA0001850A0E8185044BF18C918C0BDE810403D
:100AB0005FEA827C24BF51F8043B40F8043B08BF46
:100AC0007047D20728BF31F8023B48BF11F8012B0D
:100AD00028BF20F8023B48BF00F8012B70470000F8
:100AE000004870473C140020004870471C14002048
:100AF00030B5B0F10A024FEA900E71F100034EEAF0
:100B0000817EB0EB0E0061EB91014FEA101E4EEAC0
:100B1000017E10EB0E0041EB11114FEA102E4EEA50
:100B2000016E10EB0E0041EB11214FEA104E4EEA20
:100B3000014E10EB0E0041EB1141401841F1000154
:100B40004FEAD00040EA41704FEAD10110EB800536
:100B50004FEA810444EA907444EB01046D1944EBBC
:100B60000404521BA3414FF0000348BF0A3200D5D2
:100B700030BD401C41F1000130BD00002DE9F041C5
:100B80001F46044603260168072A01F4006004DBBF
:100B900008B116A505E016A503E008B115A500E00B
:100BA00015A521F010002060A069C01EA0610FB142
:100BB000401EA0612046AFF300804FB1D4E901216F
:100BC00038469047206A401C2062C01C206206E024
:100BD000206AFAE7D4E9012115F8010B9047761E47
:100BE000F8D22046AFF30080BDE8F0814E414E00C0
:100BF0006E616E00494E4600696E66002DE9F04751
:100C0000814616468AB0354878440DC88DE80D00F7
:100C100032487844801C03AC0DC884E80D0041F6CE
:100C20009B300844372190FBF1F290FBF1F5A5F1E0
:100C3000800501FB12041B3C02D56442012000E048
:100C40000020DFF898A080460027FA44AAF1BE0AE7
:100C50000EE0E0070AD03246684607EB4701012361
:100C60000AEB810100F046FB8DE8070064107F1C51
:100C7000002CEED1194F7F44AE3F19E0E80715D0A4
:100C800007EB04100DF1180A90E80E008AE80E0038
:100C9000C068F04201D1981908903246012306A994
:100CA00003A800F027FB03AB83E807006D10641C6A
:100CB000002DE3D14FF0010332466946B8F1000F31
:100CC00003A802D000F001FB01E000F013FBC9E92A
:100CD0000001C9F808200AB0BDE8F0874C600000A8
:100CE000004870471C1400207546FFF7F9FFAE4618
:100CF00005006946534620F00700854618B020B528
:100D0000FFF7CEFABDE820404FF000064FF0000795
:100D10004FF000084FF0000B21F00701AC46ACE8A3
:100D2000C009ACE8C009ACE8C009ACE8C0098D4610
:100D3000704710B50446AFF300802046BDE8104070
:100D4000FFF79ABA4FF0013C50F8042B51F8043BDE
:100D50009A4221D1A2EB0C03934313EACC1317D18F
:100D600050F8042B51F8043B9A4215D1A2EB0C0326
:100D7000934313EACC130BD150F8042B51F8043BE6
:100D80009A4209D1A2EB0C03934313EACC13DBD0B4
:100D90004FF00000704700BFD01A01BAB1FA81F1DC
:100DA00001F0180122FA01F0CB40C1F12001DBB2C1
:100DB000C0B2C01A2CFA01F3D11A914311EAC3113F
:100DC000E6D1704701491820ABBEFEE726000200BD
:100DD00070475FEA400C08BF91F0000F4FEA8C2388
:100DE0004FEAC12243EA51514FEA1C5018BF00F5A7
:100DF000F0404FEA300018BF41F000415FEA6C5C00
:100E000000F02980BCF1FF3F08BF40F080407047F0
:100E1000130C06BF12044FF0100C4FF0000C130E11
:100E200004BF12020CF1080C130F04BF12010CF1E5
:100E3000040C930F04BF92000CF1020CD30F04BFFB
:100E400052000CF1010C11464FF00002A0F11F00FE
:100E5000A0EB0C00704711F0004F08BF704731F055
:100E600000413FF4D5AF0B0C06BF09044FF0100C46
:100E70004FF0000C0B0E04BF09020CF1080C0B0F15
:100E800004BF09010CF1040C8B0F04BF89000CF1A5
:100E9000020CCB0F04BF49000CF1010CCCF1200374
:100EA000A0EB0C0022FA03F302FA0CF241EA030170
:100EB00000F10100704720F07F4C80EA030023F02E
:100EC0007F47ACEB070303F57C5300F0004003F1D0
:100ED000FF032DE980494FEA154B09B44FEA14434B
:100EE00025EA0B4E24EA03480FF2042606EB1327EB
:100EF00049083E785FEA320203FB0667C7F5000740
:100F000007FB06F64FEA54374FEAD64606F10206CB
:100F100007FB066CCCF1005C4FEA1C472CEA074C3F
:100F200007FB06F40CFB06F504EB15464FEA961694
:100F300034BF00204FF000404FEAD13706FB07FCDA
:100F40004FEA1C4C0CFB0BF7D21B03FB0CF761EBBD
:100F500007010CFB0EF7B0EB074072EB17420CFBDE
:100F600008F734BFA2EB0742B2EB074261EB17412F
:100F70004FEA0C444FEA910706FB07FC4FEA1C4C72
:100F80000CFB0BF7B0EBC74072EB573203FB0CF7CF
:100F900034BFA2EBC742B2EBC74261EB57310CFB47
:100FA0000EF7B0EBC70072EB57720CFB08F734BFBB
:100FB000A2EBC702B2EBC70261EB5771039F4FEA86
:100FC000816141EA921104EBCC044FEAD1374FEA38
:100FD000826206FB07FC42EA90124FEA80604FEA09
:100FE0001C4C0CFB0BF7D21B03FB0CF761EB07014E
:100FF0000CFB0EF7B0EB074072EB17420CFB08F747
:1010000034BFA2EB0742B2EB074261EB17414FEA54
:101010008C554FEA910704EB9C2406FB07FC4FEA32
:101020001C4C0CFB0BF7B0EBC74072EB573203FBC9
:101030000CF734BFA2EBC742B2EBC74261EB5731AA
:101040000CFB0EF7B0EBC70072EB57720CFB08F706
:1010500034BFA2EBC702B2EBC70261EB577115EBCD
:101060004C254FEA816141EA92114FEA82624FEAD0
:10107000D13742EA901206FB07FC44F100044FEA24
:1010800080604FEA1C4C0CFB0BF7D21B03FB0CF7E8
:1010900061EB07010CFB0EF7B0EB074072EB174258
:1010A0000CFB08F734BFA2EB0742B2EB074261EB3F
:1010B000174115EB1C154FEA813141EA92414FEA85
:1010C000823242EA90424FEA80304FEA0C7644F195
:1010D000000448EA03434EEA0B484FF0000EB2EB1F
:1010E000080C71EB030724BF624639464EEB0E0E27
:1010F0004FF0000B0018524149414BEB0B0BB2EB88
:10110000080C71EB03077BF1000B24BF62463946E4
:101110004EEB0E0E4FF0000B0018524149414BEBC5
:101120000B0BB2EB080C71EB03077BF1000B24BF38
:10113000624639464EEB0E0E51EA020718BF46F0E2
:10114000010616EB0E7655F1000254F1000103D5AD
:10115000BDE88901BDE80088BDE88901BDE8004817
:10116000B619524141EB0101A3F1010370478080A0
:101170007F7E7D7C7B7A79787776767574737271F1
:1011800071706F6E6E6D6C6C6B6A6A6968686766A9
:1011900066656464636362616160605F5F5E5E5D3B
:1011A0005D5C5C5B5B5A5A595958585757565655AF
:1011B00055555454535352525251515050504F4F11
:1011C0004F4E4E4D4D4D4C4C4C4B4B4B4A4A4A4961
:1011D00049494848484747474746464645454544A4
:1011E0004444444343434342424242414141002B31
:1011F0009C4630D477002BD01CB54FEA370703B498
:101200004FF010004FF01001BAF1000F06D0BCF102
:10121000000FDCBF40F0080040F008014FF0000074
:101220000FBCBDE810400BF1010BBBF1010F08BF73
:101230005FEA170722BF12F1010211F101014FF01D
:10124000004143F1000300F0004043EA0000704712
:10125000F9D35708D0E746EA064613F1400F4FEAA4
:1012600016461FDD13F1200FDFBF16430A4600218B
:1012700020335B42BED0C3F1200746EA064602FA9D
:1012800007F74FEA164646EA0706C3F1200722FA97
:1012900003F201FA07F721FA03F14FF0000342EAE3
:1012A0000702A7E746EA020646EA06464FEA16465E
:1012B00046EA0106BCBF46EA0646360C4FF000037C
:1012C0004FF000024FF0000194E72DE9804C9A4660
:1012D000934670B491E8380007C831EA400C48BF23
:1012E00034EA430C03D5FFF7E6FDFFF780FFF0BCBF
:1012F000BDE8008C2DE9804C9A46934670B491E885
:10130000380007C810F0804F08BF13F0804F03D19A
:1013100000F005F8FFF76BFFF0BCBDE8008C20F093
:101320007F4780EA030023F07F4C07EB0C03A3F513
:101330007C5300F00040A3F1FE0392F0000F00F098
:10134000B38095F0000F00F077802DE901494FEA56
:1013500011404FEA144621EA004800FB06FC24EA4B
:10136000064708FB06F607FB08F800FB07F718EB33
:1013700006484CEB164C4FEA124B18EB07484FEA65
:1013800015464CEB174022EA0B4E0BFB06FC25EAF8
:1013900006470EFB06F607FB0EFE0BFB07F71EEBE0
:1013A000064E4CEB164C4FF000061EEB074E4CEB76
:1013B000174B18EB0B0840F1000018EB0E0B58EB25
:1013C000000840F100008F1A4FF000013CBFC943F4
:1013D000661B14BFB5EB040C00213CBFC943F61BD0
:1013E0004FEA17444EEA8E0E27EA04454FEA1C479F
:1013F00004FB07622CEA074C05FB07F70CFB05F61C
:1014000004FB0CFC16EB074642EB174216EB0C46AE
:1014100042EB1C421BEB060658EB0202414146EA36
:101420009E0601D5BDE80189B619524141EB010183
:10143000A3F10103BDE801894FEA14454FEA1147C2
:1014400024EA054621EA074C05FB07F406FB07F7EB
:101450000CFB06F105FB0CFC11EB074144EB1744B8
:101460004FEA124711EB0C4144EB1C4422EA074CB3
:1014700005FB07F206FB07F70CFB06F605FB0CFC69
:1014800016EB074642EB174216EB0C4642EB1C45A7
:101490006A1854F1000148BF7047B619524141EB38
:1014A0000101A3F10103704795F0000F37D04FEA17
:1014B00011424FEA144721EA024624EA074C02FB94
:1014C00007F106FB07F70CFB06F402FB0CFC14EB20
:1014D000074441EB17414FEA154714EB0C4441EB2D
:1014E0001C4125EA074C02FB07F506FB07F70CFB3E
:1014F00006F602FB0CFC16EB074645EB174516EB10
:101500000C4645EB1C42121951F1000148BF7047CF
:10151000B619524141EB0101A3F1010370474FEAB3
:1015200014454FEA114724EA054621EA074C05FB1A
:1015300007F106FB07F70CFB06F24FF0000605FB70
:101540000CFC12EB074241EB174112EB0C4251EB42
:101550001C4148BF7047921841EB0101A3F1010300
:1015600070470000B0EE401AF0EE601A31EE612ACA
:10157000F0EE420A1E4890ED002A32EE202A80ED5D
:10158000002A90ED002ADFED1B2AB4EEE22AF1EEEC
:1015900010FA03DD9FED172A80ED002A144890ED24
:1015A000002ADFED152AB4EEE22AF1EE10FA03D29A
:1015B0009FED112A80ED002A104890ED002A22EEBE
:1015C000202AD0ED012A0A4890ED003A02EE832A43
:1015D0000A48D0ED022A0A4890ED003A30EEC33AAC
:1015E000B0EE420A02EE830AC0ED000A7047000026
:1015F000C000002000401C4600401CC69C0E00207D
:10160000BC00002000BFFEE710B5024800F093FACE
:1016100010BD0000EC0E00207047000010B52DED4D
:10162000028B3948006810B1012869D109E03748B8
:1016300090ED080A364880ED000A01203249086022
:101640005FE0324890ED080A3148D0ED000A30EEF4
:10165000600A9FED301AC0EE010A9FED2F0A20EEBE
:10166000800AB0EE408A03F0F5FB2C48D0ED090A61
:101670009FED2B1A60EE810A2A4890ED001A20EEA9
:10168000811A2948D0ED000A41EE000AC0ED000A97
:101690001E4890ED080A1E48D0ED000A30EE600AA0
:1016A000DFED1C0A80EE201A9FED1B0A21EE000AD6
:1016B000B0EE408A03F026FB1848D0ED090A9FEDF2
:1016C000181A60EE810A174890ED001A20EE811A70
:1016D0001648D0ED000A41EE000AC0ED000A90ED78
:1016E000000AF0EE080AB4EEE00AF1EE10FA06DBAA
:1016F0000020054908600120BDEC028B10BD00E010
:1017000000BF00BF0020F7E7B80000202C01002038
:101710008400002000003443D00F49406C0E0020AC
:101720006F12033B880000208C00002090000020F6
:10173000024692F82000012803D092F820000228E7
:1017400006D110684069084313685861002070474B
:10175000506A40F4802050620120F8E770B50446DA
:101760000D46A86800B900E000BF94F820000128E9
:1017700003D094F8200002287FD12068806800F010
:10178000806050B92068806800F0006028B9206847
:10179000806800F08050002869D020688068C0F31D
:1017A0000161012088401860A86850B92E88E86857
:1017B00040EA4656206800F5C07000EB0110066054
:1017C0000BE0D5E9016040EAC600EE6830432668C8
:1017D00006F5C07606EB011630602E69206800F52C
:1017E000C07000EB01104660287D01280DD12068F3
:1017F00000F5C07000EB0110406840F4807620686E
:1018000000F5C07000EB01104660D07900069679B3
:1018100040EA0640567940EA0626107906432068D9
:1018200000F5C07000EB0110C660D0780006967815
:1018300040EA0640567840EA06201678304326688B
:1018400006F5C07606EB0116B060206800F5C070A2
:1018500000EB0110006840F00106206800F5C07040
:1018600000EB01100660002070BD06E0FFE7606A33
:1018700040F4001060620120F6E7606A40F48020C6
:1018800060620120F0E7000070B504460A460023BC
:10189000216894F82000012803D094F82000022841
:1018A0007CD1414901F50071086840F001000860F1
:1018B000086820F47C5008600868556A40EA0520F2
:1018C0000860157D012000FA05F3C8699843C861D6
:1018D000A1F50071D069C8B9D1F80C029843C1F8DC
:1018E0000C02908880B2958940EA054501F5107098
:1018F000566940F83650108880B2158940EA05458F
:1019000001F51070566900EBC6004560D0690128EA
:1019100019D1D1F80C021843C1F80C02908880B29A
:10192000158840EA054501F51070566940F83650B3
:10193000908980B2158940EA054501F51070566915
:1019400000EBC6004560906928B9D1F804029843BD
:10195000C1F8040204E0D1F804021843C1F80402FB
:10196000106928B9D1F814029843C1F8140204E0B0
:10197000D1F814021843C1F81402106A012804D1E6
:10198000D1F81C021843C1F81C02D1F8000220F063
:101990000100C1F80002002070BDFFE7606A40F45A
:1019A000802060620120F7E700640040704730B596
:1019B000044694F82000012803D094F8200002285F
:1019C0007DD151B92068C06800F0030090B9606A09
:1019D00040F400106062012030BD01290AD1206866
:1019E000006900F0030028B9606A40F400106062EA
:1019F0000120F1E7206800F5D87000EB01100068C5
:101A000000F004009060906840B9206800F5D8703C
:101A100000EB01100068400D106007E0206800F541
:101A2000D87000EB01100068C0085060206800F515
:101A3000D87000EB0110006800F002004008D06090
:101A4000206800F5D87000EB0110406800F00F002E
:101A50001061206800F5D87000EB0110406800F4B8
:101A60007F40000A9061206800F5D87000EB0110FB
:101A70004068000C5061206800F5D87000EB011040
:101A800080681870206800F5D87000EB011080683D
:101A900000F47F40000A5870206800F5D87000EB11
:101AA0000110806800F47F00000C9870206800F539
:101AB000D87000EB01108068000ED87000E034E0B0
:101AC000206800F5D87000EB0110C068187120681C
:101AD00000F5D87000EB0110C06800F47F40000AE8
:101AE0005871206800F5D87000EB0110C06800F450
:101AF0007F00000C9871206800F5D87000EB011091
:101B0000C068000ED87131B92068C06840F020006C
:101B10002568E86007E0012905D12068006940F0E8
:101B2000200025682861002056E7606A40F4802084
:101B30006062012050E72DE9F05F0446002520682F
:101B400046692068D0F80490206887682068D0F83B
:101B50000CA02068D0F810B02068D0F8188006F0EB
:101B60000100002855D007F00100C0B10120216814
:101B7000886007F0020018B1204600F0ABFA0EE0D2
:101B800007F0040010B145F4006508E007F0080014
:101B900010B145F4805502E0204600F09AFA07F4AF
:101BA0008070C8B14FF480702168886007F40070BD
:101BB00018B1204600F090FA0EE007F4806010B1F2
:101BC00045F4005508E007F4006010B145F4804585
:101BD00002E0204600F07FFA07F48030C8B14FF4ED
:101BE00080302168886007F4003018B1204600F08A
:101BF00075FA0EE007F4802010B145F4004508E0C6
:101C000007F4002010B145F4803502E0204600F0D2
:101C100064FA06F0080038B10AF0100020B145F46B
:101C2000007510202168C86006F0040040B10AF079
:101C3000080028B108202168C860204600F0A4F9F7
:101C400006F0020038B12068C06800F0030010B14F
:101C5000204600F09BF906F0400038B10BF0100070
:101C600020B145F4806510202168086106F020004D
:101C700040B10BF0080028B1082021680861204617
:101C800000F0F4F906F0100038B12068006900F0A7
:101C9000030010B1204600F0EAF906F4003040B12C
:101CA00009F0100028B1102021684860204600F09B
:101CB000DFF906F4803040B109F0080028B10820AF
:101CC00021684860204600F00AFA06F4004088B314
:101CD00009F0040078B306F4807020B108F0010028
:101CE00008B145F0010506F4007020B108F00200CB
:101CF00008B145F0020506F4806020B108F0040048
:101D000008B145F0040506F40060A0B108F07000C9
:101D100088B108F07000402817D006DC10280BD0DE
:101D200020280CD0302819D10CE0502810D0602881
:101D300014D110E01DE019E045F008050FE045F072
:101D400010050CE045F0200509E045F0400506E0EF
:101D500045F0800503E045F4807500E000BF00BF5A
:101D60002068806920F07000216888610420216863
:101D700048602DB1606A284360622046FFF716FE76
:101D8000BDE8F09F70B5044600250CB9012070BD78
:101D900094F8200010B9204600F0B0F820680068E0
:101DA00020F002002168086000F0CAFA05460DE044
:101DB00000F0C6FA401B0A2808D9606A40F40030D7
:101DC0006062052084F820000120E0E72068406878
:101DD00000F002000028EBD12068006840F001000C
:101DE0002168086000F0ACFA05460DE000F0A8FAA2
:101DF000401B0A2808D9606A40F400306062052060
:101E000084F820000120C2E72068406800F001004B
:101E10000028EBD0207E012806D12068006840F021
:101E200080002168086005E02068006820F08000DC
:101E300021680860607E012806D12068006840F0B3
:101E400040002168086005E02068006820F040003C
:101E500021680860A07E012806D12068006840F053
:101E600020002168086005E02068006820F020005C
:101E700021680860E07E012806D12068006820F013
:101E800010002168086005E02068006840F010003C
:101E900021680860207F012806D12068006840F092
:101EA00008002168086005E02068006820F008004C
:101EB00021680860607F012806D12068006840F032
:101EC00004002168086005E02068006820F0040034
:101ED00021680860D4E90201084321690843616967
:101EE00008436168491E08432168C8610020606298
:101EF000012084F82000002049E7000010B586B0DA
:101F000004461E492068884235D100BF0020009059
:101F10001B48006840F08060194908600846006866
:101F200000F08060009000BF00BF00BF0020009064
:101F30000846006840F0007008600846006800F03D
:101F40000070009000BF00BF4FF44050019002208D
:101F5000029000200390032004900920059001A91D
:101F6000084800F0D1F801221146402000F0D6FCCC
:101F7000402000F0C6FC06B010BD00000068004024
:101F800040380240000402407047000010B58AB09B
:101F900004463448844263D101AB03AA0021FFF711
:101FA00006FD039800F01F00092857D11821039857
:101FB000B1EB501F26D12C48806A401C2A49886208
:101FC000032190FBF1F201FB1200274988629DED8D
:101FD000020A0846816A083000EB810080ED000AA1
:101FE000214890ED020AD0ED030A30EE200AD0ED30
:101FF000040A30EE200AF0EE080A80EE201A80ED86
:10200000081A2AE010210398B1EB501F25D1164879
:10201000C06A401C1449C862032190FBF1F201FB25
:1020200012001149C8629DED020A0846C16A1430C7
:1020300000EB810080ED000A0B4890ED050AD0ED21
:10204000060A30EE200AD0ED070A30EE200AF0EE44
:10205000080A80EE201A80ED091A00E000BF00BFD8
:102060000AB010BDEC0E00206C0E002070477047C7
:10207000704770B50446002594F82000012822D14D
:10208000022084F820002068006820F00100216808
:10209000086000F055F905460DE000F051F9401BCD
:1020A0000A2808D9606A40F400306062052084F88C
:1020B0002000012070BD2068406800F00100002869
:1020C000EBD16062F6E7606A40F4002060620120B4
:1020D000F0E7704770477047704770477047704728
:1020E00070B5044600F02CF906462546681C10B170
:1020F00004480078054400BF00F022F9801BA84284
:10210000FAD370BD24010020F8B502460B46002525
:10211000002400200021E6E0012606FA01F51E68F1
:1021200006EA0504AC4273D15E68022E02D05E68F6
:10213000122E13D1CF0802F1200656F827004E07C1
:10214000F70E0F26BE40B0434F07FF0E1E69BE407C
:102150003043CF0802F1200646F8270010684F00F0
:102160000326BE40B0431E7906F003064F00BE4072
:10217000304310605E68012E08D05E68022E05D0E4
:102180005E68112E02D05E68122E13D190684F0047
:102190000326BE40B0434F00DE68BE40304390602F
:1021A000506801268E40B0431E79C6F300168E405B
:1021B00030435060D0684F000326BE40B0434F000C
:1021C0009E68BE403043D0605E6806F08056B6F12F
:1021D000805FA8D100BF00260096454E366846F4C1
:1021E0008046434F3E603E46366806F48046009681
:1021F00000BF00BF3F4E8F0856F827008E07370FED
:102200000F26BE40B0433C4EB24202D100262EE023
:1022100068E03A4EB24201D1012628E0384EB2427F
:1022200001D1022623E0374EB24201D103261EE03F
:10223000354EB24201D1042619E0344EB24201D1EA
:10224000052614E0324EB24201D106260FE0314E8F
:10225000B24201D107260AE02F4EB24201D1082630
:1022600005E02E4EB24201D1092600E00A268F0772
:102270003F0FBE4030431F4E8F0846F82700284EC0
:102280003068A0435E6806F48036B6F5803F00D122
:102290002043234E3060361D3068A0435E6806F44C
:1022A0000036B6F5003F00D120431D4E361D30608C
:1022B000361D3068A0435E6806F48016B6F5801FB0
:1022C00000D12043164E08363060361D3068A043DA
:1022D0005E6806F40016B6F5001F00D12043104ECC
:1022E0000C363060491C1029FFF416AFF8BD000011
:1022F0004438024008380140000002400004024017
:1023000000080240000C024000100240001402408D
:1023100000180240001C024000200240002402403D
:10232000003C0140024613690B400BB1012000E064
:10233000002070470AB1816101E00B04836170479E
:1023400001480068704700001C01002070B5044679
:10235000002600250CB9012070BD94F83D0028B975
:10236000002084F83C00204600F022FA242084F863
:102370003D002068006820F001002168086000F03E
:10238000E5FB05463948B5FBF0F62068466038495C
:102390006068884201D8701C07E04FF49670704363
:1023A0004FF47A71B0FBF1F0401C216808623049AB
:1023B000606888420ED860684000B5FBF0F0C0F35A
:1023C0000B00042801D204202DE060684000B5FB1A
:1023D000F0F028E0A06828B9606800EB4000B5FB89
:1023E000F0F008E0606800EBC00101EB0010B5FB05
:1023F000F0F040F48040C0F30B0008B9012012E077
:10240000A06828B9606800EB4000B5FBF0F008E078
:10241000606800EBC00101EB0010B5FBF0F040F488
:10242000804040F400402168C861D4E907010843B6
:1024300021680860D4E90310084321688860D4E962
:10244000050108432168C8602068006840F0010069
:102450002168086000202064202084F83D000020CE
:10246000206384F83E0000BF76E7000040420F0082
:10247000A08601002DE9FC5F04460F4690461E46EB
:102480000025A946AA46AB4601200190FFF758FF58
:10249000054694F83D0020287ED119230122604989
:1024A0002046009501F003FA10B10220BDE8FC9F20
:1024B00000BF94F83C00012801D10220F6E701207A
:1024C00084F83C0000BF2068006800F0010028B9D3
:1024D0002068006840F001002168086020680068FA
:1024E00020F4006021680860242084F83D0000206A
:1024F00020644C48E06200BF2068006840F48070AF
:1025000021680860334600224FF0011120460095F3
:1025100001F0CDF908B10320C8E707F0FE002168FB
:102520000861FFF70DFF054620684069C0F34009C8
:1025300020684069C0F3802A94F83DB012E026B1CB
:10254000FFF7FEFE401BB04202D9A02084F83D00F8
:1025500020684069C0F3400920684069C0F3802AC0
:1025600094F83DB0B9F1000F05D1BAF1000F02D1D6
:10257000BBF1A00FE3D1202084F83D002068406922
:10258000C0F3400028B32068006840F40070216860
:10259000086000BF002000E03FE000902068406934
:1025A000009020688069009000BF00BF19230122BD
:1025B0001B492046009501F07AF908B1032075E720
:1025C000202084F83D0000BF002084F83C0000BFBC
:1025D0006CE72068006840F40070216808606FF4C0
:1025E000806021684861192301220D492046009529
:1025F00001F05DF908B1032058E70198411C0191F1
:102600004045FFF479AF202084F83D0000BF002052
:1026100084F83C0000BF012048E7022046E70000A4
:10262000020010000000FFFF2DE9FC5F04460F468A
:1026300090469946DDE90CAB0E9E0025FFF780FE23
:10264000054694F83D0020287ED1192301225649E1
:102650002046009501F02BF910B10220BDE8FC9F47
:1026600000BF94F83C00012801D10220F6E70120C8
:1026700084F83C0000BF2068006800F0010028B921
:102680002068006840F00100216808602068006848
:1026900020F4006021680860212084F83D0040207B
:1026A00084F83E0000202064C4F824A0A4F82AB0D6
:1026B0003E48E062608D20854B46424639462046C2
:1026C000CDE9006501F058F880B1206C042806D1EE
:1026D00000BF002084F83C0000BF0120BEE700BF1F
:1026E000002084F83C0000BF0320B7E733E02A460F
:1026F0003146204601F06FF960B1206C042807D103
:102700002068006840F40070216808600120A5E797
:102710000320A3E7616A481C6062087821680861A9
:10272000208D401E2085608D401E60852068406998
:10273000C0F3800078B1208D68B1616A481C606286
:1027400008782168086100E02CE0208D401E20857B
:10275000608D401E6085208D0028C8D12A463146F4
:10276000204601F079F860B1206C042807D1206878
:10277000006840F400702168086001206EE70320C3
:102780006CE72068006840F4007021680860202031
:1027900084F83D00002084F83E0000BF84F83C002F
:1027A00000BF5BE7022059E7020010000000FFFFB6
:1027B00010B586B004461249206888421DD1032016
:1027C0000190122002900120039003200490042025
:1027D000059001A90B48FFF797FC00BF002000906F
:1027E0000948006840F4800007490860084600680E
:1027F00000F48000009000BF00BF06B010BD0000D4
:10280000005800400014024040380240034800686D
:102810000349097808440149086070471C010020F9
:102820002401002010B50D48006840F400700B49E9
:1028300008600846006840F4806008600846006848
:1028400040F480700860032000F0A6F8002000F03B
:1028500007F800F02BF8002010BD0000003C0240FB
:1028600070B504460E4800784FF47A71B1FBF0F071
:102870000C490968B1FBF0F5284600F008FC08B1E6
:10288000012070BD102C07D200222146501E00F0FE
:1028900045F80548046001E00120F2E70020F0E778
:1028A00024010020280100202001002010B5032071
:1028B00000F072F8002211466FF00B0000F02EF8C5
:1028C000002211466FF00A0000F028F8002211469D
:1028D0006FF0090000F022F800221146501F00F0AE
:1028E0001DF800221146101F00F018F800221146B2
:1028F000901E00F013F800221146501E00F00EF852
:1029000010BD00BF00F01F0201219140420992005A
:1029100002F1E022C2F8001100BF70472DE9F05F1C
:1029200080460D461646002701F094FC07463946BE
:102930002A46334601F00700C0F1070ABAF1040F36
:1029400002D94FF0040A01E0C0F1070AD14600F1B4
:10295000040ABAF1070F02D24FF0000A01E0A0F119
:10296000030AD4464FF0010A0AFA09FAAAF1010A49
:102970000AEA020A0AFA0CFA4FF0010B0BFA0CFBF6
:10298000ABF1010B0BEA030B4AEA0B04214640466C
:1029900001F07CFCBDE8F09F00BF00F00702064B91
:1029A00019684FF6FF031940044B0B4343EA022119
:1029B000014B196000BF70470CED00E00000FA0504
:1029C00070B504460D460CB9012070BD584800682A
:1029D00000F00F00A84209D255490D700846006862
:1029E00000F00F00A84201D00120EEE7207800F0AF
:1029F000020002281DD1207800F00400042805D12F
:102A00004C48006840F4E0504A490860207800F0E3
:102A10000800082805D14748006840F4604045494F
:102A200008604448006820F0F000A168084341496C
:102A30000860207800F00100A8B36068012807D181
:102A40003C4808380068C0F34040B8B90120BCE7F2
:102A50006068022802D06068032807D1354808382A
:102A60000068C0F3406048B90120AEE7314808383B
:102A70000068C0F3400008B90120A6E72D480068AF
:102A800020F00300616808432A490860FFF758FCFA
:102A9000064609E0FFF754FC801B41F2883188426A
:102AA00002D9032091E707E02248006800F00C00FB
:102AB0006168B0EB810FEDD11D48006800F00F0098
:102AC000A84209D91A490D700846006800F00F00A5
:102AD000A84201D0012078E7207800F00400042803
:102AE00007D11448006820F4E050E1680843114918
:102AF0000860207800F00800082808D10D48006818
:102B000020F46040216940EAC1000A49086000F0F1
:102B10002DF808490968C1F30311074A515CC84000
:102B2000064908600020FFF79BFE00204DE70000EB
:102B3000003C024008380240A46B00082801002035
:102B400001480068704700002801002000B5FFF729
:102B5000F7FF04490968C1F38221034A515CC84068
:102B600000BD000008380240B46B00082DE9F047B2
:102B7000002400250026A1462548006800F00C002E
:102B800020B1042805D008283AD105E0DFF8849068
:102B900039E0DFF8849036E01D48001F006800F03F
:102BA0003F041B48001F006800F4800078B11A48F9
:102BB0001749091F0968C1F38811A0FB017001467C
:102BC000224600233846FDF77DFB05460EE01148FE
:102BD0000F49091F0968C1F38811A0FB0170014664
:102BE000224600233846FDF76DFB05460848001FC6
:102BF0000068C0F30140401C4600B5FBF6F902E056
:102C0000DFF8109000BF00BF4846BDE8F087000025
:102C1000083802400024F40040787D01F8B50446ED
:102C20000CB90120F8BD207800F00100002874D014
:102C3000F948006800F00C0004280DD0F648006840
:102C400000F00C00082813D1F348001F006800F4BE
:102C50008000B0F5800F0BD1EF4808380068C0F352
:102C60004040002859D06068002856D10120D9E79B
:102C700000BF6068B0F5803F08D1E74808380068B9
:102C800040F48030E449083908601EE06068B0F51F
:102C9000A02F0DD1E0480838006840F48020DE49BC
:102CA000083908600846006840F4803008600CE08D
:102CB000D9480838006820F48030D74908390860BE
:102CC0000846006820F48020086000BF606890B16A
:102CD000FFF736FB054606E0FFF732FB401B642892
:102CE00001D903209EE7CC4808380068C0F3404073
:102CF0000028F1D011E0FFF723FB054606E0FFF7BF
:102D00001FFB401B642801D903208BE7C248083809
:102D10000068C0F340400028F1D1207800F00200A4
:102D200002285FD1BC48006800F00C0058B1BA48D6
:102D3000006800F00C0008281CD1B748001F00688C
:102D400000F48000B0B9B44808380068C0F340000F
:102D500020B1E068012801D0012063E7AE480838BF
:102D6000006820F0F800216940EAC100AA4908394A
:102D7000086037E0E06800B30120A8490860FFF769
:102D8000DFFA054606E0FFF7DBFA401B022801D90F
:102D9000032047E7A04808380068C0F34000002837
:102DA000F1D09D480838006820F0F800216940EA19
:102DB000C10099490839086014E00020974908606B
:102DC000FFF7BEFA054606E0FFF7BAFA401B0228F5
:102DD00001D9032026E7904808380068C0F3400076
:102DE0000028F1D1207800F0080008282CD1606973
:102DF000A8B101208A490860FFF7A2FA054606E05B
:102E0000FFF79EFA401B022801D903200AE78248F7
:102E10006C300068C0F340000028F1D014E00020BE
:102E20007F490860FFF78CFA054606E0FFF788FA4D
:102E3000401B022801D90320F4E677486C30006873
:102E4000C0F340000028F1D1207800F004000428ED
:102E500070D1002670483830006800F0805090B97A
:102E600000BF002000906C483830006840F080506F
:102E70006949383108600846006800F080500090C9
:102E800000BF00BF01266748006800F48070B0B939
:102E90006448006840F4807062490860FFF750FAA7
:102EA000054606E0FFF74CFA401B022801D9032033
:102EB000B8E65C48006800F480700028F2D000BFDB
:102EC000A068012808D154486830006840F001002B
:102ED0005149683108601DE0A06805280DD14E48B1
:102EE0006830006840F004004B49683108600846CB
:102EF000006840F0010008600CE047486830006856
:102F000020F001004449683108600846006820F05C
:102F10000400086000BFA068A8B1FFF711FA0546D9
:102F200009E0FFF70DFA401B41F28831884202D9CF
:102F3000032077E626E0384868300068C0F3400098
:102F40000028EED013E0FFF7FBF9054608E0FFF795
:102F5000F7F9401B41F28831884201D9032061E62C
:102F60002D4868300068C0F340000028EFD1012EE2
:102F700007D129483830006820F080502649383180
:102F8000086000BFA069B8B32348006800F00C00D7
:102F900008285ED0A069022846D100201F49086693
:102FA000FFF7CEF9054606E0FFF7CAF9401B0228F5
:102FB00001D9032036E6184808380068C0F340609D
:102FC0000028F1D1D4E907010843616A40EA811180
:102FD0000122A06AC2EB500041EA00412C20005DB2
:102FE00041EA00600C49091F086001200B4908668E
:102FF000FFF7A6F9054607E02DE0FFF7A1F9401B12
:10300000022801D903200DE6034808380068C0F300
:1030100040600028F1D01EE008380240000047421E
:10302000800E47420070004000200C490866FFF700
:1030300087F9054606E0FFF783F9401B022801D90E
:103040000320EFE506480068C0F340600028F2D195
:1030500001E00120E6E50020E4E500000000474231
:1030600000380240042808D14FF0E021096941F0FE
:1030700004014FF0E022116107E04FF0E0210969FF
:1030800021F004014FF0E02211617047704770B5E4
:1030900004462546681EB0F1807F01D301200FE071
:1030A000681E4FF0E02148610F214FF0FF3001F022
:1030B000EDF800204FF0E021886107200861002032
:1030C00070BD10B5FFF7E2FF10BD704770470246B4
:1030D00000BF92F83800012801D10220704701207A
:1030E00082F8380000BF022082F83900106840687A
:1030F00020F0700013685860106840680B6818432F
:10310000136858601068806820F080001368986029
:10311000106880684B68184313689860012082F833
:10312000390000BF002082F8380000BF00BFD5E79B
:1031300010B504460CB9012010BD94F8390028B927
:10314000002084F83800204600F00CF8022084F8B3
:103150003900211D206801F09DFA012084F8390012
:103160000020E9E738B504461C492068884218D198
:1031700000BF002000901A48006840F00200184983
:1031800008600846006800F00200009000BF00BF21
:10319000032201211D20FFF7C1FB1D20FFF7B1FB1A
:1031A0001BE010492068884217D100BF0020009022
:1031B0000B48006840F004000949086008460068B0
:1031C00000F00400009000BF00BF042201211E2077
:1031D000FFF7A4FB1E20FFF794FB38BD000400405E
:1031E000403802400008004001460868C06840F0CE
:1031F00001000A68D0600868006840F001000A68B1
:10320000106000207047704710B5044620680069C0
:10321000C0F34000D8B12068C068C0F34000B0B12E
:103220006FF0020021680861012020762068806923
:1032300000F0030018B12046FFF7E5FF05E0204647
:1032400000F0C6F8204600F07BF9002020762068C8
:103250000069C0F38000D8B12068C068C0F3800066
:10326000B0B16FF004002168086102202076206868
:10327000806900F4407018B12046FFF7C4FF05E0F4
:10328000204600F0A5F8204600F05AF900202076EC
:1032900020680069C0F3C000D8B12068C068C0F3DE
:1032A000C000B0B16FF008002168086104202076EA
:1032B0002068C06900F0030018B12046FFF7A3FFA3
:1032C00005E0204600F084F8204600F039F900209F
:1032D000207620680069C0F30010D8B12068C0686B
:1032E000C0F30010B0B16FF0100021680861082031
:1032F00020762068C06900F4407018B12046FFF7BE
:1033000082FF05E0204600F063F8204600F018F93F
:10331000002020762068006900F0010058B1206884
:10332000C06800F0010030B16FF001002168086151
:10333000204600F02DF920680069C0F3C01058B194
:103340002068C068C0F3C01030B16FF08000216801
:1033500008612046FFF7B9FE20680069C0F38010BD
:1033600058B12068C068C0F3801030B16FF04000E1
:1033700021680861204600F0E1F920680069C0F387
:10338000401058B12068C068C0F3401030B16FF0F1
:103390002000216808612046FFF798FE10BD00005C
:1033A00010B586B004462068B0F1804F0CD10420DF
:1033B00001900220029000200390049001200590CB
:1033C00001A90248FEF7A0FE06B010BD00000240B1
:1033D000704770B504460D46164600BF94F8380095
:1033E000012801D1022070BD012084F8380000BFFF
:1033F000022084F8390036B1042E1BD0082E31D0BB
:103400000C2E5ED145E02946206801F0C3F9206802
:10341000806940F00800216888612068806920F098
:10342000040021688861206880692969084321684F
:10343000886147E02946206801F0E4F92068806946
:1034400040F40060216888612068806920F4806011
:103450002168886120688069296940EA0120216823
:1034600088612FE02946206801F008FA2068C069C9
:1034700040F008002168C8612068C06920F004009D
:103480002168C8612068C069296908432168C8614A
:1034900018E02946206801F02DFA2068C06940F440
:1034A00000602168C8612068C06920F480602168DC
:1034B000C8612068C069296940EA01202168C861A3
:1034C00000E000BF00BF012084F8390000BF0020E9
:1034D00084F8380000BF00BF85E710B504460CB97A
:1034E000012010BD94F8390028B9002084F8380074
:1034F000204600F00DF8022084F83900211D2068D4
:1035000001F0C8F8012084F839000020E9E7000044
:1035100008B50168B1F1804F0FD100BF00210091C3
:103520000649096841F00101044A11601146096821
:1035300001F00101009100BF00BF08BD403802400A
:103540007047000030B504460D4601222946206828
:1035500001F012F90C492068884203D00B49206819
:10356000884201D1012000E0002028B12068406C91
:1035700040F40040216848642068006840F0010081
:1035800021680860002030BD0000014000040140B7
:1035900010B50446574884427ED101F0F7FE5648E4
:1035A0000068401C5449086054480068401C534956
:1035B000086053480068401C514908605148006841
:1035C000401C5049086050480068401C4E49086043
:1035D00008460068322803DB0020086002F04EFB3A
:1035E00048480068052829DB4848B0F9000000EE8B
:1035F000100AB8EEC00A00F02FFF00EE100AB8EE75
:10360000C00A434880ED000ABDEEC00A414880ED83
:10361000000A0A230122404801683E48006800F081
:1036200065FF3C4908600846006802F00DFC394817
:10363000006839490860002032490860374800684E
:1036400001281BD1FDF7EAFF012817D13448006893
:10365000401C3349086001F08BFD314800680528A3
:103660000CDB00202D4908602D4908609FED2D0AD4
:103670002D4880ED000A2D4880ED000A1F480068A3
:10368000012808DB2A48006C012804D101F094FDD0
:1036900000201A49086000E02BE017480068012864
:1036A0001EDB24480068401C224908602248D0EDF7
:1036B000000AB0EE600A002001F0BEFF00200E49B3
:1036C00008601C48006814280AD1002019490860C5
:1036D0001948D0ED010AB0EE600A012001F0ACFFFC
:1036E000074800680A2804DB02F0C2FD00200449F4
:1036F000086010BD8C0F00205C00002060000020DE
:10370000680000206400002070000020DC00002021
:103710007C000020400000204400002080000020A9
:103720006C00002000000000900000208C000020B1
:103730009C0E0020580000206C0E0020704700BF37
:10374000FEE7014608684069C0F3802088B16FF445
:1037500080600A685061042008640020086320200B
:1037600081F83D0000BF002081F83C0000BF01202F
:1037700070470020FCE700002DE9F8430446884626
:1037800015469946DDE908672068006840F48070B6
:1037900021680860334600224FF00111204600974F
:1037A00000F085F810B10320BDE8F88308F0FE00B2
:1037B000216808613B4632462649204600F0B5F8AC
:1037C00030B1206C042801D10120EDE70320EBE7A4
:1037D00000BF002000902068406900902068806948
:1037E000009000BF00BF3A463146204600F0F3F893
:1037F00060B1206C042807D12068006840F4007094
:10380000216808600120CFE70320CDE7B9F1010F5F
:1038100003D1E8B22168086119E0C5F307202168E7
:1038200008613A463146204600F0D5F860B1206C78
:10383000042807D12068006840F4007021680860FF
:103840000120B1E70320AFE7E8B22168086100205A
:10385000AAE700000200010070B504460D461646B6
:103860001DE02046FFF76DFF08B1012070BD681C08
:10387000A8B125B1FEF764FD801BA8420FD9206CCA
:1038800040F02000206400202063202084F83D00C8
:1038900000BF002084F83C0000BF0320E6E720685A
:1038A0004069C0F380000028DBD00020DEE72DE96E
:1038B000F04104460D4617461E46DDF8188017E015
:1038C000701CA8B12EB1FEF73BFDA0EB0800B04282
:1038D0000ED900202063202084F83D00002084F8C9
:1038E0003E0000BF84F83C0000BF0320BDE8F0812B
:1038F000C5F3074001280AD120684069A9B20840F1
:10390000A9B2884201D101200BE0002009E0206823
:103910008069A9B20840A9B2884201D1012000E023
:103920000020B842CCD00020E0E72DE9F041044669
:103930000D4616461F4631E020684069C0F38020DE
:10394000C0B12068006840F40070216808606FF41E
:1039500080602168486104202064002020632020CA
:1039600084F83D0000BF002084F83C0000BF012027
:10397000BDE8F081701C88B126B1FEF7E1FCC01BE8
:10398000B0420BD900202063202084F83D0000BF06
:10399000002084F83C0000BF0320E9E7C5F307409E
:1039A00001280AD120684069A9B20840A9B288421A
:1039B00001D101200BE0002009E020688069A9B254
:1039C0000840A9B2884201D1012000E0002000286F
:1039D000B2D00020CCE770B504460D4616461DE077
:1039E0002046FFF7AEFE08B1012070BD681CA8B1EB
:1039F00025B1FEF7A5FC801BA8420FD9206C40F032
:103A00002000206400202063202084F83D0000BFB7
:103A1000002084F83C0000BF0320E6E720684069EE
:103A2000C0F3C0100028DBD00020DEE710B50F483F
:103A3000007888B110210E48FEF774FC60B90020B0
:103A40000A4908701420FEF74BFB10210848FEF7C6
:103A500069FC08B9312010BD10210548FEF762FC51
:103A600010B10120014908700020F4E7180100207E
:103A70000010024008B5054909680143034A116076
:103A8000114609680140009100BF08BD403802405E
:103A9000F0B503460A4600240021106890FAA0F011
:103AA000B0FA80F47FE00125A540106800EA050126
:103AB000002977D050681D6891FAA1F6B6FA86F60B
:103AC00077000326BE40B54391FAA1F6B6FA86F612
:103AD000760000FA06F635431D6000BF50680128E5
:103AE00002D05068022814D190689D6891FAA1F61E
:103AF000B6FA86F677000326BE40B54391FAA1F6E2
:103B0000B6FA86F6760000FA06F635439D6000BFE9
:103B100000BF1069DD6891FAA1F6B6FA86F6770063
:103B20000326BE40B54391FAA1F6B6FA86F67600B2
:103B300000FA06F63543DD6000BF5068022831D137
:103B400091FAA1F0B0FA80F0082814D250691D6AE9
:103B500091FAA1F6B6FA86F6B7000F26BE40B54335
:103B600091FAA1F6B6FA86F6B60000FA06F63543E3
:103B70001D6200BF16E050695D6A0E0A96FAA6F64D
:103B8000B6FA86F6B7000F26BE40B5430E0A96FA7F
:103B9000A6F6B6FA86F6B60000FA06F635435D627A
:103BA00000BF00BF641C1068E04000287FF47BAFBA
:103BB0005068012802D05068022809D1D5681068E1
:103BC0005E68864300FB05F73E435E6000BF00BFB2
:103BD0000120F0BD10B5044600F0E2FB2060206833
:103BE00000F0AAFB6060606800F0B6FBA06060684F
:103BF00000F0C4FBE06010BD02480068C0F388100C
:103C00007047000004380240016921F490410161CD
:103C1000416921F02A0141617047C16841F40051B6
:103C2000C1607047C16841F02001C1607047000069
:103C30002DE9FF4104460D4600270026204600F0EE
:103C400067F800284FD1E968686808432969084384
:103C5000A9690843E16849F20C6291430843E060B6
:103C6000A868216921F440510143216100BF6869BE
:103C7000616921F440710143616100BF6846FFF74B
:103C8000A9FF1B48844201D1039E21E019488442C8
:103C900001D1029E1CE01848844201D1029E17E027
:103CA0001648844201D1039E12E01548844201D196
:103CB000029E0DE01348844201D1029E08E01248A2
:103CC000844201D1029E03E01048844200D1029E4A
:103CD0004EB1286838B10127314620462B68AA69C1
:103CE00000F01BF800BF384604B0BDE8F0810000CA
:103CF0000010014000440040004800400014014012
:103D0000004C00400050004000780040007C004023
:103D10000146C868C0F340307047F0B5B2F5004FB7
:103D20004ED101EBC10404EB01145D00B4FBF5F4CA
:103D30006425B4FBF5F4250101EBC10404EB011487
:103D40005E00B4FBF6F401EBC10606EB01165F0062
:103D5000B6FBF7F66427B6FBF7F606EBC60707EBEC
:103D60000616A4EB8604322606EBC4046426B4FBD4
:103D7000F6F404F0F80405EB440501EBC10404EB90
:103D800001145E00B4FBF6F401EBC10606EB01166C
:103D90005F00B6FBF7F66427B6FBF7F606EBC6073F
:103DA00007EB0616A4EB8604322606EBC404642651
:103DB000B4FBF6F404F007042C44A4B284604CE095
:103DC00001EBC10404EB01149D00B4FBF5F401EB1D
:103DD000C10505EB01159E00B5FBF6F56426B5FBA4
:103DE000F6F505EBC50606EB0515A4EB85043225B3
:103DF00005EB04146425B4FBF5F404F0F00401EBC6
:103E0000C10505EB01159E00B5FBF6F56426B5FB73
:103E1000F6F504EB051501EBC10404EB01149E005B
:103E2000B4FBF6F401EBC10606EB01169F00B6FBEE
:103E3000F7F66427B6FBF7F606EBC60707EB0616A0
:103E4000A4EB8604322606EB04146426B4FBF6F4D5
:103E500004F00F042C44A4B28460F0BD10B50E48E9
:103E60000E4908600620486000210C488160C1604E
:103E70004FF4302101610021416101764176817664
:103E8000C17601774177FDF77DFF18B1452104A088
:103E900000F00AFF10BD000000680040EC0E00209A
:103EA0002E2E2F5372632F63616E2E63000000006D
:103EB00000B587B000BF002001903F48006840F087
:103EC00010003D4908600846006800F010000190AD
:103ED00000BF00BF00BF002001900846006840F00E
:103EE000400008600846006800F04000019000BFF4
:103EF00000BF00BF002001900846006840F00100AC
:103F000008600846006800F00100019000BF00BF93
:103F100000BF002001900846006840F08000086063
:103F20000846006800F08000019000BF00BF00BF9D
:103F3000002001900846006840F020000860084614
:103F4000006800F02000019000BF00BF00BF00200B
:103F500001900846006840F00200086008460068CA
:103F600000F00200019000BF00BF002244F24001B7
:103F70001248FEF7DFF900224FF400611048FEF707
:103F8000D9F944F2400002900120039000200490EF
:103F9000059002A90948FEF7B7F84FF400600290B7
:103FA0000120039000200490059002A90448FEF728
:103FB000ABF807B000BD00003038024000140240EA
:103FC0000010024010B50C480C4908600C484860CD
:103FD00000210A488160C1604FF4804101610021E5
:103FE00041618161C1610162FEF7B0F918B14221FE
:103FF00004A000F059FE10BD00580040C80F00207A
:10400000A08601002E2E5C5372635C6932632E63BE
:104010000000000000B589B04FF080401A490860E8
:104020005320486000211848816044F61F61C16038
:1040300000210161FFF751FA18B1E92113A000F046
:1040400033FE00200790089007A90F48FFF73FF8BC
:1040500018B1F0210DA000F027FE60200090002094
:10406000019002900490082269460748FFF7B1F9D1
:1040700020B140F2031105A000F016FE0248FFF740
:104080008FF909B000BD0000140F00202E2E5C53E4
:1040900072635C74696D2E630000000010B50A48FD
:1040A0000A49086040F247304860002107488160B3
:1040B000C721C16000210161FFF73AF818B15E2104
:1040C00003A000F0F1FD10BD000400408C0F0020A3
:1040D0002E2E5C5372635C74696D2E6300000000C9
:1040E00030B58DB04FF08040FFF7C4FC4FF4C07086
:1040F00000900220019003200290002003900120F4
:1041000004900820059069461448FFF7C1FC00F0B0
:1041100099F805460222114600F074F8044621463B
:10412000522000F09FF8522000F061F84FF4E13087
:10413000069000200790089009900C200A9000201B
:104140000B900C9006A90648FFF772FD0448FFF794
:104150005BFD0348FFF761FD0DB030BD001002406C
:104160000078004030B58DB04FF00040FFF782FC82
:104170000320009002200190032002900020039071
:10418000012004900820059069461548FFF780FC3F
:1041900000F058F805460122114600F033F80446B5
:1041A0002146532000F05EF8532000F020F84FF431
:1041B000E120069000200790089009900C200A90BA
:1041C00000200B900C9006A90648FFF731FD05482A
:1041D000FFF71AFD0348FFF720FD0DB030BD0000CA
:1041E00000100240007C004000BFFEE7704700F076
:1041F0001F02012191404209920002F1E022C2F81F
:1042000000117047F0B503460C4603F00701C1F1F9
:104210000700042801D9042001E0C1F10700064687
:10422000081D072801D2002000E0C81E0546012015
:10423000B040401E2040A8400127AF407F1E1740DD
:104240003843F0BD02480068C0F302207047000008
:104250000CED00E002480068C0F302207047000047
:104260000CED00E010B5002807DA0A07140E054A25
:1042700000F00F031B1FD45403E00A07130E024A79
:10428000135410BD18ED00E000E400E010B5002864
:1042900007DA0A07140E054A00F00F031B1FD45457
:1042A00003E00A07130E024A135410BD18ED00E094
:1042B00000E400E031B1042911D008291CD00C29F8
:1042C00034D126E09FED1A1AF7EE000A51EE000AEB
:1042D000FCEEE00A10EE902A03685A6326E09FED98
:1042E000141AF7EE000A51EE000AFCEEE00A10EE96
:1042F000902A03689A6319E09FED0D1AF7EE000A01
:1043000051EE000AFCEEE00A10EE902A0368DA6330
:104310000CE09FED071AF7EE000A51EE000AFCEEE2
:10432000E00A10EE902A03681A6400BF00BF7047CD
:1043300000401C4670470000014600BF044800686A
:1043400000F0F0000009034A125C21FA02F0704705
:1043500008380240A46B0008014600BF0548006809
:1043600000F4E050044A02EB9020027821FA02F0B7
:104370007047000008380240B46B0008014600BFD7
:104380000548006800F46040044A02EB50300278AF
:1043900021FA02F07047000008380240B46B0008B0
:1043A00010B5002400BF0C48006800F00C0020B1DC
:1043B000042804D0082809D103E0084C08E0084C80
:1043C00006E0082000F00EF8044601E0034C00BFB0
:1043D00000BF204610BD0000083802400024F40051
:1043E000001BB7002DE9F0410446002500260027F8
:1043F00000BF1548006800F4800006461EB1B6F5FF
:10440000800F04D101E0114D03E0114D01E00F4D8B
:1044100000BF00BF082C14D100BF0B48006800F09B
:104420003F00B5FBF0F8FFF7E7FB08FB00F8064894
:10443000006800F44030012101EB10404000B8FB5F
:10444000F0F73846BDE8F081043802400024F4005B
:10445000001BB700704700001F49D1ED000A70EE45
:10446000800AC1ED000AD1ED000A9FED1C1AF4EE9E
:10447000C10AF1EE10FA03DBDFED180AC1ED000A04
:104480001549D1ED000A9FED161AF4EEC10AF1EEBE
:1044900010FA03D8DFED120AC1ED000A1149D1ED7F
:1044A000110A60EE800A91ED121A0B49D1ED001A43
:1044B00041EE210A0B4991ED131A0B49D1ED001A77
:1044C00070EE611A41EE210AFDEEE00A10EE900A4C
:1044D00081ED000A70470000D00000200000484233
:1044E000000048C29C0E0020CC00002030B50446DD
:1044F0000C480068401C0B4D286028460068984214
:104500000EDB00202860601A904201DB881830BD65
:10451000601A5542A84201DC881AF8E72046F6E7FF
:104520000846F4E7D800002010B5FEF76FF9FEF753
:10453000C8FD10BD10B592B000BF002000902E48FD
:10454000006840F080502C4908600846006800F080
:104550008050009000BF00BF00BF0020009027489F
:10456000006840F44040254908600846006800F4AF
:104570004040009000BF00BF01200690000407905B
:1045800002200C9041050D9106210E91A8210F915A
:10459000022110910421119106A8FEF73FFB18B1EA
:1045A000C32117A000F080FB0F2001900220029091
:1045B000002003904FF4A05004904FF480500590D9
:1045C000052101A8FEF7FCF918B1D1210CA000F0DB
:1045D0006BFBFEF7B5FA4FF47A71B0FBF1F42046AD
:1045E000FEF755FD0420FEF73DFD00221146501E4A
:1045F000FEF794F912B010BD403802400070004040
:104600002E2E2F5372632F6D61696E2E6300000092
:104610001448006840F470001249086012480068AD
:1046200040F001001049086000200F49083108607F
:104630000D4800680D4908400B4908600C48091DE9
:104640000860081F006820F48020091F086000200F
:1046500005490C3108604FF000600249803908605C
:104660007047000088ED00E000380240FFFFF6FED2
:104670001030002410B50248FEF7C6FD10BD000042
:104680008C0F002010B50248FEF7BEFD10BD0000E3
:10469000500F0020002202682C4B98420ED0B0F13F
:1046A000804F0BD02A4B984208D02A4B984205D015
:1046B000294B984202D0294B984201D1012300E0B6
:1046C00000231BB122F070024B681A431F4B984223
:1046D00020D0B0F1804F1DD01D4B98421AD01D4BF9
:1046E000984217D01C4B984214D01C4B984211D0C2
:1046F0001B4B98420ED01B4B98420BD01A4B984242
:1047000008D01A4B984205D0194B984202D0194B49
:10471000984201D1012300E000231BB122F4407232
:10472000CB681A4302608B68C3620B688362074BD5
:10473000984202D0094B984201D1012300E00023A6
:104740000BB10B6903630123436170470000014013
:104750000004004000080040000C0040000401403C
:104760000040014000440140004801400018004062
:10477000001C00400020004030B50023012404FA52
:1047800001F3046A9C430462046A02FA01F52C43B3
:10479000046230BD30B5002400220023056A25F0F4
:1047A00001050562026A4368846924F0700424F0FC
:1047B00003040D682C4322F002028D682A430F4D3A
:1047C000A84202D00E4DA84201D1012500E00025EB
:1047D0006DB122F00802CD682A4322F0040223F4CE
:1047E000807323F400734D692B438D692B43436021
:1047F00084614D684563026230BD000000000140E5
:104800000004014030B5002400220023056A25F091
:1048100010050562026A4368846924F4E04424F4C4
:1048200040740D6844EA052422F020028D6842EAB3
:104830000512104DA84202D00F4DA84201D101250A
:1048400000E0002585B122F08002CD6842EA051221
:1048500022F0400223F4806323F400634D6943EAAD
:1048600085038D6943EA8503436084614D688563F0
:10487000026230BD000001400004014030B5002458
:1048800000220023056A25F480750562026A4368E8
:10489000C46924F0700424F003040D682C4322F44E
:1048A00000728D6842EA0522104DA84202D0104DD8
:1048B000A84201D1012500E0002585B122F4006263
:1048C000CD6842EA052222F4806223F4805323F467
:1048D00000534D6943EA05138D6943EA05134360AC
:1048E000C4614D68C563026230BD00000000014034
:1048F0000004014030B5002200230024056A25F49D
:1049000080550562036A4468C26922F4E04222F4D9
:1049100040720D6842EA052223F400538D6843EA91
:1049200005330A4DA84202D0094DA84201D1012504
:1049300000E0002525B124F480444D6944EA851443
:104940004460C2614D680564036230BD00000140EF
:104950000004014000BF3C480068C0F3401000283C
:1049600070D000BF3848C068C0F34010002869D03C
:1049700000BF35484068C0B2344908700846017825
:10498000334802780078401C314B1870314881540C
:1049900018460078042802D10020194608702E48D5
:1049A000007830B101280CD0022828D003283ED14D
:1049B0002DE026480078A52802D10120264908705C
:1049C00036E02248007818B902202349087011E027
:1049D0001E480078012802D1204908600AE01B48DF
:1049E0000078022803D101201D49087002E0002050
:1049F00019490870154800781A49087018E01348DA
:104A000000781949087003201349087010E0154810
:104A1000007840B90D4800781349097840EA012030
:104A200000B21249088000200B49087000E000BF66
:104A300000BF00BF0448C06840F020000249C860C1
:104A400000BF00BF7047000000780040E000002079
:104A5000EC000020E8000020E200002080000020A0
:104A6000ED000020EE000020E1000020DC0000202E
:104A700010B500BF0F480068C0F34010C0B100BFC0
:104A80000C48C068C0F3401090B100BF09484068AE
:104A9000C0B2094908700846007800F0D3FF00BF93
:104AA0000448C06840F020000249C86000BF00BF51
:104AB00010BD0000007C00400000002000BFFEE7A9
:104AC000421A01EE102AB8EEC11AF0EE410A1C4A51
:104AD00092ED001A31EE201A82ED001A92ED001AC2
:104AE000DFED181AB4EEE11AF1EE10FA03DD9FEDD6
:104AF000151A82ED001A124A92ED001ADFED121A11
:104B0000B4EEE11AF1EE10FA03D29FED0F1A82ED26
:104B1000001A0E4A92ED061A61EE201AB2EE042A2D
:104B200081EE821AD2ED071A054A92ED002A61EE53
:104B3000821A9FED072AC1EE822A31EE220A7047BF
:104B4000C800002000004843000048C39C0E00201D
:104B500000007A44F0EE401A71EEE02AB0EE622ACC
:104B60001A48D0ED002A72EE822AC0ED002AD0ED5C
:104B7000002AB3EE0E3AF4EEC32AF1EE10FA03DD8A
:104B8000F3EE0E2AC0ED002A1048D0ED002ABBEE4D
:104B90000E3AF4EEC32AF1EE10FA03D2FBEE0E2A1F
:104BA000C0ED002A0A48D0ED032A62EE822A90ED79
:104BB000043A0648D0ED003A43EE232A044890ED2B
:104BC000053AB0EE620A01EE030A7047C400002005
:104BD0009C0E0020B0EE401A31EE602AF0EE421A30
:104BE0002A4880ED002A2A4890ED002A31EE822AD8
:104BF0002848D0ED002A32EE222A274880ED002AEC
:104C000090ED002ADFED252AB4EEE22AF1EE10FA4B
:104C100003DD9FED222A80ED002A1F4890ED002A37
:104C2000DFED1F2AB4EEE22AF1EE10FA03D29FED77
:104C30001C2A80ED002A1B48D0ED092AB2EE043A66
:104C400082EE832A22EE212AD0ED0A2A124890ED24
:104C5000003A03EE222A1348D0ED0B2A0B4890EDC0
:104C6000003A0B48D0ED003A33EE633AB0EE420A18
:104C700002EE830A90ED002A064880ED002A0348E0
:104C800090ED002A024880ED002A7047AC00002019
:104C9000B0000020B4000020A800002000007A44EA
:104CA00000007AC49C0E002000BFFEE703B4019808
:104CB0004100009850EAC12018BF04204A0D18BFD7
:104CC00040F0010040F2FF72B2EB515F08BF40F0CC
:104CD0000200012808BF052002B070474100080209
:104CE00018BF04200A0E18BF40F001004FF07F42A9
:104CF00032EA010108BF40F00200012808BF052088
:104D00007047000010EE101A08B5444A6846B2EB2E
:104D1000410F28D94FF0E640B0EB410F94BF00207F
:104D20004FF0FF3000900098002861DB60EE000A31
:104D300010F0010F45D010F0020FDFED391A9FED92
:104D4000391A00EEE11ADFED381A40EE811A21EE31
:104D5000A01AF0EE400A40EE010A08BFF1EE600A28
:104D6000B0EE600A08BD314B21F0004293423CD9BD
:104D700011F0004FDFED2E0A20EE201ADFED2D0A94
:104D800019BF31EE601A71EE200A31EE201A71EE71
:104D9000600ABDEEE01A11EE100A9FED271A00F02E
:104DA000030000EEC10A9FED251A009000EEC10A33
:104DB0009FED231A00EEC10A9FED221A00EEC10AF0
:104DC000B1E79FED211A9FED210A10F0020F00EECE
:104DD000810A9FED1F1A00EE801AB7EE000A00EE5E
:104DE000810A18BFB1EE400A08BD00F00FF99AE73A
:104DF00010EE100A4000B0F17F4F3CBFB7EE000A42
:104E000008BD07D14FF00100FBF705FCBDE80840E5
:104E100000F0ECB8BDE8084000F0E4B8B61F927EA0
:104E2000336D4C39DA82083CA0AA2ABE490E4946A5
:104E300083F9223F0000004B0000C93F00A0FD396C
:104E40000020A2331A61342CB93AB2BACA9F2A3D63
:104E5000DDFFFFBE00B510EE101A2DED028B81B004
:104E6000524A6846B2EB410F2ED94FF0E640B0EB04
:104E7000410F94BF00204FF0FF3000900098B0EE3B
:104E8000408A00286ADB10F0010F4BD068EE080A58
:104E90009FED471A9FED470A00EE810A9FED461AE3
:104EA00010F0020F00EE801AB7EE000A00EE810A41
:104EB00002BF01B0BDEC028B00BD00BF01B0B1EE7E
:104EC000400ABDEC028B00BD3C4B21F000429342F6
:104ED00041D911F0004FDFED3A0A20EE201ADFED44
:104EE000390A19BF31EE601A71EE200A31EE201A2C
:104EF00071EE600ABDEEE01A11EE100A9FED321A53
:104F000000F0030000EEC10A9FED301A009000EEA1
:104F1000C10A9FED2F1A00EEC10A9FED2E1A00EE76
:104F2000C10AABE728EE080A9FED2B1ADFED2B0A2A
:104F300010F0020F40EE410A9FED291A00EE201AF0
:104F400061EE000AB0EE480A08EE200AB6D101B0C0
:104F5000BDEC028B00BD00F059F88FE718EE100A87
:104F60004000B0F17F4F0DD218EE100AFFF7B6FEE9
:104F7000042808BF00F042F8B0EE480A01B0BDECCA
:104F8000028B00BD09D10120FBF745FB01B0BDEC50
:104F9000028B5DF804EB00F029B801B0B0EE480ACE
:104FA000BDEC028B5DF804EB00F01CB8B61F927EDE
:104FB000B93AB2BACA9F2A3DDDFFFFBE490E494643
:104FC00083F9223F0000004B0000C93F00A0FD39DB
:104FD0000020A2331A61342C336D4C39DA82083C3C
:104FE000A0AA2ABE30EE000A70470000DFED020AD8
:104FF00080EEA00A70470000000000009FED020A4A
:1050000020EE000A70470000000000102DE9F001BA
:105010004FF07F42B2EB410F9FBF4FF0FF31016075
:10502000BDE8F00170474FF0004242EA0123C1F3AE
:10503000C752783A551112F01F0C434CCCF12006A0
:105040007C44C1F3C752A2F178024FEA621204EB2A
:10505000820254F8254008BFD2E9015612D05568A3
:1050600004FA0CF425FA06F73C43976805FA0CF5A8
:1050700027FA06F8D26807FA0CFCF24045EA080560
:105080004CEA0206A4FB034CA5FB0352A6FB0363F8
:105090001D449D4234BF012600261319334416B126
:1050A000934202D903E0934201D2012200E00022A0
:1050B000624402F1200C9206DC0C42EA443200EE1B
:1050C000102A5B03DFED210AF8EEC01A00EE103A59
:1050D0004FEA9C1C11F0004FB8EE400AC0F800C027
:1050E00020EE201A00EE105ADFED190AB8EE400A41
:1050F00020EE200A71EE810A70EE800A10EE902AEE
:1051000002F500626FF30B0200EE902A70EEE11AD6
:1051100031EEC11ADFED101A30EE411A9FED0D0A83
:1051200020EE800A01EE210A9FED0C1A00EE810AA2
:1051300004BFBDE8F0017047CCF180510160BDE8CB
:10514000F001B1EE400A7047781B00000000003605
:105150000000802C22AAFD29DB0FC92F0000C92FD7
:1051600030380A2801D20120704700207047000023
:105170000E490F4A1278885C0E49486000BF00BF94
:105180000C48006800F040000028F9D0084800787A
:10519000401C0749087008460078052190FBF1F291
:1051A00001FB12000249087070470000EF00002068
:1051B000F40000200078004000B550480068401C12
:1051C0004E4908604E480068401C4D49086008463A
:1051D000006846280FDB4B4991ED080ABDEEC00A76
:1051E00010EE100A0021FFF76BFC474880ED000A23
:1051F000002043490860414800680F281BDB4348F2
:10520000D0ED031AB0EE611A4148D0ED0C1A3E48B9
:1052100090ED002A71EE821AF0EE610A3B48D0ED63
:10522000061AB0EE610AFFF795FC3A4880ED000AD5
:105230000020324908603548D0ED030AB0EE600A1C
:105240003448D0ED000AFCF78DF9334880ED000AB0
:1052500090ED000A2B4880ED000A90ED000ADFED8A
:105260002F0AB4EEE00AF1EE10FA04DD9FED2B0AEE
:1052700080ED000A0DE0234890ED000ADFED280ADA
:10528000B4EEE00AF1EE10FA03D29FED250A80EDAC
:10529000000A1E4890ED060A1D48D0ED0C0A30EEBB
:1052A000600AF0EE080AB4EEE00AF1EE10FA0EDC45
:1052B000164890ED060A1648D0ED0C0A30EE600A4A
:1052C000F8EE080AB4EEE00AF1EE10FA15D200206A
:1052D0000F4908649FED130A0A4880ED010A80ED2A
:1052E000000A0020C863104908609FED0E0A0F48AD
:1052F00080ED000A00200E49087000BD500000201B
:10530000540000206C0E0020380000202C010020EA
:105310009C0E0020340000203C000020000082424F
:10532000000082C2000000002C000020A00000202D
:10533000ED000020F0B503460C461888002113E06C
:10534000675C80EA072000250BE0460000F4004C73
:10535000BCF1000F03D041F2210C86EA0C06304666
:105360006D1C082DF1D3491C9142E9D31880F0BD82
:105370004020704710B50349034800F015FC002099
:1053800010BD0000E55700085001002000B5194885
:10539000006B1949C8611748406B88611548806BDC
:1053A0000862084690ED080AB5EEC00AF1EE10FA60
:1053B0000AD21048806B00EE100ADFED100A30EEC2
:1053C000200A084680ED080A0A4880690A49C86030
:1053D0000848C06908610748006A48610846D0ED7E
:1053E000030AB0EE600A00F021F8034880ED030ADA
:1053F00000BD00005C0900202C0100200000B44327
:1054000010B5FFF7B7FF10BD00B585B010200090B4
:10541000002001900120029000200390694602487C
:10542000FCF772FE05B000BD00100240F0EE400A2D
:105430000D480078012805D100200B4908700B4861
:10544000C0ED000A094890ED001A70EEC11A90ED07
:10545000001A074890ED002AB0EE410A02EE210A38
:10546000024880ED000A70470C0000200800002070
:1054700004000020FDF7D6F9FFF75CF8FEF718FDF1
:10548000FEF7ECFCFEF70AFEFEF79CFDFEF76AFE57
:10549000FEF726FE00F09AF8FFF7B2FF00F096FB49
:1054A0002048FEF7BFFB2048FEF7BCFB00F0C2FC23
:1054B0001E48FDF799FE00F05BF9FFF7A5FF2FE00E
:1054C0003220FCF70DFE1A480068012805DC00F0C8
:1054D000EBF8FEF7ABFA1749086016480068312868
:1054E0001ED113480068401C114908600846006836
:1054F00001280ED11048006C90B9104890ED060AB2
:105500000D4880ED0D0A80ED0C0A01200A4908645F
:1055100006E007480068022802D101200649C86356
:10552000CEE70000007C0040007800408C0F002097
:105530002C000020280000209C0E00202C010020C0
:105540000146002904DB00EE901AB8EEE00A06E0FE
:10555000002904DA484200EE900AB8EEE00AFDEEB7
:10556000C00A10EE900A7047F0EE400AF5EEC00A4D
:10557000F1EE10FA02DBB0EE600A06E0F5EEC00ACA
:10558000F1EE10FA01D2B1EE600A704710B58AB0A0
:105590000120089000200590049000900190029056
:1055A000039006900120079069460748FCF76CF9C4
:1055B00004460548FCF75DFD044602210248FCF75D
:1055C000B7F80AB010BD0000EC0E002010B59FED3A
:1055D000180A184880ED000A9FED150A80ED010AAF
:1055E0009FED130A80ED080A9FED110A80ED090A6C
:1055F0009FED0F0A80ED020A9FED0D0A80ED030A70
:105600009FED0B0A80ED040A9FED090A80ED050A63
:105610009FED070A80ED060A9FED050A80ED070A57
:10562000002004498862C862FFF7B0FF10BD000087
:10563000000000006C0E002031B52DED020B8AB089
:105640000546002007900690082008900DB9182004
:1056500000E010200D2141EA401004900020059048
:105660000AAC20788DF8080060788DF80900A078E1
:105670008DF80A00E0788DF80B0000208DF80C0002
:105680008DF80D008DF80E008DF80F0001AB02AA09
:1056900004A90348FCF762F8024908700DB030BD58
:1056A000EC0E00203000002010B52DED028B2848B4
:1056B00090ED060A10EE101A084600F03FFE41EC8D
:1056C000180B53EC182B23A12448FAF773FE0A2178
:1056D000322000F0FBFC224806C8204800F0A0FD64
:1056E000204890ED080A10EE101A084600F026FE39
:1056F00041EC180B53EC182B16A11B48FAF75AFE75
:105700001921372000F0E2FC154806C8164800F0C1
:1057100087FD144890ED090A10EE101A084600F0B3
:105720000DFE41EC180B53EC182B0AA10F48FAF7A9
:1057300041FE2821372000F0C9FC094806C80B4863
:1057400000F06EFD00F0C8FCBDEC028B10BD000047
:105750002C010020252E32660000000009010020E7
:10576000F80000206C0E00200E0100201301002024
:1057700010B500F019FCA12000F030FDC82000F0A9
:105780002DFD00F0A9FB012000F09AFC0A21142055
:1057900000F09CFC0C4806C80CA000F041FD19214B
:1057A000142000F093FC084806C80AA000F038FD59
:1057B0002821142000F08AFC034806C807A000F046
:1057C0002FFD00F089FC10BDF8000020494D553A2E
:1057D00000000000454E43313A000000454E433280
:1057E0003A000000FEB506460020009001900290AD
:1057F00000270024351D96F80808A52800D0FEBD16
:1058000000208B4908700CE1285DB02849D008DCE5
:10581000622872D090280DD091286FD0A0286ED128
:1058200013E0C0286FD0D0286BD0D1286AD0F028E0
:10583000F5D1CFE07E48007840F001007C49087047
:1058400068787C494870A41CEAE07948007840F008
:105850000200774908702819411C684600F0F3FCE3
:105860009DED000AB8EEC00ADFED730A80EE201A43
:10587000704880ED031A9DED010AB8EEC00ADFED15
:105880006E0A80EE201A80ED041A9DED020AB8EE31
:10589000C00ADFED690A80EE201A80ED051AE41DCA
:1058A000BEE06348007840F00400614908702819A0
:1058B000411C684600F0C7FC9DED000AB8EEC00A26
:1058C000F2EE040A80EE201A5A4880ED061A9DED89
:1058D000010AB8EEC00AF2EE040A80EE201A80ED4A
:1058E000071A9DED020AB8EEC00AF2EE040A80EE35
:1058F000201A80ED081AE41D92E077E06CE08DE05C
:1059000001E02CE057E04A48007840F008004849A0
:1059100008702819411C684600F095FC9DED000AAE
:10592000B8EEC00AF2EE040A80EE201A414880ED7B
:10593000091A9DED010AB8EEC00AF2EE040A80EEE3
:10594000201A80ED0A1A9DED020AB8EEC00AF2EEA6
:10595000040A80EE201A80ED0B1AE41D60E0344842
:10596000007840F01000324908702819411C684640
:1059700000F069FC9DED000AB8EEC00ADFED2F0AC9
:1059800080EE201A2B4880ED0D1A9DED010AB8EE2D
:10599000C00ADFED2A0A80EE201A80ED0C1A9DED78
:1059A000020AB8EEC00AF2EE040A80EE201A80ED78
:1059B0000E1AE41D34E01E48007840F020001C4917
:1059C00008702819411C10221A483C30FAF78DFD46
:1059D000113425E0641D23E07F20154908704C2216
:1059E00029461448FAF781FD4C3419E01448296817
:1059F000016069684160083400270AE07F200C4993
:105A0000087029194C220E48C01CFAF76EFD4C3460
:105A10007F1C0B488078B842F0DC01E0641C00BFBA
:105A200000BFB6F80408A0423FF7EEAE00BFE6E6BE
:105A30000D0000205C09002000007A440000C842EC
:105A4000A809002010B504465048007807287DD2E8
:105A5000DFE800F0040A1822323848005A2C02D13C
:105A600001204A4908708DE04948006880F80848DC
:105A70004748006890F80808A52802D10220434949
:105A800008707FE042480068A0F8044841488470EC
:105A900003203E49087075E03D480068B0F80408EE
:105AA00040EA04203A490968A1F804083948C4705A
:105AB00004203649087065E03748048005203349E2
:105AC00008705FE03448008840EA042032490880CA
:105AD00000202F49096808603049088006202B49BA
